{
  "contractName": "OGFlatFactory",
  "abi": [
    {
      "inputs": [
        {
          "internalType": "address",
          "name": "_proxyRegistryAddress",
          "type": "address"
        },
        {
          "internalType": "address",
          "name": "_nftAddress",
          "type": "address"
        }
      ],
      "stateMutability": "nonpayable",
      "type": "constructor"
    },
    {
      "anonymous": false,
      "inputs": [
        {
          "indexed": true,
          "internalType": "address",
          "name": "previousOwner",
          "type": "address"
        },
        {
          "indexed": true,
          "internalType": "address",
          "name": "newOwner",
          "type": "address"
        }
      ],
      "name": "OwnershipTransferred",
      "type": "event"
    },
    {
      "anonymous": false,
      "inputs": [
        {
          "indexed": true,
          "internalType": "address",
          "name": "from",
          "type": "address"
        },
        {
          "indexed": true,
          "internalType": "address",
          "name": "to",
          "type": "address"
        },
        {
          "indexed": true,
          "internalType": "uint256",
          "name": "tokenId",
          "type": "uint256"
        }
      ],
      "name": "Transfer",
      "type": "event"
    },
    {
      "inputs": [],
      "name": "baseURI",
      "outputs": [
        {
          "internalType": "string",
          "name": "",
          "type": "string"
        }
      ],
      "stateMutability": "view",
      "type": "function",
      "constant": true
    },
    {
      "inputs": [],
      "name": "foundationAddress",
      "outputs": [
        {
          "internalType": "address",
          "name": "",
          "type": "address"
        }
      ],
      "stateMutability": "view",
      "type": "function",
      "constant": true
    },
    {
      "inputs": [],
      "name": "nftAddress",
      "outputs": [
        {
          "internalType": "address",
          "name": "",
          "type": "address"
        }
      ],
      "stateMutability": "view",
      "type": "function",
      "constant": true
    },
    {
      "inputs": [],
      "name": "owner",
      "outputs": [
        {
          "internalType": "address",
          "name": "",
          "type": "address"
        }
      ],
      "stateMutability": "view",
      "type": "function",
      "constant": true
    },
    {
      "inputs": [],
      "name": "proxyRegistryAddress",
      "outputs": [
        {
          "internalType": "address",
          "name": "",
          "type": "address"
        }
      ],
      "stateMutability": "view",
      "type": "function",
      "constant": true
    },
    {
      "inputs": [],
      "name": "renounceOwnership",
      "outputs": [],
      "stateMutability": "nonpayable",
      "type": "function"
    },
    {
      "inputs": [],
      "name": "name",
      "outputs": [
        {
          "internalType": "string",
          "name": "",
          "type": "string"
        }
      ],
      "stateMutability": "pure",
      "type": "function",
      "constant": true
    },
    {
      "inputs": [],
      "name": "symbol",
      "outputs": [
        {
          "internalType": "string",
          "name": "",
          "type": "string"
        }
      ],
      "stateMutability": "pure",
      "type": "function",
      "constant": true
    },
    {
      "inputs": [],
      "name": "supportsFactoryInterface",
      "outputs": [
        {
          "internalType": "bool",
          "name": "",
          "type": "bool"
        }
      ],
      "stateMutability": "pure",
      "type": "function",
      "constant": true
    },
    {
      "inputs": [
        {
          "internalType": "address",
          "name": "newOwner",
          "type": "address"
        }
      ],
      "name": "transferOwnership",
      "outputs": [],
      "stateMutability": "nonpayable",
      "type": "function"
    },
    {
      "inputs": [
        {
          "internalType": "uint256",
          "name": "_optionId",
          "type": "uint256"
        },
        {
          "internalType": "address",
          "name": "_toAddress",
          "type": "address"
        }
      ],
      "name": "mint",
      "outputs": [],
      "stateMutability": "payable",
      "type": "function",
      "payable": true
    },
    {
      "inputs": [],
      "name": "getSupply",
      "outputs": [
        {
          "internalType": "uint256",
          "name": "",
          "type": "uint256"
        }
      ],
      "stateMutability": "view",
      "type": "function",
      "constant": true
    },
    {
      "inputs": [
        {
          "internalType": "uint256",
          "name": "mintCount",
          "type": "uint256"
        }
      ],
      "name": "canMint",
      "outputs": [
        {
          "internalType": "bool",
          "name": "",
          "type": "bool"
        }
      ],
      "stateMutability": "view",
      "type": "function",
      "constant": true
    },
    {
      "inputs": [
        {
          "internalType": "uint256",
          "name": "_optionId",
          "type": "uint256"
        }
      ],
      "name": "tokenURI",
      "outputs": [
        {
          "internalType": "string",
          "name": "",
          "type": "string"
        }
      ],
      "stateMutability": "view",
      "type": "function",
      "constant": true
    },
    {
      "inputs": [
        {
          "internalType": "address",
          "name": "_from",
          "type": "address"
        },
        {
          "internalType": "address",
          "name": "_to",
          "type": "address"
        },
        {
          "internalType": "uint256",
          "name": "_tokenId",
          "type": "uint256"
        }
      ],
      "name": "transferFrom",
      "outputs": [],
      "stateMutability": "nonpayable",
      "type": "function"
    },
    {
      "inputs": [
        {
          "internalType": "address",
          "name": "_owner",
          "type": "address"
        },
        {
          "internalType": "address",
          "name": "_operator",
          "type": "address"
        }
      ],
      "name": "isApprovedForAll",
      "outputs": [
        {
          "internalType": "bool",
          "name": "",
          "type": "bool"
        }
      ],
      "stateMutability": "view",
      "type": "function",
      "constant": true
    },
    {
      "inputs": [
        {
          "internalType": "uint256",
          "name": "_tokenId",
          "type": "uint256"
        }
      ],
      "name": "ownerOf",
      "outputs": [
        {
          "internalType": "address",
          "name": "_owner",
          "type": "address"
        }
      ],
      "stateMutability": "view",
      "type": "function",
      "constant": true
    }
  ],
  "bytecode": "0x60e060405260266080818152906200120c60a0398051620000299160039160209091019062000169565b506127106004553480156200003d57600080fd5b50604051620012323803806200123283398101604081905262000060916200022c565b6200006b33620000b1565b600180546001600160a01b038481166001600160a01b03199283161790925560028054848416921691909117905560008054620000a9921662000101565b5050620002cb565b600080546001600160a01b038381166001600160a01b0319831681178455604051919092169283917f8be0079c531659141344cd1fd0a4f28419497f9722a3daafe3b4186f6b6457e09190a35050565b60005b6003811015620001645780826001600160a01b0316846001600160a01b03167fddf252ad1be2c89b69c2b068fc378daa952ba7f163c4a11628f55a4df523b3ef60405160405180910390a4806200015b8162000264565b91505062000104565b505050565b82805462000177906200028e565b90600052602060002090601f0160209004810192826200019b5760008555620001e6565b82601f10620001b657805160ff1916838001178555620001e6565b82800160010185558215620001e6579182015b82811115620001e6578251825591602001919060010190620001c9565b50620001f4929150620001f8565b5090565b5b80821115620001f45760008155600101620001f9565b80516001600160a01b03811681146200022757600080fd5b919050565b600080604083850312156200024057600080fd5b6200024b836200020f565b91506200025b602084016200020f565b90509250929050565b60006000198214156200028757634e487b7160e01b600052601160045260246000fd5b5060010190565b600181811c90821680620002a357607f821691505b60208210811415620002c557634e487b7160e01b600052602260045260246000fd5b50919050565b610f3180620002db6000396000f3fe6080604052600436106100fe5760003560e01c80638da5cb5b11610095578063c87b56dd11610064578063c87b56dd146102b5578063cd7c0326146102d5578063e985e9c5146102f5578063f2fde38b14610315578063fcf07c6b1461033557600080fd5b80638da5cb5b1461024457806394bf804d1461026257806395d89b4114610275578063c311c523146102a157600080fd5b80636352211e116100d15780636352211e146101d75780636c0360eb146101f75780636c9c2faf1461020c578063715018a61461022f57600080fd5b806306fdde031461010357806323b872dd1461014d5780635bf8633a1461016f5780635dd871a3146101a7575b600080fd5b34801561010f57600080fd5b5060408051808201909152600f81526e53776964646c6520466163746f727960881b60208201525b6040516101449190610b95565b60405180910390f35b34801561015957600080fd5b5061016d610168366004610bdd565b61035d565b005b34801561017b57600080fd5b5060025461018f906001600160a01b031681565b6040516001600160a01b039091168152602001610144565b3480156101b357600080fd5b506101c76101c2366004610c1e565b61036c565b6040519015158152602001610144565b3480156101e357600080fd5b5061018f6101f2366004610c1e565b61038f565b34801561020357600080fd5b506101376103f8565b34801561021857600080fd5b50610221610486565b604051908152602001610144565b34801561023b57600080fd5b5061016d6104f8565b34801561025057600080fd5b506000546001600160a01b031661018f565b61016d610270366004610c37565b61052e565b34801561028157600080fd5b5060408051808201909152600381526229aba360e91b6020820152610137565b3480156102ad57600080fd5b5060016101c7565b3480156102c157600080fd5b506101376102d0366004610c1e565b610738565b3480156102e157600080fd5b5060015461018f906001600160a01b031681565b34801561030157600080fd5b506101c7610310366004610c67565b61076c565b34801561032157600080fd5b5061016d610330366004610c95565b610887565b34801561034157600080fd5b5061018f73a37dbfba2f086187699d78d17ec0750462bd054981565b610367818361052e565b505050565b600080610377610486565b9050826004546103879190610cc8565b101592915050565b60008061039a610486565b9050828110156103e45760405162461bcd60e51b815260206004820152601060248201526f125b9d985b1a59081d1bdad95b881a5960821b60448201526064015b60405180910390fd5b6000546001600160a01b03165b9392505050565b6003805461040590610cdf565b80601f016020809104026020016040519081016040528092919081815260200182805461043190610cdf565b801561047e5780601f106104535761010080835404028352916020019161047e565b820191906000526020600020905b81548152906001019060200180831161046157829003601f168201915b505050505081565b600254604080516318160ddd60e01b815290516000926001600160a01b031691839183916318160ddd9160048083019260209291908290030181865afa1580156104d4573d6000803e3d6000fd5b505050506040513d601f19601f820116820180604052508101906103f19190610d1a565b6000546001600160a01b031633146105225760405162461bcd60e51b81526004016103db90610d33565b61052c60006108d4565b565b6001546001600160a01b0316336001600160a01b0316816001600160a01b031663c45527916105656000546001600160a01b031690565b6040516001600160e01b031960e084901b1681526001600160a01b039091166004820152602401602060405180830381865afa1580156105a9573d6000803e3d6000fd5b505050506040513d601f19601f820116820180604052508101906105cd9190610d68565b6001600160a01b031614806105ec57506000546001600160a01b031633145b6105f8576105f8610d85565b607d3410156106495760405162461bcd60e51b815260206004820152601d60248201527f313235204d4154494320697320726571756972656420746f206d696e7400000060448201526064016103db565b6000610656607d34610db1565b90506106618161036c565b6106a25760405162461bcd60e51b815260206004820152601260248201527113585e081cdd5c1c1b1e481c995858da195960721b60448201526064016103db565b6106ab34610924565b6002546001600160a01b031660005b828110156107305760405163755edd1760e01b81526001600160a01b03868116600483015283169063755edd1790602401600060405180830381600087803b15801561070557600080fd5b505af1158015610719573d6000803e3d6000fd5b50505050808061072890610dc5565b9150506106ba565b505050505050565b6060600361074583610965565b604051602001610756929190610dfc565b6040516020818303038152906040529050919050565b6000826001600160a01b031661078a6000546001600160a01b031690565b6001600160a01b03161480156107b15750816001600160a01b0316836001600160a01b0316145b156107be57506001610881565b6001546001600160a01b039081169084166107e16000546001600160a01b031690565b6001600160a01b031614801561086c575060405163c455279160e01b81526001600160a01b038581166004830152808516919083169063c455279190602401602060405180830381865afa15801561083d573d6000803e3d6000fd5b505050506040513d601f19601f820116820180604052508101906108619190610d68565b6001600160a01b0316145b1561087b576001915050610881565b60009150505b92915050565b6000546001600160a01b031633146108b15760405162461bcd60e51b81526004016103db90610d33565b6000546001600160a01b03166108c682610a6b565b6108d08183610b06565b5050565b600080546001600160a01b038381166001600160a01b0319831681178455604051919092169283917f8be0079c531659141344cd1fd0a4f28419497f9722a3daafe3b4186f6b6457e09190a35050565b60405173a37dbfba2f086187699d78d17ec0750462bd05499082156108fc029083906000818181858888f193505050501580156108d0573d6000803e3d6000fd5b6060816109895750506040805180820190915260018152600360fc1b602082015290565b8160005b81156109b3578061099d81610dc5565b91506109ac9050600a83610db1565b915061098d565b60008167ffffffffffffffff8111156109ce576109ce610ea3565b6040519080825280601f01601f1916602001820160405280156109f8576020820181803683370190505b5090505b8415610a6357610a0d600183610cc8565b9150610a1a600a86610eb9565b610a25906030610ecd565b60f81b818381518110610a3a57610a3a610ee5565b60200101906001600160f81b031916908160001a905350610a5c600a86610db1565b94506109fc565b949350505050565b6000546001600160a01b03163314610a955760405162461bcd60e51b81526004016103db90610d33565b6001600160a01b038116610afa5760405162461bcd60e51b815260206004820152602660248201527f4f776e61626c653a206e6577206f776e657220697320746865207a65726f206160448201526564647265737360d01b60648201526084016103db565b610b03816108d4565b50565b60005b60038110156103675780826001600160a01b0316846001600160a01b03167fddf252ad1be2c89b69c2b068fc378daa952ba7f163c4a11628f55a4df523b3ef60405160405180910390a480610b5d81610dc5565b915050610b09565b60005b83811015610b80578181015183820152602001610b68565b83811115610b8f576000848401525b50505050565b6020815260008251806020840152610bb4816040850160208701610b65565b601f01601f19169190910160400192915050565b6001600160a01b0381168114610b0357600080fd5b600080600060608486031215610bf257600080fd5b8335610bfd81610bc8565b92506020840135610c0d81610bc8565b929592945050506040919091013590565b600060208284031215610c3057600080fd5b5035919050565b60008060408385031215610c4a57600080fd5b823591506020830135610c5c81610bc8565b809150509250929050565b60008060408385031215610c7a57600080fd5b8235610c8581610bc8565b91506020830135610c5c81610bc8565b600060208284031215610ca757600080fd5b81356103f181610bc8565b634e487b7160e01b600052601160045260246000fd5b600082821015610cda57610cda610cb2565b500390565b600181811c90821680610cf357607f821691505b60208210811415610d1457634e487b7160e01b600052602260045260246000fd5b50919050565b600060208284031215610d2c57600080fd5b5051919050565b6020808252818101527f4f776e61626c653a2063616c6c6572206973206e6f7420746865206f776e6572604082015260600190565b600060208284031215610d7a57600080fd5b81516103f181610bc8565b634e487b7160e01b600052600160045260246000fd5b634e487b7160e01b600052601260045260246000fd5b600082610dc057610dc0610d9b565b500490565b6000600019821415610dd957610dd9610cb2565b5060010190565b60008151610df2818560208601610b65565b9290920192915050565b600080845481600182811c915080831680610e1857607f831692505b6020808410821415610e3857634e487b7160e01b86526022600452602486fd5b818015610e4c5760018114610e5d57610e8a565b60ff19861689528489019650610e8a565b60008b81526020902060005b86811015610e825781548b820152908501908301610e69565b505084890196505b505050505050610e9a8185610de0565b95945050505050565b634e487b7160e01b600052604160045260246000fd5b600082610ec857610ec8610d9b565b500690565b60008219821115610ee057610ee0610cb2565b500190565b634e487b7160e01b600052603260045260246000fdfea2646970667358221220e6cd0b967eea9852b062c115f97a41837d13ca65eb5db769e75b94a1ffa17d9b64736f6c634300080a0033687474703a2f2f35322e3232312e36342e3232383a353030302f6170692f666163746f72792f",
  "immutableReferences": {},
  "source": "// SPDX-License-Identifier: MIT\n\npragma solidity ^0.8.0;\n\nimport \"openzeppelin-solidity/contracts/access/Ownable.sol\";\nimport \"openzeppelin-solidity/contracts/utils/Strings.sol\";\nimport \"./IFactoryERC721.sol\";\nimport \"./OGFlat.sol\";\n\ncontract OGFlatFactory is FactoryERC721, Ownable {\n    using Strings for string;\n\n    event Transfer(\n        address indexed from,\n        address indexed to,\n        uint256 indexed tokenId\n    );\n\n    address public proxyRegistryAddress;\n    address public nftAddress;\n    address public constant foundationAddress = 0xA37DbfBa2f086187699d78d17Ec0750462bD0549;\n    string public baseURI = \"http://52.221.64.228:5000/api/factory/\";\n\n    // Maximum supply\n    uint256 FLAT_SUPPLY = 10000;\n\n    constructor(address _proxyRegistryAddress, address _nftAddress) {\n        proxyRegistryAddress = _proxyRegistryAddress;\n        nftAddress = _nftAddress;\n\n        fireTransferEvents(address(0), owner());\n    }\n\n    function name() override external pure returns (string memory) {\n        return \"Swiddle Factory\";\n    }\n\n    function symbol() override external pure returns (string memory) {\n        return \"SWF\";\n    }\n\n    function supportsFactoryInterface() override public pure returns (bool) {\n        return true;\n    }\n\n    function transferOwnership(address newOwner) override public onlyOwner {\n        address _prevOwner = owner();\n        super.transferOwnership(newOwner);\n        fireTransferEvents(_prevOwner, newOwner);\n    }\n\n    function fireTransferEvents(address _from, address _to) private {\n        for (uint256 i = 0; i < 3; i++) {\n            emit Transfer(_from, _to, i);\n        }\n    }\n\n    function sendToFoundation(uint256 etherValue) private {\n        payable(foundationAddress).transfer(etherValue);\n    }\n\n\n    function mint(uint256 _optionId, address _toAddress) override public payable {\n        // Must be sent from the owner proxy or owner.\n        ProxyRegistry proxyRegistry = ProxyRegistry(proxyRegistryAddress);\n        assert(address(proxyRegistry.proxies(owner())) == _msgSender() || owner() == _msgSender());\n\n        //Checks if user can afford at least 1 flat\n        require(msg.value >= 125, \"125 MATIC is required to mint\");\n\n        //Counts how many flats can be purchased with eth amount \n        uint256 mintCount = msg.value / 125;\n\n        //Check if there are flats left to mint\n        require(canMint(mintCount), \"Max supply reached\");\n\n        sendToFoundation(msg.value);\n\n        OGFlat osOgFlats = OGFlat(nftAddress);\n        for (uint256 i = 0; i < mintCount; i++) {\n            osOgFlats.mintTo(_toAddress);\n        }\n    }  \n\n    function getSupply() public view returns (uint256) {\n        OGFlat osOgFlats = OGFlat(nftAddress);\n        uint256 creatureSupply = osOgFlats.totalSupply();\n\n        return creatureSupply;\n    }\n\n    function canMint(uint256 mintCount) public view returns (bool) {\n        uint256 creatureSupply = getSupply();\n\n        return creatureSupply <= (FLAT_SUPPLY - mintCount);\n    }\n\n    function tokenURI(uint256 _optionId) override external view returns (string memory) {\n        return string(abi.encodePacked(baseURI, Strings.toString(_optionId)));\n    }\n\n    /**\n     * Hack to get things to work automatically on OpenSea.\n     * Use transferFrom so the frontend doesn't have to worry about different method names.\n     */\n    function transferFrom(\n        address _from,\n        address _to,\n        uint256 _tokenId\n    ) public {\n        mint(_tokenId, _to);\n    }\n\n\n    // function royaltyInfo(uint256 _tokenId, uint256 _salePrice) external view returns (\n    //     address receiver,\n    //     uint256 royaltyAmount\n    // ){\n    //     OGFlat osOgFlats = OGFlat(nftAddress);\n    //     uint256 royaltyAmount = _salePrice * 25/1000;\n    //     return (address(this), royaltyAmount);\n    // }\n\n    \n    /**\n     * Hack to get things to work automatically on OpenSea.\n     * Use isApprovedForAll so the frontend doesn't have to worry about different method names.\n     */\n    function isApprovedForAll(address _owner, address _operator)\n        public\n        view\n        returns (bool)\n    {\n        if (owner() == _owner && _owner == _operator) {\n            return true;\n        }\n\n        ProxyRegistry proxyRegistry = ProxyRegistry(proxyRegistryAddress);\n        if (\n            owner() == _owner &&\n            address(proxyRegistry.proxies(_owner)) == _operator\n        ) {\n            return true;\n        }\n\n        return false;\n    }\n    \n\n    /**\n     * Hack to get things to work automatically on OpenSea.\n     * Use isApprovedForAll so the frontend doesn't have to worry about different method names.\n     */\n    function ownerOf(uint256 _tokenId) public view returns (address _owner) {\n        uint256 creatureSupply = getSupply();\n\n        require(creatureSupply >= _tokenId, 'Invalid token id');\n        \n        return owner();\n    }\n\n}\n",
  "sourcePath": "/Users/ashwin/Documents/github/creatureFactorySample/contracts/OGFlatFactory.sol",
  "compiler": {
    "name": "solc",
    "version": "0.8.10+commit.fc410830.Emscripten.clang"
  },
  "schemaVersion": "3.4.3",
  "updatedAt": "2021-12-01T18:05:53.644Z",
  "networkType": "ethereum",
  "devdoc": {
    "kind": "dev",
    "methods": {
      "canMint(uint256)": {
        "details": "Returns whether the option ID can be minted. Can return false if the developer wishes to restrict a total supply per option ID (or overall)."
      },
      "mint(uint256,address)": {
        "details": "Mints asset(s) in accordance to a specific address with a particular \"option\". This should be callable only by the contract owner or the owner's Wyvern Proxy (later universal login will solve this). Options should also be delineated 0 - (numOptions() - 1) for convenient indexing.",
        "params": {
          "_optionId": "the option id",
          "_toAddress": "address of the future owner of the asset(s)"
        }
      },
      "owner()": {
        "details": "Returns the address of the current owner."
      },
      "renounceOwnership()": {
        "details": "Leaves the contract without owner. It will not be possible to call `onlyOwner` functions anymore. Can only be called by the current owner. NOTE: Renouncing ownership will leave the contract without an owner, thereby removing any functionality that is only available to the owner."
      },
      "tokenURI(uint256)": {
        "details": "Returns a URL specifying some metadata about the option. This metadata can be of the same structure as the ERC721 metadata."
      },
      "transferOwnership(address)": {
        "details": "Transfers ownership of the contract to a new account (`newOwner`). Can only be called by the current owner."
      }
    },
    "version": 1
  },
  "userdoc": {
    "kind": "user",
    "methods": {
      "isApprovedForAll(address,address)": {
        "notice": "Hack to get things to work automatically on OpenSea. Use isApprovedForAll so the frontend doesn't have to worry about different method names."
      },
      "name()": {
        "notice": "Returns the name of this factory."
      },
      "ownerOf(uint256)": {
        "notice": "Hack to get things to work automatically on OpenSea. Use isApprovedForAll so the frontend doesn't have to worry about different method names."
      },
      "supportsFactoryInterface()": {
        "notice": "Indicates that this is a factory contract. Ideally would use EIP 165 supportsInterface()"
      },
      "symbol()": {
        "notice": "Returns the symbol for this factory."
      },
      "transferFrom(address,address,uint256)": {
        "notice": "Hack to get things to work automatically on OpenSea. Use transferFrom so the frontend doesn't have to worry about different method names."
      }
    },
    "version": 1
  }
}