{
  "contractName": "OGFlat",
  "abi": [
    {
      "inputs": [
        {
          "internalType": "address",
          "name": "_proxyRegistryAddress",
          "type": "address"
        }
      ],
      "stateMutability": "nonpayable",
      "type": "constructor"
    },
    {
      "anonymous": false,
      "inputs": [
        {
          "indexed": true,
          "internalType": "address",
          "name": "owner",
          "type": "address"
        },
        {
          "indexed": true,
          "internalType": "address",
          "name": "approved",
          "type": "address"
        },
        {
          "indexed": true,
          "internalType": "uint256",
          "name": "tokenId",
          "type": "uint256"
        }
      ],
      "name": "Approval",
      "type": "event"
    },
    {
      "anonymous": false,
      "inputs": [
        {
          "indexed": true,
          "internalType": "address",
          "name": "owner",
          "type": "address"
        },
        {
          "indexed": true,
          "internalType": "address",
          "name": "operator",
          "type": "address"
        },
        {
          "indexed": false,
          "internalType": "bool",
          "name": "approved",
          "type": "bool"
        }
      ],
      "name": "ApprovalForAll",
      "type": "event"
    },
    {
      "anonymous": false,
      "inputs": [
        {
          "indexed": false,
          "internalType": "address",
          "name": "userAddress",
          "type": "address"
        },
        {
          "indexed": false,
          "internalType": "address payable",
          "name": "relayerAddress",
          "type": "address"
        },
        {
          "indexed": false,
          "internalType": "bytes",
          "name": "functionSignature",
          "type": "bytes"
        }
      ],
      "name": "MetaTransactionExecuted",
      "type": "event"
    },
    {
      "anonymous": false,
      "inputs": [
        {
          "indexed": true,
          "internalType": "address",
          "name": "previousOwner",
          "type": "address"
        },
        {
          "indexed": true,
          "internalType": "address",
          "name": "newOwner",
          "type": "address"
        }
      ],
      "name": "OwnershipTransferred",
      "type": "event"
    },
    {
      "anonymous": false,
      "inputs": [
        {
          "indexed": true,
          "internalType": "address",
          "name": "from",
          "type": "address"
        },
        {
          "indexed": true,
          "internalType": "address",
          "name": "to",
          "type": "address"
        },
        {
          "indexed": true,
          "internalType": "uint256",
          "name": "tokenId",
          "type": "uint256"
        }
      ],
      "name": "Transfer",
      "type": "event"
    },
    {
      "inputs": [],
      "name": "ERC712_VERSION",
      "outputs": [
        {
          "internalType": "string",
          "name": "",
          "type": "string"
        }
      ],
      "stateMutability": "view",
      "type": "function",
      "constant": true
    },
    {
      "inputs": [
        {
          "internalType": "address",
          "name": "to",
          "type": "address"
        },
        {
          "internalType": "uint256",
          "name": "tokenId",
          "type": "uint256"
        }
      ],
      "name": "approve",
      "outputs": [],
      "stateMutability": "nonpayable",
      "type": "function"
    },
    {
      "inputs": [
        {
          "internalType": "address",
          "name": "owner",
          "type": "address"
        }
      ],
      "name": "balanceOf",
      "outputs": [
        {
          "internalType": "uint256",
          "name": "",
          "type": "uint256"
        }
      ],
      "stateMutability": "view",
      "type": "function",
      "constant": true
    },
    {
      "inputs": [
        {
          "internalType": "address",
          "name": "userAddress",
          "type": "address"
        },
        {
          "internalType": "bytes",
          "name": "functionSignature",
          "type": "bytes"
        },
        {
          "internalType": "bytes32",
          "name": "sigR",
          "type": "bytes32"
        },
        {
          "internalType": "bytes32",
          "name": "sigS",
          "type": "bytes32"
        },
        {
          "internalType": "uint8",
          "name": "sigV",
          "type": "uint8"
        }
      ],
      "name": "executeMetaTransaction",
      "outputs": [
        {
          "internalType": "bytes",
          "name": "",
          "type": "bytes"
        }
      ],
      "stateMutability": "payable",
      "type": "function",
      "payable": true
    },
    {
      "inputs": [
        {
          "internalType": "uint256",
          "name": "tokenId",
          "type": "uint256"
        }
      ],
      "name": "getApproved",
      "outputs": [
        {
          "internalType": "address",
          "name": "",
          "type": "address"
        }
      ],
      "stateMutability": "view",
      "type": "function",
      "constant": true
    },
    {
      "inputs": [],
      "name": "getChainId",
      "outputs": [
        {
          "internalType": "uint256",
          "name": "",
          "type": "uint256"
        }
      ],
      "stateMutability": "view",
      "type": "function",
      "constant": true
    },
    {
      "inputs": [],
      "name": "getDomainSeperator",
      "outputs": [
        {
          "internalType": "bytes32",
          "name": "",
          "type": "bytes32"
        }
      ],
      "stateMutability": "view",
      "type": "function",
      "constant": true
    },
    {
      "inputs": [
        {
          "internalType": "address",
          "name": "user",
          "type": "address"
        }
      ],
      "name": "getNonce",
      "outputs": [
        {
          "internalType": "uint256",
          "name": "nonce",
          "type": "uint256"
        }
      ],
      "stateMutability": "view",
      "type": "function",
      "constant": true
    },
    {
      "inputs": [
        {
          "internalType": "address",
          "name": "owner",
          "type": "address"
        },
        {
          "internalType": "address",
          "name": "operator",
          "type": "address"
        }
      ],
      "name": "isApprovedForAll",
      "outputs": [
        {
          "internalType": "bool",
          "name": "",
          "type": "bool"
        }
      ],
      "stateMutability": "view",
      "type": "function",
      "constant": true
    },
    {
      "inputs": [
        {
          "internalType": "address",
          "name": "_to",
          "type": "address"
        }
      ],
      "name": "mintTo",
      "outputs": [],
      "stateMutability": "nonpayable",
      "type": "function"
    },
    {
      "inputs": [],
      "name": "name",
      "outputs": [
        {
          "internalType": "string",
          "name": "",
          "type": "string"
        }
      ],
      "stateMutability": "view",
      "type": "function",
      "constant": true
    },
    {
      "inputs": [],
      "name": "owner",
      "outputs": [
        {
          "internalType": "address",
          "name": "",
          "type": "address"
        }
      ],
      "stateMutability": "view",
      "type": "function",
      "constant": true
    },
    {
      "inputs": [
        {
          "internalType": "uint256",
          "name": "tokenId",
          "type": "uint256"
        }
      ],
      "name": "ownerOf",
      "outputs": [
        {
          "internalType": "address",
          "name": "",
          "type": "address"
        }
      ],
      "stateMutability": "view",
      "type": "function",
      "constant": true
    },
    {
      "inputs": [],
      "name": "renounceOwnership",
      "outputs": [],
      "stateMutability": "nonpayable",
      "type": "function"
    },
    {
      "inputs": [
        {
          "internalType": "address",
          "name": "from",
          "type": "address"
        },
        {
          "internalType": "address",
          "name": "to",
          "type": "address"
        },
        {
          "internalType": "uint256",
          "name": "tokenId",
          "type": "uint256"
        }
      ],
      "name": "safeTransferFrom",
      "outputs": [],
      "stateMutability": "nonpayable",
      "type": "function"
    },
    {
      "inputs": [
        {
          "internalType": "address",
          "name": "from",
          "type": "address"
        },
        {
          "internalType": "address",
          "name": "to",
          "type": "address"
        },
        {
          "internalType": "uint256",
          "name": "tokenId",
          "type": "uint256"
        },
        {
          "internalType": "bytes",
          "name": "_data",
          "type": "bytes"
        }
      ],
      "name": "safeTransferFrom",
      "outputs": [],
      "stateMutability": "nonpayable",
      "type": "function"
    },
    {
      "inputs": [
        {
          "internalType": "address",
          "name": "operator",
          "type": "address"
        },
        {
          "internalType": "bool",
          "name": "approved",
          "type": "bool"
        }
      ],
      "name": "setApprovalForAll",
      "outputs": [],
      "stateMutability": "nonpayable",
      "type": "function"
    },
    {
      "inputs": [
        {
          "internalType": "bytes4",
          "name": "interfaceId",
          "type": "bytes4"
        }
      ],
      "name": "supportsInterface",
      "outputs": [
        {
          "internalType": "bool",
          "name": "",
          "type": "bool"
        }
      ],
      "stateMutability": "view",
      "type": "function",
      "constant": true
    },
    {
      "inputs": [],
      "name": "symbol",
      "outputs": [
        {
          "internalType": "string",
          "name": "",
          "type": "string"
        }
      ],
      "stateMutability": "view",
      "type": "function",
      "constant": true
    },
    {
      "inputs": [
        {
          "internalType": "uint256",
          "name": "index",
          "type": "uint256"
        }
      ],
      "name": "tokenByIndex",
      "outputs": [
        {
          "internalType": "uint256",
          "name": "",
          "type": "uint256"
        }
      ],
      "stateMutability": "view",
      "type": "function",
      "constant": true
    },
    {
      "inputs": [
        {
          "internalType": "address",
          "name": "owner",
          "type": "address"
        },
        {
          "internalType": "uint256",
          "name": "index",
          "type": "uint256"
        }
      ],
      "name": "tokenOfOwnerByIndex",
      "outputs": [
        {
          "internalType": "uint256",
          "name": "",
          "type": "uint256"
        }
      ],
      "stateMutability": "view",
      "type": "function",
      "constant": true
    },
    {
      "inputs": [
        {
          "internalType": "uint256",
          "name": "_tokenId",
          "type": "uint256"
        }
      ],
      "name": "tokenURI",
      "outputs": [
        {
          "internalType": "string",
          "name": "",
          "type": "string"
        }
      ],
      "stateMutability": "pure",
      "type": "function",
      "constant": true
    },
    {
      "inputs": [],
      "name": "totalSupply",
      "outputs": [
        {
          "internalType": "uint256",
          "name": "",
          "type": "uint256"
        }
      ],
      "stateMutability": "view",
      "type": "function",
      "constant": true
    },
    {
      "inputs": [
        {
          "internalType": "address",
          "name": "from",
          "type": "address"
        },
        {
          "internalType": "address",
          "name": "to",
          "type": "address"
        },
        {
          "internalType": "uint256",
          "name": "tokenId",
          "type": "uint256"
        }
      ],
      "name": "transferFrom",
      "outputs": [],
      "stateMutability": "nonpayable",
      "type": "function"
    },
    {
      "inputs": [
        {
          "internalType": "address",
          "name": "newOwner",
          "type": "address"
        }
      ],
      "name": "transferOwnership",
      "outputs": [],
      "stateMutability": "nonpayable",
      "type": "function"
    },
    {
      "inputs": [],
      "name": "baseTokenURI",
      "outputs": [
        {
          "internalType": "string",
          "name": "",
          "type": "string"
        }
      ],
      "stateMutability": "pure",
      "type": "function",
      "constant": true
    },
    {
      "inputs": [],
      "name": "contractURI",
      "outputs": [
        {
          "internalType": "string",
          "name": "",
          "type": "string"
        }
      ],
      "stateMutability": "pure",
      "type": "function",
      "constant": true
    }
  ],
  "bytecode": "0x6080604052600a805460ff191690556000600f553480156200002057600080fd5b50604051620026f3380380620026f3833981016040819052620000439162000376565b6040518060400160405280600781526020016653776964646c6560c81b8152506040518060400160405280600381526020016214d5d160ea1b81525082828281600090805190602001906200009a929190620002d0565b508051620000b0906001906020840190620002d0565b505050620000cd620000c7620000fd60201b60201c565b62000119565b600e80546001600160a01b0319166001600160a01b038316179055620000f3836200016b565b50505050620003e5565b600062000114620001cf60201b62000fe91760201c565b905090565b600d80546001600160a01b038381166001600160a01b0319831681179093556040519116919082907f8be0079c531659141344cd1fd0a4f28419497f9722a3daafe3b4186f6b6457e090600090a35050565b600a5460ff1615620001b45760405162461bcd60e51b815260206004820152600e60248201526d185b1c9958591e481a5b9a5d195960921b604482015260640160405180910390fd5b620001bf816200022e565b50600a805460ff19166001179055565b6000333014156200022857600080368080601f0160208091040260200160405190810160405280939291908181526020018383808284376000920191909152505050503601516001600160a01b031691506200022b9050565b50335b90565b6040518060800160405280604f8152602001620026a4604f9139805160209182012082519282019290922060408051808201825260018152603160f81b90840152805180840194909452838101919091527fc89efdaa54c0f20c7adf612882df0950f5a951637e0307cdcb4c672f298b8bc660608401523060808401524660a0808501919091528151808503909101815260c090930190528151910120600b55565b828054620002de90620003a8565b90600052602060002090601f0160209004810192826200030257600085556200034d565b82601f106200031d57805160ff19168380011785556200034d565b828001600101855582156200034d579182015b828111156200034d57825182559160200191906001019062000330565b506200035b9291506200035f565b5090565b5b808211156200035b576000815560010162000360565b6000602082840312156200038957600080fd5b81516001600160a01b0381168114620003a157600080fd5b9392505050565b600181811c90821680620003bd57607f821691505b60208210811415620003df57634e487b7160e01b600052602260045260246000fd5b50919050565b6122af80620003f56000396000f3fe60806040526004361061019c5760003560e01c80634f6ccce7116100ec578063a22cb4651161008a578063d547cfb711610064578063d547cfb714610497578063e8a3d485146104ac578063e985e9c5146104c1578063f2fde38b146104e157600080fd5b8063a22cb46514610437578063b88d4fde14610457578063c87b56dd1461047757600080fd5b8063715018a6116100c6578063715018a6146103cf578063755edd17146103e45780638da5cb5b1461040457806395d89b411461042257600080fd5b80634f6ccce71461036f5780636352211e1461038f57806370a08231146103af57600080fd5b806318160ddd116101595780632d0335ab116101335780632d0335ab146102e65780632f745c591461031c5780633408e4701461033c57806342842e0e1461034f57600080fd5b806318160ddd1461029257806320379ee5146102b157806323b872dd146102c657600080fd5b806301ffc9a7146101a157806306fdde03146101d6578063081812fc146101f8578063095ea7b3146102305780630c53c51c146102525780630f7e597014610265575b600080fd5b3480156101ad57600080fd5b506101c16101bc366004611b99565b610501565b60405190151581526020015b60405180910390f35b3480156101e257600080fd5b506101eb61052c565b6040516101cd9190611c0e565b34801561020457600080fd5b50610218610213366004611c21565b6105be565b6040516001600160a01b0390911681526020016101cd565b34801561023c57600080fd5b5061025061024b366004611c4f565b610658565b005b6101eb610260366004611d1e565b610780565b34801561027157600080fd5b506101eb604051806040016040528060018152602001603160f81b81525081565b34801561029e57600080fd5b506008545b6040519081526020016101cd565b3480156102bd57600080fd5b50600b546102a3565b3480156102d257600080fd5b506102506102e1366004611d9c565b61096a565b3480156102f257600080fd5b506102a3610301366004611ddd565b6001600160a01b03166000908152600c602052604090205490565b34801561032857600080fd5b506102a3610337366004611c4f565b6109a2565b34801561034857600080fd5b50466102a3565b34801561035b57600080fd5b5061025061036a366004611d9c565b610a38565b34801561037b57600080fd5b506102a361038a366004611c21565b610a53565b34801561039b57600080fd5b506102186103aa366004611c21565b610ae6565b3480156103bb57600080fd5b506102a36103ca366004611ddd565b610b5d565b3480156103db57600080fd5b50610250610be4565b3480156103f057600080fd5b506102506103ff366004611ddd565b610c39565b34801561041057600080fd5b50600d546001600160a01b0316610218565b34801561042e57600080fd5b506101eb610ca4565b34801561044357600080fd5b50610250610452366004611dfa565b610cb3565b34801561046357600080fd5b50610250610472366004611e38565b610db5565b34801561048357600080fd5b506101eb610492366004611c21565b610df4565b3480156104a357600080fd5b506101eb610e2e565b3480156104b857600080fd5b506101eb610e4e565b3480156104cd57600080fd5b506101c16104dc366004611ea4565b610e6e565b3480156104ed57600080fd5b506102506104fc366004611ddd565b610f2f565b60006001600160e01b0319821663780e9d6360e01b1480610526575061052682611046565b92915050565b60606000805461053b90611ed2565b80601f016020809104026020016040519081016040528092919081815260200182805461056790611ed2565b80156105b45780601f10610589576101008083540402835291602001916105b4565b820191906000526020600020905b81548152906001019060200180831161059757829003601f168201915b5050505050905090565b6000818152600260205260408120546001600160a01b031661063c5760405162461bcd60e51b815260206004820152602c60248201527f4552433732313a20617070726f76656420717565727920666f72206e6f6e657860448201526b34b9ba32b73a103a37b5b2b760a11b60648201526084015b60405180910390fd5b506000908152600460205260409020546001600160a01b031690565b600061066382610ae6565b9050806001600160a01b0316836001600160a01b031614156106d15760405162461bcd60e51b815260206004820152602160248201527f4552433732313a20617070726f76616c20746f2063757272656e74206f776e656044820152603960f91b6064820152608401610633565b806001600160a01b03166106e3611096565b6001600160a01b031614806106ff57506106ff816104dc611096565b6107715760405162461bcd60e51b815260206004820152603860248201527f4552433732313a20617070726f76652063616c6c6572206973206e6f74206f7760448201527f6e6572206e6f7220617070726f76656420666f7220616c6c00000000000000006064820152608401610633565b61077b83836110a5565b505050565b60408051606081810183526001600160a01b0388166000818152600c6020908152908590205484528301529181018690526107be8782878787611113565b6108145760405162461bcd60e51b815260206004820152602160248201527f5369676e657220616e64207369676e617475726520646f206e6f74206d6174636044820152600d60fb1b6064820152608401610633565b6001600160a01b0387166000908152600c6020526040902054610838906001611203565b6001600160a01b0388166000908152600c60205260409081902091909155517f5845892132946850460bff5a0083f71031bc5bf9aadcd40f1de79423eac9b10b9061088890899033908a90611f0d565b60405180910390a1600080306001600160a01b0316888a6040516020016108b0929190611f42565b60408051601f19818403018152908290526108ca91611f79565b6000604051808303816000865af19150503d8060008114610907576040519150601f19603f3d011682016040523d82523d6000602084013e61090c565b606091505b50915091508161095e5760405162461bcd60e51b815260206004820152601c60248201527f46756e6374696f6e2063616c6c206e6f74207375636365737366756c000000006044820152606401610633565b98975050505050505050565b61097b610975611096565b82611216565b6109975760405162461bcd60e51b815260040161063390611f95565b61077b8383836112e5565b60006109ad83610b5d565b8210610a0f5760405162461bcd60e51b815260206004820152602b60248201527f455243373231456e756d657261626c653a206f776e657220696e646578206f7560448201526a74206f6620626f756e647360a81b6064820152608401610633565b506001600160a01b03919091166000908152600660209081526040808320938352929052205490565b61077b83838360405180602001604052806000815250610db5565b6000610a5e60085490565b8210610ac15760405162461bcd60e51b815260206004820152602c60248201527f455243373231456e756d657261626c653a20676c6f62616c20696e646578206f60448201526b7574206f6620626f756e647360a01b6064820152608401610633565b60088281548110610ad457610ad4611fe6565b90600052602060002001549050919050565b6000818152600260205260408120546001600160a01b0316806105265760405162461bcd60e51b815260206004820152602960248201527f4552433732313a206f776e657220717565727920666f72206e6f6e657869737460448201526832b73a103a37b5b2b760b91b6064820152608401610633565b60006001600160a01b038216610bc85760405162461bcd60e51b815260206004820152602a60248201527f4552433732313a2062616c616e636520717565727920666f7220746865207a65604482015269726f206164647265737360b01b6064820152608401610633565b506001600160a01b031660009081526003602052604090205490565b610bec611096565b6001600160a01b0316610c07600d546001600160a01b031690565b6001600160a01b031614610c2d5760405162461bcd60e51b815260040161063390611ffc565b610c376000611490565b565b610c41611096565b6001600160a01b0316610c5c600d546001600160a01b031690565b6001600160a01b031614610c825760405162461bcd60e51b815260040161063390611ffc565b6000610c8c6114e2565b9050610c9882826114f3565b610ca0611641565b5050565b60606001805461053b90611ed2565b610cbb611096565b6001600160a01b0316826001600160a01b03161415610d1c5760405162461bcd60e51b815260206004820152601960248201527f4552433732313a20617070726f766520746f2063616c6c6572000000000000006044820152606401610633565b8060056000610d29611096565b6001600160a01b03908116825260208083019390935260409182016000908120918716808252919093529120805460ff191692151592909217909155610d6d611096565b6001600160a01b03167f17307eab39ab6107e8899845ad3d59bd9653f200f220920489ca2b5937696c3183604051610da9911515815260200190565b60405180910390a35050565b610dc6610dc0611096565b83611216565b610de25760405162461bcd60e51b815260040161063390611f95565b610dee84848484611658565b50505050565b6060610dfe610e2e565b610e078361168b565b604051602001610e18929190612031565b6040516020818303038152906040529050919050565b606060405180606001604052806027815260200161222160279139905090565b606060405180606001604052806032815260200161224860329139905090565b600e5460405163c455279160e01b81526001600160a01b03848116600483015260009281169190841690829063c455279190602401602060405180830381865afa158015610ec0573d6000803e3d6000fd5b505050506040513d601f19601f82011682018060405250810190610ee49190612060565b6001600160a01b03161415610efd576001915050610526565b6001600160a01b0380851660009081526005602090815260408083209387168352929052205460ff165b949350505050565b610f37611096565b6001600160a01b0316610f52600d546001600160a01b031690565b6001600160a01b031614610f785760405162461bcd60e51b815260040161063390611ffc565b6001600160a01b038116610fdd5760405162461bcd60e51b815260206004820152602660248201527f4f776e61626c653a206e6577206f776e657220697320746865207a65726f206160448201526564647265737360d01b6064820152608401610633565b610fe681611490565b50565b60003330141561104057600080368080601f0160208091040260200160405190810160405280939291908181526020018383808284376000920191909152505050503601516001600160a01b031691506110439050565b50335b90565b60006001600160e01b031982166380ac58cd60e01b148061107757506001600160e01b03198216635b5e139f60e01b145b8061052657506301ffc9a760e01b6001600160e01b0319831614610526565b60006110a0610fe9565b905090565b600081815260046020526040902080546001600160a01b0319166001600160a01b03841690811790915581906110da82610ae6565b6001600160a01b03167f8c5be1e5ebec7d5bd14f71427d1e84f3dd0314c0f7b2291e5b200ac8c7c3b92560405160405180910390a45050565b60006001600160a01b0386166111795760405162461bcd60e51b815260206004820152602560248201527f4e61746976654d6574615472616e73616374696f6e3a20494e56414c49445f5360448201526424a3a722a960d91b6064820152608401610633565b600161118c61118787611789565b611806565b6040805160008152602081018083529290925260ff851690820152606081018690526080810185905260a0016020604051602081039080840390855afa1580156111da573d6000803e3d6000fd5b505050602060405103516001600160a01b0316866001600160a01b031614905095945050505050565b600061120f8284612093565b9392505050565b6000818152600260205260408120546001600160a01b031661128f5760405162461bcd60e51b815260206004820152602c60248201527f4552433732313a206f70657261746f7220717565727920666f72206e6f6e657860448201526b34b9ba32b73a103a37b5b2b760a11b6064820152608401610633565b600061129a83610ae6565b9050806001600160a01b0316846001600160a01b031614806112d55750836001600160a01b03166112ca846105be565b6001600160a01b0316145b80610f275750610f278185610e6e565b826001600160a01b03166112f882610ae6565b6001600160a01b0316146113605760405162461bcd60e51b815260206004820152602960248201527f4552433732313a207472616e73666572206f6620746f6b656e2074686174206960448201526839903737ba1037bbb760b91b6064820152608401610633565b6001600160a01b0382166113c25760405162461bcd60e51b8152602060048201526024808201527f4552433732313a207472616e7366657220746f20746865207a65726f206164646044820152637265737360e01b6064820152608401610633565b6113cd838383611836565b6113d86000826110a5565b6001600160a01b03831660009081526003602052604081208054600192906114019084906120ab565b90915550506001600160a01b038216600090815260036020526040812080546001929061142f908490612093565b909155505060008181526002602052604080822080546001600160a01b0319166001600160a01b0386811691821790925591518493918716917fddf252ad1be2c89b69c2b068fc378daa952ba7f163c4a11628f55a4df523b3ef91a4505050565b600d80546001600160a01b038381166001600160a01b0319831681179093556040519116919082907f8be0079c531659141344cd1fd0a4f28419497f9722a3daafe3b4186f6b6457e090600090a35050565b600f546000906110a0906001611203565b6001600160a01b0382166115495760405162461bcd60e51b815260206004820181905260248201527f4552433732313a206d696e7420746f20746865207a65726f20616464726573736044820152606401610633565b6000818152600260205260409020546001600160a01b0316156115ae5760405162461bcd60e51b815260206004820152601c60248201527f4552433732313a20746f6b656e20616c7265616479206d696e746564000000006044820152606401610633565b6115ba60008383611836565b6001600160a01b03821660009081526003602052604081208054600192906115e3908490612093565b909155505060008181526002602052604080822080546001600160a01b0319166001600160a01b03861690811790915590518392907fddf252ad1be2c89b69c2b068fc378daa952ba7f163c4a11628f55a4df523b3ef908290a45050565b600f8054906000611651836120c2565b9190505550565b6116638484846112e5565b61166f848484846118ee565b610dee5760405162461bcd60e51b8152600401610633906120dd565b6060816116af5750506040805180820190915260018152600360fc1b602082015290565b8160005b81156116d957806116c3816120c2565b91506116d29050600a83612145565b91506116b3565b60008167ffffffffffffffff8111156116f4576116f4611c7b565b6040519080825280601f01601f19166020018201604052801561171e576020820181803683370190505b5090505b8415610f27576117336001836120ab565b9150611740600a86612159565b61174b906030612093565b60f81b81838151811061176057611760611fe6565b60200101906001600160f81b031916908160001a905350611782600a86612145565b9450611722565b60006040518060800160405280604381526020016121de60439139805160209182012083518483015160408087015180519086012090516117e9950193845260208401929092526001600160a01b03166040830152606082015260800190565b604051602081830303815290604052805190602001209050919050565b6000611811600b5490565b60405161190160f01b60208201526022810191909152604281018390526062016117e9565b6001600160a01b0383166118915761188c81600880546000838152600960205260408120829055600182018355919091527ff3f7a9fe364faab93b216da50a3214154f22a0a2b415b23a84c8169e8b636ee30155565b6118b4565b816001600160a01b0316836001600160a01b0316146118b4576118b483826119f3565b6001600160a01b0382166118cb5761077b81611a90565b826001600160a01b0316826001600160a01b03161461077b5761077b8282611b3f565b60006001600160a01b0384163b156119e857836001600160a01b031663150b7a02611917611096565b8786866040518563ffffffff1660e01b8152600401611939949392919061216d565b6020604051808303816000875af1925050508015611974575060408051601f3d908101601f19168201909252611971918101906121aa565b60015b6119ce573d8080156119a2576040519150601f19603f3d011682016040523d82523d6000602084013e6119a7565b606091505b5080516119c65760405162461bcd60e51b8152600401610633906120dd565b805181602001fd5b6001600160e01b031916630a85bd0160e11b149050610f27565b506001949350505050565b60006001611a0084610b5d565b611a0a91906120ab565b600083815260076020526040902054909150808214611a5d576001600160a01b03841660009081526006602090815260408083208584528252808320548484528184208190558352600790915290208190555b5060009182526007602090815260408084208490556001600160a01b039094168352600681528383209183525290812055565b600854600090611aa2906001906120ab565b60008381526009602052604081205460088054939450909284908110611aca57611aca611fe6565b906000526020600020015490508060088381548110611aeb57611aeb611fe6565b6000918252602080832090910192909255828152600990915260408082208490558582528120556008805480611b2357611b236121c7565b6001900381819060005260206000200160009055905550505050565b6000611b4a83610b5d565b6001600160a01b039093166000908152600660209081526040808320868452825280832085905593825260079052919091209190915550565b6001600160e01b031981168114610fe657600080fd5b600060208284031215611bab57600080fd5b813561120f81611b83565b60005b83811015611bd1578181015183820152602001611bb9565b83811115610dee5750506000910152565b60008151808452611bfa816020860160208601611bb6565b601f01601f19169290920160200192915050565b60208152600061120f6020830184611be2565b600060208284031215611c3357600080fd5b5035919050565b6001600160a01b0381168114610fe657600080fd5b60008060408385031215611c6257600080fd5b8235611c6d81611c3a565b946020939093013593505050565b634e487b7160e01b600052604160045260246000fd5b600082601f830112611ca257600080fd5b813567ffffffffffffffff80821115611cbd57611cbd611c7b565b604051601f8301601f19908116603f01168101908282118183101715611ce557611ce5611c7b565b81604052838152866020858801011115611cfe57600080fd5b836020870160208301376000602085830101528094505050505092915050565b600080600080600060a08688031215611d3657600080fd5b8535611d4181611c3a565b9450602086013567ffffffffffffffff811115611d5d57600080fd5b611d6988828901611c91565b9450506040860135925060608601359150608086013560ff81168114611d8e57600080fd5b809150509295509295909350565b600080600060608486031215611db157600080fd5b8335611dbc81611c3a565b92506020840135611dcc81611c3a565b929592945050506040919091013590565b600060208284031215611def57600080fd5b813561120f81611c3a565b60008060408385031215611e0d57600080fd5b8235611e1881611c3a565b915060208301358015158114611e2d57600080fd5b809150509250929050565b60008060008060808587031215611e4e57600080fd5b8435611e5981611c3a565b93506020850135611e6981611c3a565b925060408501359150606085013567ffffffffffffffff811115611e8c57600080fd5b611e9887828801611c91565b91505092959194509250565b60008060408385031215611eb757600080fd5b8235611ec281611c3a565b91506020830135611e2d81611c3a565b600181811c90821680611ee657607f821691505b60208210811415611f0757634e487b7160e01b600052602260045260246000fd5b50919050565b6001600160a01b03848116825283166020820152606060408201819052600090611f3990830184611be2565b95945050505050565b60008351611f54818460208801611bb6565b60609390931b6bffffffffffffffffffffffff19169190920190815260140192915050565b60008251611f8b818460208701611bb6565b9190910192915050565b60208082526031908201527f4552433732313a207472616e736665722063616c6c6572206973206e6f74206f6040820152701ddb995c881b9bdc88185c1c1c9bdd9959607a1b606082015260800190565b634e487b7160e01b600052603260045260246000fd5b6020808252818101527f4f776e61626c653a2063616c6c6572206973206e6f7420746865206f776e6572604082015260600190565b60008351612043818460208801611bb6565b835190830190612057818360208801611bb6565b01949350505050565b60006020828403121561207257600080fd5b815161120f81611c3a565b634e487b7160e01b600052601160045260246000fd5b600082198211156120a6576120a661207d565b500190565b6000828210156120bd576120bd61207d565b500390565b60006000198214156120d6576120d661207d565b5060010190565b60208082526032908201527f4552433732313a207472616e7366657220746f206e6f6e20455243373231526560408201527131b2b4bb32b91034b6b83632b6b2b73a32b960711b606082015260800190565b634e487b7160e01b600052601260045260246000fd5b6000826121545761215461212f565b500490565b6000826121685761216861212f565b500690565b6001600160a01b03858116825284166020820152604081018390526080606082018190526000906121a090830184611be2565b9695505050505050565b6000602082840312156121bc57600080fd5b815161120f81611b83565b634e487b7160e01b600052603160045260246000fdfe4d6574615472616e73616374696f6e2875696e74323536206e6f6e63652c616464726573732066726f6d2c62797465732066756e6374696f6e5369676e617475726529687474703a2f2f35322e3232312e36342e3232383a353030302f6170692f63726561747572652f687474703a2f2f35322e3232312e36342e3232383a353030302f636f6e74726163742f73776964646c652d6f67666c617473a26469706673582212208ecfb4fef1d38e2da3a243f8f136f5cc11e088de35b27b7b33abc9b9e87edde564736f6c634300080a0033454950373132446f6d61696e28737472696e67206e616d652c737472696e672076657273696f6e2c6164647265737320766572696679696e67436f6e74726163742c627974657333322073616c7429",
  "immutableReferences": {},
  "source": "// SPDX-License-Identifier: MIT\n\npragma solidity ^0.8.0;\n\nimport \"./ERC721Tradable.sol\";\n\n/**\n * @title OGFlat\n * OGFlat - a contract for my non-fungible creatures.\n */\ncontract OGFlat is ERC721Tradable {\n    constructor(address _proxyRegistryAddress)\n        ERC721Tradable(\"Swiddle\", \"SWD\", _proxyRegistryAddress)\n    {}\n\n    function baseTokenURI() override public pure returns (string memory) {\n        return \"http://52.221.64.228:5000/api/creature/\";\n    }\n\n    function contractURI() public pure returns (string memory) {\n        return \"http://52.221.64.228:5000/contract/swiddle-ogflats\";\n    }\n}\n",
  "sourcePath": "/Users/ashwin/Documents/github/creatureFactorySample/contracts/OGFlat.sol",
  "compiler": {
    "name": "solc",
    "version": "0.8.10+commit.fc410830.Emscripten.clang"
  },
  "schemaVersion": "3.4.3",
  "updatedAt": "2021-12-01T18:05:53.633Z",
  "networkType": "ethereum",
  "devdoc": {
    "kind": "dev",
    "methods": {
      "approve(address,uint256)": {
        "details": "See {IERC721-approve}."
      },
      "balanceOf(address)": {
        "details": "See {IERC721-balanceOf}."
      },
      "getApproved(uint256)": {
        "details": "See {IERC721-getApproved}."
      },
      "mintTo(address)": {
        "details": "Mints a token to an address with a tokenURI.",
        "params": {
          "_to": "address of the future owner of the token"
        }
      },
      "name()": {
        "details": "See {IERC721Metadata-name}."
      },
      "owner()": {
        "details": "Returns the address of the current owner."
      },
      "ownerOf(uint256)": {
        "details": "See {IERC721-ownerOf}."
      },
      "renounceOwnership()": {
        "details": "Leaves the contract without owner. It will not be possible to call `onlyOwner` functions anymore. Can only be called by the current owner. NOTE: Renouncing ownership will leave the contract without an owner, thereby removing any functionality that is only available to the owner."
      },
      "safeTransferFrom(address,address,uint256)": {
        "details": "See {IERC721-safeTransferFrom}."
      },
      "safeTransferFrom(address,address,uint256,bytes)": {
        "details": "See {IERC721-safeTransferFrom}."
      },
      "setApprovalForAll(address,bool)": {
        "details": "See {IERC721-setApprovalForAll}."
      },
      "supportsInterface(bytes4)": {
        "details": "See {IERC165-supportsInterface}."
      },
      "symbol()": {
        "details": "See {IERC721Metadata-symbol}."
      },
      "tokenByIndex(uint256)": {
        "details": "See {IERC721Enumerable-tokenByIndex}."
      },
      "tokenOfOwnerByIndex(address,uint256)": {
        "details": "See {IERC721Enumerable-tokenOfOwnerByIndex}."
      },
      "totalSupply()": {
        "details": "See {IERC721Enumerable-totalSupply}."
      },
      "transferFrom(address,address,uint256)": {
        "details": "See {IERC721-transferFrom}."
      },
      "transferOwnership(address)": {
        "details": "Transfers ownership of the contract to a new account (`newOwner`). Can only be called by the current owner."
      }
    },
    "title": "OGFlat OGFlat - a contract for my non-fungible creatures.",
    "version": 1
  },
  "userdoc": {
    "kind": "user",
    "methods": {
      "isApprovedForAll(address,address)": {
        "notice": "Override isApprovedForAll to whitelist user's OpenSea proxy accounts to enable gas-less listings."
      }
    },
    "version": 1
  }
}