{
  "contractName": "OGFlatFactory",
  "abi": [
    {
      "inputs": [
        {
          "internalType": "address",
          "name": "_proxyRegistryAddress",
          "type": "address"
        },
        {
          "internalType": "address",
          "name": "_nftAddress",
          "type": "address"
        }
      ],
      "stateMutability": "nonpayable",
      "type": "constructor"
    },
    {
      "anonymous": false,
      "inputs": [
        {
          "indexed": true,
          "internalType": "address",
          "name": "previousOwner",
          "type": "address"
        },
        {
          "indexed": true,
          "internalType": "address",
          "name": "newOwner",
          "type": "address"
        }
      ],
      "name": "OwnershipTransferred",
      "type": "event"
    },
    {
      "anonymous": false,
      "inputs": [
        {
          "indexed": true,
          "internalType": "address",
          "name": "from",
          "type": "address"
        },
        {
          "indexed": true,
          "internalType": "address",
          "name": "to",
          "type": "address"
        },
        {
          "indexed": true,
          "internalType": "uint256",
          "name": "tokenId",
          "type": "uint256"
        }
      ],
      "name": "Transfer",
      "type": "event"
    },
    {
      "inputs": [],
      "name": "baseURI",
      "outputs": [
        {
          "internalType": "string",
          "name": "",
          "type": "string"
        }
      ],
      "stateMutability": "view",
      "type": "function",
      "constant": true
    },
    {
      "inputs": [],
      "name": "foundationAddress",
      "outputs": [
        {
          "internalType": "address",
          "name": "",
          "type": "address"
        }
      ],
      "stateMutability": "view",
      "type": "function",
      "constant": true
    },
    {
      "inputs": [],
      "name": "nftAddress",
      "outputs": [
        {
          "internalType": "address",
          "name": "",
          "type": "address"
        }
      ],
      "stateMutability": "view",
      "type": "function",
      "constant": true
    },
    {
      "inputs": [],
      "name": "owner",
      "outputs": [
        {
          "internalType": "address",
          "name": "",
          "type": "address"
        }
      ],
      "stateMutability": "view",
      "type": "function",
      "constant": true
    },
    {
      "inputs": [],
      "name": "proxyRegistryAddress",
      "outputs": [
        {
          "internalType": "address",
          "name": "",
          "type": "address"
        }
      ],
      "stateMutability": "view",
      "type": "function",
      "constant": true
    },
    {
      "inputs": [],
      "name": "renounceOwnership",
      "outputs": [],
      "stateMutability": "nonpayable",
      "type": "function"
    },
    {
      "inputs": [],
      "name": "name",
      "outputs": [
        {
          "internalType": "string",
          "name": "",
          "type": "string"
        }
      ],
      "stateMutability": "pure",
      "type": "function",
      "constant": true
    },
    {
      "inputs": [],
      "name": "symbol",
      "outputs": [
        {
          "internalType": "string",
          "name": "",
          "type": "string"
        }
      ],
      "stateMutability": "pure",
      "type": "function",
      "constant": true
    },
    {
      "inputs": [],
      "name": "supportsFactoryInterface",
      "outputs": [
        {
          "internalType": "bool",
          "name": "",
          "type": "bool"
        }
      ],
      "stateMutability": "pure",
      "type": "function",
      "constant": true
    },
    {
      "inputs": [
        {
          "internalType": "address",
          "name": "newOwner",
          "type": "address"
        }
      ],
      "name": "transferOwnership",
      "outputs": [],
      "stateMutability": "nonpayable",
      "type": "function"
    },
    {
      "inputs": [
        {
          "internalType": "uint256",
          "name": "_optionId",
          "type": "uint256"
        },
        {
          "internalType": "address",
          "name": "_toAddress",
          "type": "address"
        }
      ],
      "name": "mint",
      "outputs": [],
      "stateMutability": "payable",
      "type": "function",
      "payable": true
    },
    {
      "inputs": [],
      "name": "getSupply",
      "outputs": [
        {
          "internalType": "uint256",
          "name": "",
          "type": "uint256"
        }
      ],
      "stateMutability": "view",
      "type": "function",
      "constant": true
    },
    {
      "inputs": [
        {
          "internalType": "uint256",
          "name": "mintCount",
          "type": "uint256"
        }
      ],
      "name": "canMint",
      "outputs": [
        {
          "internalType": "bool",
          "name": "",
          "type": "bool"
        }
      ],
      "stateMutability": "view",
      "type": "function",
      "constant": true
    },
    {
      "inputs": [
        {
          "internalType": "uint256",
          "name": "_optionId",
          "type": "uint256"
        }
      ],
      "name": "tokenURI",
      "outputs": [
        {
          "internalType": "string",
          "name": "",
          "type": "string"
        }
      ],
      "stateMutability": "view",
      "type": "function",
      "constant": true
    },
    {
      "inputs": [
        {
          "internalType": "address",
          "name": "_from",
          "type": "address"
        },
        {
          "internalType": "address",
          "name": "_to",
          "type": "address"
        },
        {
          "internalType": "uint256",
          "name": "_tokenId",
          "type": "uint256"
        }
      ],
      "name": "transferFrom",
      "outputs": [],
      "stateMutability": "nonpayable",
      "type": "function"
    },
    {
      "inputs": [
        {
          "internalType": "address",
          "name": "_owner",
          "type": "address"
        },
        {
          "internalType": "address",
          "name": "_operator",
          "type": "address"
        }
      ],
      "name": "isApprovedForAll",
      "outputs": [
        {
          "internalType": "bool",
          "name": "",
          "type": "bool"
        }
      ],
      "stateMutability": "view",
      "type": "function",
      "constant": true
    },
    {
      "inputs": [
        {
          "internalType": "uint256",
          "name": "_tokenId",
          "type": "uint256"
        }
      ],
      "name": "ownerOf",
      "outputs": [
        {
          "internalType": "address",
          "name": "_owner",
          "type": "address"
        }
      ],
      "stateMutability": "view",
      "type": "function",
      "constant": true
    }
  ],
  "bytecode": "0x60e060405260266080818152906200114560a0398051620000299160039160209091019062000123565b506127106004553480156200003d57600080fd5b506040516200116b3803806200116b8339810160408190526200006091620001e6565b6200006b33620000d3565b600180546001600160a01b038481166001600160a01b031992831617909255600280548484169216919091179055600080546040519192169082907fddf252ad1be2c89b69c2b068fc378daa952ba7f163c4a11628f55a4df523b3ef908290a450506200025b565b600080546001600160a01b038381166001600160a01b0319831681178455604051919092169283917f8be0079c531659141344cd1fd0a4f28419497f9722a3daafe3b4186f6b6457e09190a35050565b82805462000131906200021e565b90600052602060002090601f016020900481019282620001555760008555620001a0565b82601f106200017057805160ff1916838001178555620001a0565b82800160010185558215620001a0579182015b82811115620001a057825182559160200191906001019062000183565b50620001ae929150620001b2565b5090565b5b80821115620001ae5760008155600101620001b3565b80516001600160a01b0381168114620001e157600080fd5b919050565b60008060408385031215620001fa57600080fd5b6200020583620001c9565b91506200021560208401620001c9565b90509250929050565b600181811c908216806200023357607f821691505b602082108114156200025557634e487b7160e01b600052602260045260246000fd5b50919050565b610eda806200026b6000396000f3fe6080604052600436106100ce5760003560e01c806306fdde03146100d357806323b872dd1461011d5780635bf8633a1461013f5780635dd871a31461016c5780636352211e1461019c5780636c0360eb146101bc5780636c9c2faf146101d1578063715018a6146101f45780638da5cb5b1461020957806394bf804d1461021e57806395d89b4114610231578063c311c5231461025d578063c87b56dd14610271578063cd7c032614610291578063e985e9c5146102b1578063f2fde38b146102d1578063fcf07c6b146102f1575b600080fd5b3480156100df57600080fd5b5060408051808201909152600f81526e53776964646c6520466163746f727960881b60208201525b6040516101149190610b2a565b60405180910390f35b34801561012957600080fd5b5061013d610138366004610b72565b610319565b005b34801561014b57600080fd5b5060025461015f906001600160a01b031681565b6040516101149190610bb3565b34801561017857600080fd5b5061018c610187366004610bc7565b610328565b6040519015158152602001610114565b3480156101a857600080fd5b5061015f6101b7366004610bc7565b61034b565b3480156101c857600080fd5b506101076103af565b3480156101dd57600080fd5b506101e661043d565b604051908152602001610114565b34801561020057600080fd5b5061013d6104af565b34801561021557600080fd5b5061015f6104ea565b61013d61022c366004610be0565b6104f9565b34801561023d57600080fd5b5060408051808201909152600381526229aba360e91b6020820152610107565b34801561026957600080fd5b50600161018c565b34801561027d57600080fd5b5061010761028c366004610bc7565b6106f2565b34801561029d57600080fd5b5060015461015f906001600160a01b031681565b3480156102bd57600080fd5b5061018c6102cc366004610c10565b610726565b3480156102dd57600080fd5b5061013d6102ec366004610c3e565b610835565b3480156102fd57600080fd5b5061015f73658a13938775f901bd02596c6ca794e25f8c50f581565b61032381836104f9565b505050565b60008061033361043d565b9050826004546103439190610c71565b101592915050565b60008061035661043d565b9050828110156103a05760405162461bcd60e51b815260206004820152601060248201526f125b9d985b1a59081d1bdad95b881a5960821b60448201526064015b60405180910390fd5b6103a86104ea565b9392505050565b600380546103bc90610c88565b80601f01602080910402602001604051908101604052809291908181526020018280546103e890610c88565b80156104355780601f1061040a57610100808354040283529160200191610435565b820191906000526020600020905b81548152906001019060200180831161041857829003601f168201915b505050505081565b600254604080516318160ddd60e01b815290516000926001600160a01b031691839183916318160ddd9160048083019260209291908290030181865afa15801561048b573d6000803e3d6000fd5b505050506040513d601f19601f820116820180604052508101906103a89190610cc3565b336104b86104ea565b6001600160a01b0316146104de5760405162461bcd60e51b815260040161039790610cdc565b6104e860006108bf565b565b6000546001600160a01b031690565b6001546001600160a01b0316338163c45527916105146104ea565b6040518263ffffffff1660e01b81526004016105309190610bb3565b602060405180830381865afa15801561054d573d6000803e3d6000fd5b505050506040513d601f19601f820116820180604052508101906105719190610d11565b6001600160a01b0316148061059557503361058a6104ea565b6001600160a01b0316145b6105a1576105a1610d2e565b67026db992a3b180003410156105f95760405162461bcd60e51b815260206004820152601d60248201527f302e3137352065746820697320726571756972656420746f206d696e740000006044820152606401610397565b600061060d67026db992a3b1800034610d5a565b905061061881610328565b6106595760405162461bcd60e51b815260206004820152601260248201527113585e081cdd5c1c1b1e481c995858da195960721b6044820152606401610397565b6106623461090f565b6002546001600160a01b031660005b828110156106ea5760405163755edd1760e01b81526001600160a01b0383169063755edd17906106a5908890600401610bb3565b600060405180830381600087803b1580156106bf57600080fd5b505af11580156106d3573d6000803e3d6000fd5b5050505080806106e290610d6e565b915050610671565b505050505050565b606060036106ff83610954565b604051602001610710929190610da5565b6040516020818303038152906040529050919050565b6000826001600160a01b031661073a6104ea565b6001600160a01b03161480156107615750816001600160a01b0316836001600160a01b0316145b1561076e5750600161082f565b6001546001600160a01b039081169084166107876104ea565b6001600160a01b031614801561081a5750826001600160a01b0316816001600160a01b031663c4552791866040518263ffffffff1660e01b81526004016107ce9190610bb3565b602060405180830381865afa1580156107eb573d6000803e3d6000fd5b505050506040513d601f19601f8201168201806040525081019061080f9190610d11565b6001600160a01b0316145b1561082957600191505061082f565b60009150505b92915050565b3361083e6104ea565b6001600160a01b0316146108645760405162461bcd60e51b815260040161039790610cdc565b600061086e6104ea565b905061087982610a5a565b6000826001600160a01b0316826001600160a01b03167fddf252ad1be2c89b69c2b068fc378daa952ba7f163c4a11628f55a4df523b3ef60405160405180910390a45050565b600080546001600160a01b038381166001600160a01b0319831681178455604051919092169283917f8be0079c531659141344cd1fd0a4f28419497f9722a3daafe3b4186f6b6457e09190a35050565b60405173658a13938775f901bd02596c6ca794e25f8c50f59082156108fc029083906000818181858888f19350505050158015610950573d6000803e3d6000fd5b5050565b6060816109785750506040805180820190915260018152600360fc1b602082015290565b8160005b81156109a2578061098c81610d6e565b915061099b9050600a83610d5a565b915061097c565b60008167ffffffffffffffff8111156109bd576109bd610e4c565b6040519080825280601f01601f1916602001820160405280156109e7576020820181803683370190505b5090505b8415610a52576109fc600183610c71565b9150610a09600a86610e62565b610a14906030610e76565b60f81b818381518110610a2957610a29610e8e565b60200101906001600160f81b031916908160001a905350610a4b600a86610d5a565b94506109eb565b949350505050565b33610a636104ea565b6001600160a01b031614610a895760405162461bcd60e51b815260040161039790610cdc565b6001600160a01b038116610aee5760405162461bcd60e51b815260206004820152602660248201527f4f776e61626c653a206e6577206f776e657220697320746865207a65726f206160448201526564647265737360d01b6064820152608401610397565b610af7816108bf565b50565b60005b83811015610b15578181015183820152602001610afd565b83811115610b24576000848401525b50505050565b6020815260008251806020840152610b49816040850160208701610afa565b601f01601f19169190910160400192915050565b6001600160a01b0381168114610af757600080fd5b600080600060608486031215610b8757600080fd5b8335610b9281610b5d565b92506020840135610ba281610b5d565b929592945050506040919091013590565b6001600160a01b0391909116815260200190565b600060208284031215610bd957600080fd5b5035919050565b60008060408385031215610bf357600080fd5b823591506020830135610c0581610b5d565b809150509250929050565b60008060408385031215610c2357600080fd5b8235610c2e81610b5d565b91506020830135610c0581610b5d565b600060208284031215610c5057600080fd5b81356103a881610b5d565b634e487b7160e01b600052601160045260246000fd5b600082821015610c8357610c83610c5b565b500390565b600181811c90821680610c9c57607f821691505b60208210811415610cbd57634e487b7160e01b600052602260045260246000fd5b50919050565b600060208284031215610cd557600080fd5b5051919050565b6020808252818101527f4f776e61626c653a2063616c6c6572206973206e6f7420746865206f776e6572604082015260600190565b600060208284031215610d2357600080fd5b81516103a881610b5d565b634e487b7160e01b600052600160045260246000fd5b634e487b7160e01b600052601260045260246000fd5b600082610d6957610d69610d44565b500490565b6000600019821415610d8257610d82610c5b565b5060010190565b60008151610d9b818560208601610afa565b9290920192915050565b600080845481600182811c915080831680610dc157607f831692505b6020808410821415610de157634e487b7160e01b86526022600452602486fd5b818015610df55760018114610e0657610e33565b60ff19861689528489019650610e33565b60008b81526020902060005b86811015610e2b5781548b820152908501908301610e12565b505084890196505b505050505050610e438185610d89565b95945050505050565b634e487b7160e01b600052604160045260246000fd5b600082610e7157610e71610d44565b500690565b60008219821115610e8957610e89610c5b565b500190565b634e487b7160e01b600052603260045260246000fdfea2646970667358221220d44fea08dd67ad45c347fd60cdf0998f3cfa23e27024d6c40b236de056d03ff564736f6c634300080a0033687474703a2f2f35322e3232312e36342e3232383a353030302f6170692f666163746f72792f",
  "immutableReferences": {},
  "source": "// SPDX-License-Identifier: MIT\n\npragma solidity ^0.8.0;\n\nimport \"openzeppelin-solidity/contracts/access/Ownable.sol\";\nimport \"openzeppelin-solidity/contracts/utils/Strings.sol\";\nimport \"./IFactoryERC721.sol\";\nimport \"./OGFlat.sol\";\n\ncontract OGFlatFactory is FactoryERC721, Ownable {\n    using Strings for string;\n\n    event Transfer(\n        address indexed from,\n        address indexed to,\n        uint256 indexed tokenId\n    );\n\n    address public proxyRegistryAddress;\n    address public nftAddress;\n    address public constant foundationAddress = 0x658A13938775f901bd02596c6ca794E25f8C50F5;\n    string public baseURI = \"http://52.221.64.228:5000/api/factory/\";\n\n    // Maximum supply desired\n    uint256 FLAT_SUPPLY = 10000;\n\n    constructor(address _proxyRegistryAddress, address _nftAddress) {\n        proxyRegistryAddress = _proxyRegistryAddress;\n        nftAddress = _nftAddress;\n        \n        emit Transfer(address(0), owner(), 0);\n    }\n\n    function name() override external pure returns (string memory) {\n        return \"Swiddle Factory\";\n    }\n\n    function symbol() override external pure returns (string memory) {\n        return \"SWF\";\n    }\n\n    function supportsFactoryInterface() override public pure returns (bool) {\n        return true;\n    }\n\n    function transferOwnership(address newOwner) override public onlyOwner {\n        address _prevOwner = owner();\n        super.transferOwnership(newOwner);\n        emit Transfer(_prevOwner, newOwner, 0);\n    }\n\n    // function fireTransferEvents(address _from, address _to) private {\n    //     for (uint256 i = 0; i < 3; i++) {\n    //         emit Transfer(_from, _to, i);\n    //     }\n    // }\n\n    function sendToFoundation(uint256 etherValue) private {\n        payable(foundationAddress).transfer(etherValue);\n    }\n\n\n    function mint(uint256 _optionId, address _toAddress) override public payable {\n        // Must be sent from the owner proxy or owner.\n        ProxyRegistry proxyRegistry = ProxyRegistry(proxyRegistryAddress);\n        assert(address(proxyRegistry.proxies(owner())) == _msgSender() || owner() == _msgSender());\n\n        //Checks if user can afford at least 1 flat\n        require(msg.value >= 0.175 ether, \"0.175 eth is required to mint\");\n\n        //Counts how many flats can be purchased with eth amount \n        uint256 mintCount = msg.value / 0.175 ether;\n\n        //Check if there are flats left to mint\n        require(canMint(mintCount), \"Max supply reached\");\n\n        sendToFoundation(msg.value);\n\n        OGFlat osOgFlats = OGFlat(nftAddress);\n        for (uint256 i = 0; i < mintCount; i++) {\n            osOgFlats.mintTo(_toAddress);\n        }\n    }  \n\n    function getSupply() public view returns (uint256) {\n        OGFlat osOgFlats = OGFlat(nftAddress);\n        uint256 creatureSupply = osOgFlats.totalSupply();\n\n        return creatureSupply;\n    }\n\n    function canMint(uint256 mintCount) public view returns (bool) {\n        uint256 creatureSupply = getSupply();\n\n        return creatureSupply <= (FLAT_SUPPLY - mintCount);\n    }\n\n    function tokenURI(uint256 _optionId) override external view returns (string memory) {\n        return string(abi.encodePacked(baseURI, Strings.toString(_optionId)));\n    }\n\n    /**\n     * Hack to get things to work automatically on OpenSea.\n     * Use transferFrom so the frontend doesn't have to worry about different method names.\n     */\n    function transferFrom(\n        address _from,\n        address _to,\n        uint256 _tokenId\n    ) public {\n        mint(_tokenId, _to);\n    }\n\n\n    // function royaltyInfo(uint256 _tokenId, uint256 _salePrice) external view returns (\n    //     address receiver,\n    //     uint256 royaltyAmount\n    // ){\n    //     OGFlat osOgFlats = OGFlat(nftAddress);\n    //     uint256 royaltyAmount = _salePrice * 25/1000;\n    //     return (address(this), royaltyAmount);\n    // }\n\n    \n    /**\n     * Hack to get things to work automatically on OpenSea.\n     * Use isApprovedForAll so the frontend doesn't have to worry about different method names.\n     */\n    function isApprovedForAll(address _owner, address _operator)\n        public\n        view\n        returns (bool)\n    {\n        if (owner() == _owner && _owner == _operator) {\n            return true;\n        }\n\n        ProxyRegistry proxyRegistry = ProxyRegistry(proxyRegistryAddress);\n        if (\n            owner() == _owner &&\n            address(proxyRegistry.proxies(_owner)) == _operator\n        ) {\n            return true;\n        }\n\n        return false;\n    }\n    \n\n    /**\n     * Hack to get things to work automatically on OpenSea.\n     * Use isApprovedForAll so the frontend doesn't have to worry about different method names.\n     */\n    function ownerOf(uint256 _tokenId) public view returns (address _owner) {\n        uint256 creatureSupply = getSupply();\n\n        require(creatureSupply >= _tokenId, 'Invalid token id');\n        \n        return owner();\n    }\n\n}\n",
  "sourcePath": "/Users/ashwin/Documents/github/creatureFactorySample/contracts/OGFlatFactory.sol",
  "compiler": {
    "name": "solc",
    "version": "0.8.10+commit.fc410830.Emscripten.clang"
  },
  "schemaVersion": "3.4.3",
  "updatedAt": "2021-11-24T05:47:44.281Z",
  "networkType": "ethereum",
  "devdoc": {
    "kind": "dev",
    "methods": {
      "canMint(uint256)": {
        "details": "Returns whether the option ID can be minted. Can return false if the developer wishes to restrict a total supply per option ID (or overall)."
      },
      "mint(uint256,address)": {
        "details": "Mints asset(s) in accordance to a specific address with a particular \"option\". This should be callable only by the contract owner or the owner's Wyvern Proxy (later universal login will solve this). Options should also be delineated 0 - (numOptions() - 1) for convenient indexing.",
        "params": {
          "_optionId": "the option id",
          "_toAddress": "address of the future owner of the asset(s)"
        }
      },
      "owner()": {
        "details": "Returns the address of the current owner."
      },
      "renounceOwnership()": {
        "details": "Leaves the contract without owner. It will not be possible to call `onlyOwner` functions anymore. Can only be called by the current owner. NOTE: Renouncing ownership will leave the contract without an owner, thereby removing any functionality that is only available to the owner."
      },
      "tokenURI(uint256)": {
        "details": "Returns a URL specifying some metadata about the option. This metadata can be of the same structure as the ERC721 metadata."
      },
      "transferOwnership(address)": {
        "details": "Transfers ownership of the contract to a new account (`newOwner`). Can only be called by the current owner."
      }
    },
    "version": 1
  },
  "userdoc": {
    "kind": "user",
    "methods": {
      "isApprovedForAll(address,address)": {
        "notice": "Hack to get things to work automatically on OpenSea. Use isApprovedForAll so the frontend doesn't have to worry about different method names."
      },
      "name()": {
        "notice": "Returns the name of this factory."
      },
      "ownerOf(uint256)": {
        "notice": "Hack to get things to work automatically on OpenSea. Use isApprovedForAll so the frontend doesn't have to worry about different method names."
      },
      "supportsFactoryInterface()": {
        "notice": "Indicates that this is a factory contract. Ideally would use EIP 165 supportsInterface()"
      },
      "symbol()": {
        "notice": "Returns the symbol for this factory."
      },
      "transferFrom(address,address,uint256)": {
        "notice": "Hack to get things to work automatically on OpenSea. Use transferFrom so the frontend doesn't have to worry about different method names."
      }
    },
    "version": 1
  }
}