{
  "contractName": "OGFlat",
  "abi": [
    {
      "inputs": [
        {
          "internalType": "address",
          "name": "_proxyRegistryAddress",
          "type": "address"
        }
      ],
      "stateMutability": "nonpayable",
      "type": "constructor"
    },
    {
      "anonymous": false,
      "inputs": [
        {
          "indexed": true,
          "internalType": "address",
          "name": "owner",
          "type": "address"
        },
        {
          "indexed": true,
          "internalType": "address",
          "name": "approved",
          "type": "address"
        },
        {
          "indexed": true,
          "internalType": "uint256",
          "name": "tokenId",
          "type": "uint256"
        }
      ],
      "name": "Approval",
      "type": "event"
    },
    {
      "anonymous": false,
      "inputs": [
        {
          "indexed": true,
          "internalType": "address",
          "name": "owner",
          "type": "address"
        },
        {
          "indexed": true,
          "internalType": "address",
          "name": "operator",
          "type": "address"
        },
        {
          "indexed": false,
          "internalType": "bool",
          "name": "approved",
          "type": "bool"
        }
      ],
      "name": "ApprovalForAll",
      "type": "event"
    },
    {
      "anonymous": false,
      "inputs": [
        {
          "indexed": false,
          "internalType": "address",
          "name": "userAddress",
          "type": "address"
        },
        {
          "indexed": false,
          "internalType": "address payable",
          "name": "relayerAddress",
          "type": "address"
        },
        {
          "indexed": false,
          "internalType": "bytes",
          "name": "functionSignature",
          "type": "bytes"
        }
      ],
      "name": "MetaTransactionExecuted",
      "type": "event"
    },
    {
      "anonymous": false,
      "inputs": [
        {
          "indexed": true,
          "internalType": "address",
          "name": "previousOwner",
          "type": "address"
        },
        {
          "indexed": true,
          "internalType": "address",
          "name": "newOwner",
          "type": "address"
        }
      ],
      "name": "OwnershipTransferred",
      "type": "event"
    },
    {
      "anonymous": false,
      "inputs": [
        {
          "indexed": true,
          "internalType": "address",
          "name": "from",
          "type": "address"
        },
        {
          "indexed": true,
          "internalType": "address",
          "name": "to",
          "type": "address"
        },
        {
          "indexed": true,
          "internalType": "uint256",
          "name": "tokenId",
          "type": "uint256"
        }
      ],
      "name": "Transfer",
      "type": "event"
    },
    {
      "inputs": [],
      "name": "ERC712_VERSION",
      "outputs": [
        {
          "internalType": "string",
          "name": "",
          "type": "string"
        }
      ],
      "stateMutability": "view",
      "type": "function",
      "constant": true
    },
    {
      "inputs": [
        {
          "internalType": "address",
          "name": "to",
          "type": "address"
        },
        {
          "internalType": "uint256",
          "name": "tokenId",
          "type": "uint256"
        }
      ],
      "name": "approve",
      "outputs": [],
      "stateMutability": "nonpayable",
      "type": "function"
    },
    {
      "inputs": [
        {
          "internalType": "address",
          "name": "owner",
          "type": "address"
        }
      ],
      "name": "balanceOf",
      "outputs": [
        {
          "internalType": "uint256",
          "name": "",
          "type": "uint256"
        }
      ],
      "stateMutability": "view",
      "type": "function",
      "constant": true
    },
    {
      "inputs": [
        {
          "internalType": "address",
          "name": "userAddress",
          "type": "address"
        },
        {
          "internalType": "bytes",
          "name": "functionSignature",
          "type": "bytes"
        },
        {
          "internalType": "bytes32",
          "name": "sigR",
          "type": "bytes32"
        },
        {
          "internalType": "bytes32",
          "name": "sigS",
          "type": "bytes32"
        },
        {
          "internalType": "uint8",
          "name": "sigV",
          "type": "uint8"
        }
      ],
      "name": "executeMetaTransaction",
      "outputs": [
        {
          "internalType": "bytes",
          "name": "",
          "type": "bytes"
        }
      ],
      "stateMutability": "payable",
      "type": "function",
      "payable": true
    },
    {
      "inputs": [
        {
          "internalType": "uint256",
          "name": "tokenId",
          "type": "uint256"
        }
      ],
      "name": "getApproved",
      "outputs": [
        {
          "internalType": "address",
          "name": "",
          "type": "address"
        }
      ],
      "stateMutability": "view",
      "type": "function",
      "constant": true
    },
    {
      "inputs": [],
      "name": "getChainId",
      "outputs": [
        {
          "internalType": "uint256",
          "name": "",
          "type": "uint256"
        }
      ],
      "stateMutability": "view",
      "type": "function",
      "constant": true
    },
    {
      "inputs": [],
      "name": "getDomainSeperator",
      "outputs": [
        {
          "internalType": "bytes32",
          "name": "",
          "type": "bytes32"
        }
      ],
      "stateMutability": "view",
      "type": "function",
      "constant": true
    },
    {
      "inputs": [
        {
          "internalType": "address",
          "name": "user",
          "type": "address"
        }
      ],
      "name": "getNonce",
      "outputs": [
        {
          "internalType": "uint256",
          "name": "nonce",
          "type": "uint256"
        }
      ],
      "stateMutability": "view",
      "type": "function",
      "constant": true
    },
    {
      "inputs": [
        {
          "internalType": "address",
          "name": "owner",
          "type": "address"
        },
        {
          "internalType": "address",
          "name": "operator",
          "type": "address"
        }
      ],
      "name": "isApprovedForAll",
      "outputs": [
        {
          "internalType": "bool",
          "name": "",
          "type": "bool"
        }
      ],
      "stateMutability": "view",
      "type": "function",
      "constant": true
    },
    {
      "inputs": [
        {
          "internalType": "address",
          "name": "_to",
          "type": "address"
        }
      ],
      "name": "mintTo",
      "outputs": [],
      "stateMutability": "nonpayable",
      "type": "function"
    },
    {
      "inputs": [],
      "name": "name",
      "outputs": [
        {
          "internalType": "string",
          "name": "",
          "type": "string"
        }
      ],
      "stateMutability": "view",
      "type": "function",
      "constant": true
    },
    {
      "inputs": [],
      "name": "owner",
      "outputs": [
        {
          "internalType": "address",
          "name": "",
          "type": "address"
        }
      ],
      "stateMutability": "view",
      "type": "function",
      "constant": true
    },
    {
      "inputs": [
        {
          "internalType": "uint256",
          "name": "tokenId",
          "type": "uint256"
        }
      ],
      "name": "ownerOf",
      "outputs": [
        {
          "internalType": "address",
          "name": "",
          "type": "address"
        }
      ],
      "stateMutability": "view",
      "type": "function",
      "constant": true
    },
    {
      "inputs": [],
      "name": "renounceOwnership",
      "outputs": [],
      "stateMutability": "nonpayable",
      "type": "function"
    },
    {
      "inputs": [
        {
          "internalType": "address",
          "name": "from",
          "type": "address"
        },
        {
          "internalType": "address",
          "name": "to",
          "type": "address"
        },
        {
          "internalType": "uint256",
          "name": "tokenId",
          "type": "uint256"
        }
      ],
      "name": "safeTransferFrom",
      "outputs": [],
      "stateMutability": "nonpayable",
      "type": "function"
    },
    {
      "inputs": [
        {
          "internalType": "address",
          "name": "from",
          "type": "address"
        },
        {
          "internalType": "address",
          "name": "to",
          "type": "address"
        },
        {
          "internalType": "uint256",
          "name": "tokenId",
          "type": "uint256"
        },
        {
          "internalType": "bytes",
          "name": "_data",
          "type": "bytes"
        }
      ],
      "name": "safeTransferFrom",
      "outputs": [],
      "stateMutability": "nonpayable",
      "type": "function"
    },
    {
      "inputs": [
        {
          "internalType": "address",
          "name": "operator",
          "type": "address"
        },
        {
          "internalType": "bool",
          "name": "approved",
          "type": "bool"
        }
      ],
      "name": "setApprovalForAll",
      "outputs": [],
      "stateMutability": "nonpayable",
      "type": "function"
    },
    {
      "inputs": [
        {
          "internalType": "bytes4",
          "name": "interfaceId",
          "type": "bytes4"
        }
      ],
      "name": "supportsInterface",
      "outputs": [
        {
          "internalType": "bool",
          "name": "",
          "type": "bool"
        }
      ],
      "stateMutability": "view",
      "type": "function",
      "constant": true
    },
    {
      "inputs": [],
      "name": "symbol",
      "outputs": [
        {
          "internalType": "string",
          "name": "",
          "type": "string"
        }
      ],
      "stateMutability": "view",
      "type": "function",
      "constant": true
    },
    {
      "inputs": [
        {
          "internalType": "uint256",
          "name": "index",
          "type": "uint256"
        }
      ],
      "name": "tokenByIndex",
      "outputs": [
        {
          "internalType": "uint256",
          "name": "",
          "type": "uint256"
        }
      ],
      "stateMutability": "view",
      "type": "function",
      "constant": true
    },
    {
      "inputs": [
        {
          "internalType": "address",
          "name": "owner",
          "type": "address"
        },
        {
          "internalType": "uint256",
          "name": "index",
          "type": "uint256"
        }
      ],
      "name": "tokenOfOwnerByIndex",
      "outputs": [
        {
          "internalType": "uint256",
          "name": "",
          "type": "uint256"
        }
      ],
      "stateMutability": "view",
      "type": "function",
      "constant": true
    },
    {
      "inputs": [
        {
          "internalType": "uint256",
          "name": "_tokenId",
          "type": "uint256"
        }
      ],
      "name": "tokenURI",
      "outputs": [
        {
          "internalType": "string",
          "name": "",
          "type": "string"
        }
      ],
      "stateMutability": "pure",
      "type": "function",
      "constant": true
    },
    {
      "inputs": [],
      "name": "totalSupply",
      "outputs": [
        {
          "internalType": "uint256",
          "name": "",
          "type": "uint256"
        }
      ],
      "stateMutability": "view",
      "type": "function",
      "constant": true
    },
    {
      "inputs": [
        {
          "internalType": "address",
          "name": "from",
          "type": "address"
        },
        {
          "internalType": "address",
          "name": "to",
          "type": "address"
        },
        {
          "internalType": "uint256",
          "name": "tokenId",
          "type": "uint256"
        }
      ],
      "name": "transferFrom",
      "outputs": [],
      "stateMutability": "nonpayable",
      "type": "function"
    },
    {
      "inputs": [
        {
          "internalType": "address",
          "name": "newOwner",
          "type": "address"
        }
      ],
      "name": "transferOwnership",
      "outputs": [],
      "stateMutability": "nonpayable",
      "type": "function"
    },
    {
      "inputs": [],
      "name": "baseTokenURI",
      "outputs": [
        {
          "internalType": "string",
          "name": "",
          "type": "string"
        }
      ],
      "stateMutability": "pure",
      "type": "function",
      "constant": true
    },
    {
      "inputs": [],
      "name": "contractURI",
      "outputs": [
        {
          "internalType": "string",
          "name": "",
          "type": "string"
        }
      ],
      "stateMutability": "pure",
      "type": "function",
      "constant": true
    }
  ],
  "bytecode": "0x6080604052600a805460ff191690556000600f553480156200002057600080fd5b506040516200266838038062002668833981016040819052620000439162000376565b6040518060400160405280600781526020016653776964646c6560c81b8152506040518060400160405280600381526020016214d5d160ea1b81525082828281600090805190602001906200009a929190620002d0565b508051620000b0906001906020840190620002d0565b505050620000cd620000c7620000fd60201b60201c565b62000119565b600e80546001600160a01b0319166001600160a01b038316179055620000f3836200016b565b50505050620003e5565b600062000114620001cf60201b62000f531760201c565b905090565b600d80546001600160a01b038381166001600160a01b0319831681179093556040519116919082907f8be0079c531659141344cd1fd0a4f28419497f9722a3daafe3b4186f6b6457e090600090a35050565b600a5460ff1615620001b45760405162461bcd60e51b815260206004820152600e60248201526d185b1c9958591e481a5b9a5d195960921b604482015260640160405180910390fd5b620001bf816200022e565b50600a805460ff19166001179055565b6000333014156200022857600080368080601f0160208091040260200160405190810160405280939291908181526020018383808284376000920191909152505050503601516001600160a01b031691506200022b9050565b50335b90565b6040518060800160405280604f815260200162002619604f9139805160209182012082519282019290922060408051808201825260018152603160f81b90840152805180840194909452838101919091527fc89efdaa54c0f20c7adf612882df0950f5a951637e0307cdcb4c672f298b8bc660608401523060808401524660a0808501919091528151808503909101815260c090930190528151910120600b55565b828054620002de90620003a8565b90600052602060002090601f0160209004810192826200030257600085556200034d565b82601f106200031d57805160ff19168380011785556200034d565b828001600101855582156200034d579182015b828111156200034d57825182559160200191906001019062000330565b506200035b9291506200035f565b5090565b5b808211156200035b576000815560010162000360565b6000602082840312156200038957600080fd5b81516001600160a01b0381168114620003a157600080fd5b9392505050565b600181811c90821680620003bd57607f821691505b60208210811415620003df57634e487b7160e01b600052602260045260246000fd5b50919050565b61222480620003f56000396000f3fe60806040526004361061013c5760003560e01c806301ffc9a71461014157806306fdde0314610176578063081812fc14610198578063095ea7b3146101c55780630c53c51c146101e75780630f7e5970146101fa57806318160ddd1461022757806320379ee51461024657806323b872dd1461025b5780632d0335ab1461027b5780632f745c59146102b15780633408e470146102d157806342842e0e146102e45780634f6ccce7146103045780636352211e1461032457806370a0823114610344578063715018a614610364578063755edd17146103795780638da5cb5b1461039957806395d89b41146103ae578063a22cb465146103c3578063b88d4fde146103e3578063c87b56dd14610403578063d547cfb714610423578063e8a3d48514610438578063e985e9c51461044d578063f2fde38b1461046d575b600080fd5b34801561014d57600080fd5b5061016161015c366004611b02565b61048d565b60405190151581526020015b60405180910390f35b34801561018257600080fd5b5061018b6104b8565b60405161016d9190611b77565b3480156101a457600080fd5b506101b86101b3366004611b8a565b61054a565b60405161016d9190611ba3565b3480156101d157600080fd5b506101e56101e0366004611bcc565b6105d7565b005b61018b6101f5366004611c9a565b6106fa565b34801561020657600080fd5b5061018b604051806040016040528060018152602001603160f81b81525081565b34801561023357600080fd5b506008545b60405190815260200161016d565b34801561025257600080fd5b50600b54610238565b34801561026757600080fd5b506101e5610276366004611d17565b6108e3565b34801561028757600080fd5b50610238610296366004611d58565b6001600160a01b03166000908152600c602052604090205490565b3480156102bd57600080fd5b506102386102cc366004611bcc565b61091b565b3480156102dd57600080fd5b5046610238565b3480156102f057600080fd5b506101e56102ff366004611d17565b6109b1565b34801561031057600080fd5b5061023861031f366004611b8a565b6109cc565b34801561033057600080fd5b506101b861033f366004611b8a565b610a5f565b34801561035057600080fd5b5061023861035f366004611d58565b610ad6565b34801561037057600080fd5b506101e5610b5d565b34801561038557600080fd5b506101e5610394366004611d58565b610ba8565b3480156103a557600080fd5b506101b8610c09565b3480156103ba57600080fd5b5061018b610c18565b3480156103cf57600080fd5b506101e56103de366004611d75565b610c27565b3480156103ef57600080fd5b506101e56103fe366004611db3565b610d25565b34801561040f57600080fd5b5061018b61041e366004611b8a565b610d64565b34801561042f57600080fd5b5061018b610d9e565b34801561044457600080fd5b5061018b610dbe565b34801561045957600080fd5b50610161610468366004611e1e565b610dde565b34801561047957600080fd5b506101e5610488366004611d58565b610ea3565b60006001600160e01b0319821663780e9d6360e01b14806104b257506104b282610fb0565b92915050565b6060600080546104c790611e4c565b80601f01602080910402602001604051908101604052809291908181526020018280546104f390611e4c565b80156105405780601f1061051557610100808354040283529160200191610540565b820191906000526020600020905b81548152906001019060200180831161052357829003601f168201915b5050505050905090565b600061055582611000565b6105bb5760405162461bcd60e51b815260206004820152602c60248201527f4552433732313a20617070726f76656420717565727920666f72206e6f6e657860448201526b34b9ba32b73a103a37b5b2b760a11b60648201526084015b60405180910390fd5b506000908152600460205260409020546001600160a01b031690565b60006105e282610a5f565b9050806001600160a01b0316836001600160a01b031614156106505760405162461bcd60e51b815260206004820152602160248201527f4552433732313a20617070726f76616c20746f2063757272656e74206f776e656044820152603960f91b60648201526084016105b2565b806001600160a01b031661066261101d565b6001600160a01b0316148061067e575061067e8161046861101d565b6106eb5760405162461bcd60e51b815260206004820152603860248201527f4552433732313a20617070726f76652063616c6c6572206973206e6f74206f776044820152771b995c881b9bdc88185c1c1c9bdd995908199bdc88185b1b60421b60648201526084016105b2565b6106f5838361102c565b505050565b60408051606081810183526001600160a01b0388166000818152600c602090815290859020548452830152918101869052610738878287878761109a565b61078e5760405162461bcd60e51b815260206004820152602160248201527f5369676e657220616e64207369676e617475726520646f206e6f74206d6174636044820152600d60fb1b60648201526084016105b2565b6001600160a01b0387166000908152600c60205260409020546107b290600161118a565b6001600160a01b0388166000908152600c60205260409081902091909155517f5845892132946850460bff5a0083f71031bc5bf9aadcd40f1de79423eac9b10b9061080290899033908a90611e87565b60405180910390a1600080306001600160a01b0316888a60405160200161082a929190611ebc565b60408051601f198184030181529082905261084491611eee565b6000604051808303816000865af19150503d8060008114610881576040519150601f19603f3d011682016040523d82523d6000602084013e610886565b606091505b5091509150816108d75760405162461bcd60e51b815260206004820152601c60248201527b119d5b98dd1a5bdb8818d85b1b081b9bdd081cdd58d8d95cdcd99d5b60221b60448201526064016105b2565b98975050505050505050565b6108f46108ee61101d565b8261119d565b6109105760405162461bcd60e51b81526004016105b290611f0a565b6106f583838361125f565b600061092683610ad6565b82106109885760405162461bcd60e51b815260206004820152602b60248201527f455243373231456e756d657261626c653a206f776e657220696e646578206f7560448201526a74206f6620626f756e647360a81b60648201526084016105b2565b506001600160a01b03919091166000908152600660209081526040808320938352929052205490565b6106f583838360405180602001604052806000815250610d25565b60006109d760085490565b8210610a3a5760405162461bcd60e51b815260206004820152602c60248201527f455243373231456e756d657261626c653a20676c6f62616c20696e646578206f60448201526b7574206f6620626f756e647360a01b60648201526084016105b2565b60088281548110610a4d57610a4d611f5b565b90600052602060002001549050919050565b6000818152600260205260408120546001600160a01b0316806104b25760405162461bcd60e51b815260206004820152602960248201527f4552433732313a206f776e657220717565727920666f72206e6f6e657869737460448201526832b73a103a37b5b2b760b91b60648201526084016105b2565b60006001600160a01b038216610b415760405162461bcd60e51b815260206004820152602a60248201527f4552433732313a2062616c616e636520717565727920666f7220746865207a65604482015269726f206164647265737360b01b60648201526084016105b2565b506001600160a01b031660009081526003602052604090205490565b610b6561101d565b6001600160a01b0316610b76610c09565b6001600160a01b031614610b9c5760405162461bcd60e51b81526004016105b290611f71565b610ba6600061140a565b565b610bb061101d565b6001600160a01b0316610bc1610c09565b6001600160a01b031614610be75760405162461bcd60e51b81526004016105b290611f71565b6000610bf161145c565b9050610bfd828261146d565b610c056115ab565b5050565b600d546001600160a01b031690565b6060600180546104c790611e4c565b610c2f61101d565b6001600160a01b0316826001600160a01b03161415610c8c5760405162461bcd60e51b815260206004820152601960248201527822a9219b99189d1030b8383937bb32903a379031b0b63632b960391b60448201526064016105b2565b8060056000610c9961101d565b6001600160a01b03908116825260208083019390935260409182016000908120918716808252919093529120805460ff191692151592909217909155610cdd61101d565b6001600160a01b03167f17307eab39ab6107e8899845ad3d59bd9653f200f220920489ca2b5937696c3183604051610d19911515815260200190565b60405180910390a35050565b610d36610d3061101d565b8361119d565b610d525760405162461bcd60e51b81526004016105b290611f0a565b610d5e848484846115c2565b50505050565b6060610d6e610d9e565b610d77836115f5565b604051602001610d88929190611fa6565b6040516020818303038152906040529050919050565b606060405180606001604052806027815260200161219660279139905090565b60606040518060600160405280603281526020016121bd60329139905090565b600e5460405163c455279160e01b81526000916001600160a01b039081169190841690829063c455279190610e17908890600401611ba3565b602060405180830381865afa158015610e34573d6000803e3d6000fd5b505050506040513d601f19601f82011682018060405250810190610e589190611fd5565b6001600160a01b03161415610e715760019150506104b2565b6001600160a01b0380851660009081526005602090815260408083209387168352929052205460ff165b949350505050565b610eab61101d565b6001600160a01b0316610ebc610c09565b6001600160a01b031614610ee25760405162461bcd60e51b81526004016105b290611f71565b6001600160a01b038116610f475760405162461bcd60e51b815260206004820152602660248201527f4f776e61626c653a206e6577206f776e657220697320746865207a65726f206160448201526564647265737360d01b60648201526084016105b2565b610f508161140a565b50565b600033301415610faa57600080368080601f0160208091040260200160405190810160405280939291908181526020018383808284376000920191909152505050503601516001600160a01b03169150610fad9050565b50335b90565b60006001600160e01b031982166380ac58cd60e01b1480610fe157506001600160e01b03198216635b5e139f60e01b145b806104b257506301ffc9a760e01b6001600160e01b03198316146104b2565b6000908152600260205260409020546001600160a01b0316151590565b6000611027610f53565b905090565b600081815260046020526040902080546001600160a01b0319166001600160a01b038416908117909155819061106182610a5f565b6001600160a01b03167f8c5be1e5ebec7d5bd14f71427d1e84f3dd0314c0f7b2291e5b200ac8c7c3b92560405160405180910390a45050565b60006001600160a01b0386166111005760405162461bcd60e51b815260206004820152602560248201527f4e61746976654d6574615472616e73616374696f6e3a20494e56414c49445f5360448201526424a3a722a960d91b60648201526084016105b2565b600161111361110e876116f2565b61176f565b6040805160008152602081018083529290925260ff851690820152606081018690526080810185905260a0016020604051602081039080840390855afa158015611161573d6000803e3d6000fd5b505050602060405103516001600160a01b0316866001600160a01b031614905095945050505050565b60006111968284612008565b9392505050565b60006111a882611000565b6112095760405162461bcd60e51b815260206004820152602c60248201527f4552433732313a206f70657261746f7220717565727920666f72206e6f6e657860448201526b34b9ba32b73a103a37b5b2b760a11b60648201526084016105b2565b600061121483610a5f565b9050806001600160a01b0316846001600160a01b0316148061124f5750836001600160a01b03166112448461054a565b6001600160a01b0316145b80610e9b5750610e9b8185610dde565b826001600160a01b031661127282610a5f565b6001600160a01b0316146112da5760405162461bcd60e51b815260206004820152602960248201527f4552433732313a207472616e73666572206f6620746f6b656e2074686174206960448201526839903737ba1037bbb760b91b60648201526084016105b2565b6001600160a01b03821661133c5760405162461bcd60e51b8152602060048201526024808201527f4552433732313a207472616e7366657220746f20746865207a65726f206164646044820152637265737360e01b60648201526084016105b2565b61134783838361179f565b61135260008261102c565b6001600160a01b038316600090815260036020526040812080546001929061137b908490612020565b90915550506001600160a01b03821660009081526003602052604081208054600192906113a9908490612008565b909155505060008181526002602052604080822080546001600160a01b0319166001600160a01b0386811691821790925591518493918716917fddf252ad1be2c89b69c2b068fc378daa952ba7f163c4a11628f55a4df523b3ef91a4505050565b600d80546001600160a01b038381166001600160a01b0319831681179093556040519116919082907f8be0079c531659141344cd1fd0a4f28419497f9722a3daafe3b4186f6b6457e090600090a35050565b600f5460009061102790600161118a565b6001600160a01b0382166114c35760405162461bcd60e51b815260206004820181905260248201527f4552433732313a206d696e7420746f20746865207a65726f206164647265737360448201526064016105b2565b6114cc81611000565b156115185760405162461bcd60e51b815260206004820152601c60248201527b115490cdcc8c4e881d1bdad95b88185b1c9958591e481b5a5b9d195960221b60448201526064016105b2565b6115246000838361179f565b6001600160a01b038216600090815260036020526040812080546001929061154d908490612008565b909155505060008181526002602052604080822080546001600160a01b0319166001600160a01b03861690811790915590518392907fddf252ad1be2c89b69c2b068fc378daa952ba7f163c4a11628f55a4df523b3ef908290a45050565b600f80549060006115bb83612037565b9190505550565b6115cd84848461125f565b6115d984848484611857565b610d5e5760405162461bcd60e51b81526004016105b290612052565b6060816116195750506040805180820190915260018152600360fc1b602082015290565b8160005b8115611643578061162d81612037565b915061163c9050600a836120ba565b915061161d565b6000816001600160401b0381111561165d5761165d611bf8565b6040519080825280601f01601f191660200182016040528015611687576020820181803683370190505b5090505b8415610e9b5761169c600183612020565b91506116a9600a866120ce565b6116b4906030612008565b60f81b8183815181106116c9576116c9611f5b565b60200101906001600160f81b031916908160001a9053506116eb600a866120ba565b945061168b565b60006040518060800160405280604381526020016121536043913980516020918201208351848301516040808701518051908601209051611752950193845260208401929092526001600160a01b03166040830152606082015260800190565b604051602081830303815290604052805190602001209050919050565b600061177a600b5490565b60405161190160f01b6020820152602281019190915260428101839052606201611752565b6001600160a01b0383166117fa576117f581600880546000838152600960205260408120829055600182018355919091527ff3f7a9fe364faab93b216da50a3214154f22a0a2b415b23a84c8169e8b636ee30155565b61181d565b816001600160a01b0316836001600160a01b03161461181d5761181d838261195c565b6001600160a01b038216611834576106f5816119f9565b826001600160a01b0316826001600160a01b0316146106f5576106f58282611aa8565b60006001600160a01b0384163b1561195157836001600160a01b031663150b7a0261188061101d565b8786866040518563ffffffff1660e01b81526004016118a294939291906120e2565b6020604051808303816000875af19250505080156118dd575060408051601f3d908101601f191682019092526118da9181019061211f565b60015b611937573d80801561190b576040519150601f19603f3d011682016040523d82523d6000602084013e611910565b606091505b50805161192f5760405162461bcd60e51b81526004016105b290612052565b805181602001fd5b6001600160e01b031916630a85bd0160e11b149050610e9b565b506001949350505050565b6000600161196984610ad6565b6119739190612020565b6000838152600760205260409020549091508082146119c6576001600160a01b03841660009081526006602090815260408083208584528252808320548484528184208190558352600790915290208190555b5060009182526007602090815260408084208490556001600160a01b039094168352600681528383209183525290812055565b600854600090611a0b90600190612020565b60008381526009602052604081205460088054939450909284908110611a3357611a33611f5b565b906000526020600020015490508060088381548110611a5457611a54611f5b565b6000918252602080832090910192909255828152600990915260408082208490558582528120556008805480611a8c57611a8c61213c565b6001900381819060005260206000200160009055905550505050565b6000611ab383610ad6565b6001600160a01b039093166000908152600660209081526040808320868452825280832085905593825260079052919091209190915550565b6001600160e01b031981168114610f5057600080fd5b600060208284031215611b1457600080fd5b813561119681611aec565b60005b83811015611b3a578181015183820152602001611b22565b83811115610d5e5750506000910152565b60008151808452611b63816020860160208601611b1f565b601f01601f19169290920160200192915050565b6020815260006111966020830184611b4b565b600060208284031215611b9c57600080fd5b5035919050565b6001600160a01b0391909116815260200190565b6001600160a01b0381168114610f5057600080fd5b60008060408385031215611bdf57600080fd5b8235611bea81611bb7565b946020939093013593505050565b634e487b7160e01b600052604160045260246000fd5b600082601f830112611c1f57600080fd5b81356001600160401b0380821115611c3957611c39611bf8565b604051601f8301601f19908116603f01168101908282118183101715611c6157611c61611bf8565b81604052838152866020858801011115611c7a57600080fd5b836020870160208301376000602085830101528094505050505092915050565b600080600080600060a08688031215611cb257600080fd5b8535611cbd81611bb7565b945060208601356001600160401b03811115611cd857600080fd5b611ce488828901611c0e565b9450506040860135925060608601359150608086013560ff81168114611d0957600080fd5b809150509295509295909350565b600080600060608486031215611d2c57600080fd5b8335611d3781611bb7565b92506020840135611d4781611bb7565b929592945050506040919091013590565b600060208284031215611d6a57600080fd5b813561119681611bb7565b60008060408385031215611d8857600080fd5b8235611d9381611bb7565b915060208301358015158114611da857600080fd5b809150509250929050565b60008060008060808587031215611dc957600080fd5b8435611dd481611bb7565b93506020850135611de481611bb7565b92506040850135915060608501356001600160401b03811115611e0657600080fd5b611e1287828801611c0e565b91505092959194509250565b60008060408385031215611e3157600080fd5b8235611e3c81611bb7565b91506020830135611da881611bb7565b600181811c90821680611e6057607f821691505b60208210811415611e8157634e487b7160e01b600052602260045260246000fd5b50919050565b6001600160a01b03848116825283166020820152606060408201819052600090611eb390830184611b4b565b95945050505050565b60008351611ece818460208801611b1f565b60609390931b6001600160601b0319169190920190815260140192915050565b60008251611f00818460208701611b1f565b9190910192915050565b60208082526031908201527f4552433732313a207472616e736665722063616c6c6572206973206e6f74206f6040820152701ddb995c881b9bdc88185c1c1c9bdd9959607a1b606082015260800190565b634e487b7160e01b600052603260045260246000fd5b6020808252818101527f4f776e61626c653a2063616c6c6572206973206e6f7420746865206f776e6572604082015260600190565b60008351611fb8818460208801611b1f565b835190830190611fcc818360208801611b1f565b01949350505050565b600060208284031215611fe757600080fd5b815161119681611bb7565b634e487b7160e01b600052601160045260246000fd5b6000821982111561201b5761201b611ff2565b500190565b60008282101561203257612032611ff2565b500390565b600060001982141561204b5761204b611ff2565b5060010190565b60208082526032908201527f4552433732313a207472616e7366657220746f206e6f6e20455243373231526560408201527131b2b4bb32b91034b6b83632b6b2b73a32b960711b606082015260800190565b634e487b7160e01b600052601260045260246000fd5b6000826120c9576120c96120a4565b500490565b6000826120dd576120dd6120a4565b500690565b6001600160a01b038581168252841660208201526040810183905260806060820181905260009061211590830184611b4b565b9695505050505050565b60006020828403121561213157600080fd5b815161119681611aec565b634e487b7160e01b600052603160045260246000fdfe4d6574615472616e73616374696f6e2875696e74323536206e6f6e63652c616464726573732066726f6d2c62797465732066756e6374696f6e5369676e617475726529687474703a2f2f35322e3232312e36342e3232383a353030302f6170692f63726561747572652f687474703a2f2f35322e3232312e36342e3232383a353030302f636f6e74726163742f73776964646c652d6f67666c617473a26469706673582212202023b6e020b145963a28a2ad6a1477847e7e1572b6216c88c636bf76acc3f36c64736f6c634300080a0033454950373132446f6d61696e28737472696e67206e616d652c737472696e672076657273696f6e2c6164647265737320766572696679696e67436f6e74726163742c627974657333322073616c7429",
  "immutableReferences": {},
  "source": "// SPDX-License-Identifier: MIT\n\npragma solidity ^0.8.0;\n\nimport \"./ERC721Tradable.sol\";\n\n/**\n * @title OGFlat\n * OGFlat - a contract for my non-fungible creatures.\n */\ncontract OGFlat is ERC721Tradable {\n    constructor(address _proxyRegistryAddress)\n        ERC721Tradable(\"Swiddle\", \"SWD\", _proxyRegistryAddress)\n    {}\n\n    function baseTokenURI() override public pure returns (string memory) {\n        return \"http://52.221.64.228:5000/api/creature/\";\n    }\n\n    function contractURI() public pure returns (string memory) {\n        return \"http://52.221.64.228:5000/contract/swiddle-ogflats\";\n    }\n}\n",
  "sourcePath": "/Users/ashwin/Documents/github/creatureFactorySample/contracts/OGFlat.sol",
  "compiler": {
    "name": "solc",
    "version": "0.8.10+commit.fc410830.Emscripten.clang"
  },
  "schemaVersion": "3.4.3",
  "updatedAt": "2021-11-24T05:47:44.255Z",
  "networkType": "ethereum",
  "devdoc": {
    "kind": "dev",
    "methods": {
      "approve(address,uint256)": {
        "details": "See {IERC721-approve}."
      },
      "balanceOf(address)": {
        "details": "See {IERC721-balanceOf}."
      },
      "getApproved(uint256)": {
        "details": "See {IERC721-getApproved}."
      },
      "mintTo(address)": {
        "details": "Mints a token to an address with a tokenURI.",
        "params": {
          "_to": "address of the future owner of the token"
        }
      },
      "name()": {
        "details": "See {IERC721Metadata-name}."
      },
      "owner()": {
        "details": "Returns the address of the current owner."
      },
      "ownerOf(uint256)": {
        "details": "See {IERC721-ownerOf}."
      },
      "renounceOwnership()": {
        "details": "Leaves the contract without owner. It will not be possible to call `onlyOwner` functions anymore. Can only be called by the current owner. NOTE: Renouncing ownership will leave the contract without an owner, thereby removing any functionality that is only available to the owner."
      },
      "safeTransferFrom(address,address,uint256)": {
        "details": "See {IERC721-safeTransferFrom}."
      },
      "safeTransferFrom(address,address,uint256,bytes)": {
        "details": "See {IERC721-safeTransferFrom}."
      },
      "setApprovalForAll(address,bool)": {
        "details": "See {IERC721-setApprovalForAll}."
      },
      "supportsInterface(bytes4)": {
        "details": "See {IERC165-supportsInterface}."
      },
      "symbol()": {
        "details": "See {IERC721Metadata-symbol}."
      },
      "tokenByIndex(uint256)": {
        "details": "See {IERC721Enumerable-tokenByIndex}."
      },
      "tokenOfOwnerByIndex(address,uint256)": {
        "details": "See {IERC721Enumerable-tokenOfOwnerByIndex}."
      },
      "totalSupply()": {
        "details": "See {IERC721Enumerable-totalSupply}."
      },
      "transferFrom(address,address,uint256)": {
        "details": "See {IERC721-transferFrom}."
      },
      "transferOwnership(address)": {
        "details": "Transfers ownership of the contract to a new account (`newOwner`). Can only be called by the current owner."
      }
    },
    "title": "OGFlat OGFlat - a contract for my non-fungible creatures.",
    "version": 1
  },
  "userdoc": {
    "kind": "user",
    "methods": {
      "isApprovedForAll(address,address)": {
        "notice": "Override isApprovedForAll to whitelist user's OpenSea proxy accounts to enable gas-less listings."
      }
    },
    "version": 1
  }
}