{
  "contractName": "OGFlatFactory",
  "abi": [
    {
      "inputs": [
        {
          "internalType": "address",
          "name": "_proxyRegistryAddress",
          "type": "address"
        },
        {
          "internalType": "address",
          "name": "_nftAddress",
          "type": "address"
        }
      ],
      "stateMutability": "nonpayable",
      "type": "constructor"
    },
    {
      "anonymous": false,
      "inputs": [
        {
          "indexed": true,
          "internalType": "address",
          "name": "previousOwner",
          "type": "address"
        },
        {
          "indexed": true,
          "internalType": "address",
          "name": "newOwner",
          "type": "address"
        }
      ],
      "name": "OwnershipTransferred",
      "type": "event"
    },
    {
      "anonymous": false,
      "inputs": [
        {
          "indexed": true,
          "internalType": "address",
          "name": "from",
          "type": "address"
        },
        {
          "indexed": true,
          "internalType": "address",
          "name": "to",
          "type": "address"
        },
        {
          "indexed": true,
          "internalType": "uint256",
          "name": "tokenId",
          "type": "uint256"
        }
      ],
      "name": "Transfer",
      "type": "event"
    },
    {
      "inputs": [],
      "name": "baseURI",
      "outputs": [
        {
          "internalType": "string",
          "name": "",
          "type": "string"
        }
      ],
      "stateMutability": "view",
      "type": "function",
      "constant": true
    },
    {
      "inputs": [],
      "name": "foundationAddress",
      "outputs": [
        {
          "internalType": "address",
          "name": "",
          "type": "address"
        }
      ],
      "stateMutability": "view",
      "type": "function",
      "constant": true
    },
    {
      "inputs": [],
      "name": "lootBoxNftAddress",
      "outputs": [
        {
          "internalType": "address",
          "name": "",
          "type": "address"
        }
      ],
      "stateMutability": "view",
      "type": "function",
      "constant": true
    },
    {
      "inputs": [],
      "name": "nftAddress",
      "outputs": [
        {
          "internalType": "address",
          "name": "",
          "type": "address"
        }
      ],
      "stateMutability": "view",
      "type": "function",
      "constant": true
    },
    {
      "inputs": [],
      "name": "owner",
      "outputs": [
        {
          "internalType": "address",
          "name": "",
          "type": "address"
        }
      ],
      "stateMutability": "view",
      "type": "function",
      "constant": true
    },
    {
      "inputs": [],
      "name": "proxyRegistryAddress",
      "outputs": [
        {
          "internalType": "address",
          "name": "",
          "type": "address"
        }
      ],
      "stateMutability": "view",
      "type": "function",
      "constant": true
    },
    {
      "inputs": [],
      "name": "renounceOwnership",
      "outputs": [],
      "stateMutability": "nonpayable",
      "type": "function"
    },
    {
      "inputs": [],
      "name": "name",
      "outputs": [
        {
          "internalType": "string",
          "name": "",
          "type": "string"
        }
      ],
      "stateMutability": "pure",
      "type": "function",
      "constant": true
    },
    {
      "inputs": [],
      "name": "symbol",
      "outputs": [
        {
          "internalType": "string",
          "name": "",
          "type": "string"
        }
      ],
      "stateMutability": "pure",
      "type": "function",
      "constant": true
    },
    {
      "inputs": [],
      "name": "totalSupply",
      "outputs": [
        {
          "internalType": "uint256",
          "name": "",
          "type": "uint256"
        }
      ],
      "stateMutability": "view",
      "type": "function",
      "constant": true
    },
    {
      "inputs": [],
      "name": "supportsFactoryInterface",
      "outputs": [
        {
          "internalType": "bool",
          "name": "",
          "type": "bool"
        }
      ],
      "stateMutability": "pure",
      "type": "function",
      "constant": true
    },
    {
      "inputs": [],
      "name": "numOptions",
      "outputs": [
        {
          "internalType": "uint256",
          "name": "",
          "type": "uint256"
        }
      ],
      "stateMutability": "view",
      "type": "function",
      "constant": true
    },
    {
      "inputs": [
        {
          "internalType": "address",
          "name": "newOwner",
          "type": "address"
        }
      ],
      "name": "transferOwnership",
      "outputs": [],
      "stateMutability": "nonpayable",
      "type": "function"
    },
    {
      "inputs": [
        {
          "internalType": "uint256",
          "name": "_optionId",
          "type": "uint256"
        },
        {
          "internalType": "address",
          "name": "_toAddress",
          "type": "address"
        }
      ],
      "name": "mint",
      "outputs": [],
      "stateMutability": "payable",
      "type": "function",
      "payable": true
    },
    {
      "inputs": [],
      "name": "canMint",
      "outputs": [
        {
          "internalType": "bool",
          "name": "",
          "type": "bool"
        }
      ],
      "stateMutability": "view",
      "type": "function",
      "constant": true
    },
    {
      "inputs": [
        {
          "internalType": "uint256",
          "name": "_optionId",
          "type": "uint256"
        }
      ],
      "name": "tokenURI",
      "outputs": [
        {
          "internalType": "string",
          "name": "",
          "type": "string"
        }
      ],
      "stateMutability": "view",
      "type": "function",
      "constant": true
    },
    {
      "inputs": [
        {
          "internalType": "address",
          "name": "_from",
          "type": "address"
        },
        {
          "internalType": "address",
          "name": "_to",
          "type": "address"
        },
        {
          "internalType": "uint256",
          "name": "_tokenId",
          "type": "uint256"
        }
      ],
      "name": "transferFrom",
      "outputs": [],
      "stateMutability": "nonpayable",
      "type": "function"
    },
    {
      "inputs": [
        {
          "internalType": "address",
          "name": "_owner",
          "type": "address"
        },
        {
          "internalType": "address",
          "name": "_operator",
          "type": "address"
        }
      ],
      "name": "isApprovedForAll",
      "outputs": [
        {
          "internalType": "bool",
          "name": "",
          "type": "bool"
        }
      ],
      "stateMutability": "view",
      "type": "function",
      "constant": true
    },
    {
      "inputs": [
        {
          "internalType": "uint256",
          "name": "_tokenId",
          "type": "uint256"
        }
      ],
      "name": "ownerOf",
      "outputs": [
        {
          "internalType": "address",
          "name": "_owner",
          "type": "address"
        }
      ],
      "stateMutability": "view",
      "type": "function",
      "constant": true
    }
  ],
  "bytecode": "0x60e06040526026608081815290620011b660a0398051620000299160049160209091019062000182565b50609660055560036006556000600755600160085560026009556004600a553480156200005557600080fd5b50604051620011dc380380620011dc833981016040819052620000789162000245565b6200008333620000c9565b600180546001600160a01b038481166001600160a01b03199283161790925560028054848416921691909117905560008054620000c1921662000119565b5050620002e4565b600080546001600160a01b038381166001600160a01b0319831681178455604051919092169283917f8be0079c531659141344cd1fd0a4f28419497f9722a3daafe3b4186f6b6457e09190a35050565b60005b6006548110156200017d5780826001600160a01b0316846001600160a01b03167fddf252ad1be2c89b69c2b068fc378daa952ba7f163c4a11628f55a4df523b3ef60405160405180910390a48062000174816200027d565b9150506200011c565b505050565b8280546200019090620002a7565b90600052602060002090601f016020900481019282620001b45760008555620001ff565b82601f10620001cf57805160ff1916838001178555620001ff565b82800160010185558215620001ff579182015b82811115620001ff578251825591602001919060010190620001e2565b506200020d92915062000211565b5090565b5b808211156200020d576000815560010162000212565b80516001600160a01b03811681146200024057600080fd5b919050565b600080604083850312156200025957600080fd5b620002648362000228565b9150620002746020840162000228565b90509250929050565b6000600019821415620002a057634e487b7160e01b600052601160045260246000fd5b5060010190565b600181811c90821680620002bc57607f821691505b60208210811415620002de57634e487b7160e01b600052602260045260246000fd5b50919050565b610ec280620002f46000396000f3fe6080604052600436106100e45760003560e01c806306fdde03146100e957806318160ddd1461012b57806323b872dd1461014a5780634b97aed91461016c5780635bf8633a146101815780636352211e146101ae5780636c0360eb146101ce578063715018a6146101e35780638da5cb5b146101f857806394bf804d1461020d57806395d89b4114610220578063beb9716d1461024c578063c311c52314610271578063c87b56dd14610285578063cd7c0326146102a5578063e985e9c5146102c5578063ec07d02e146102e5578063f2fde38b14610305578063fcf07c6b14610325575b600080fd5b3480156100f557600080fd5b5060408051808201909152600781526653776964646c6560c81b60208201525b6040516101229190610b0b565b60405180910390f35b34801561013757600080fd5b506127105b604051908152602001610122565b34801561015657600080fd5b5061016a610165366004610b53565b61034d565b005b34801561017857600080fd5b5060065461013c565b34801561018d57600080fd5b506002546101a1906001600160a01b031681565b6040516101229190610b94565b3480156101ba57600080fd5b506101a16101c9366004610ba8565b61035c565b3480156101da57600080fd5b5061011561036c565b3480156101ef57600080fd5b5061016a6103fa565b34801561020457600080fd5b506101a161043e565b61016a61021b366004610bc1565b61044d565b34801561022c57600080fd5b5060408051808201909152600381526214d5d160ea1b6020820152610115565b34801561025857600080fd5b50610261610627565b6040519015158152602001610122565b34801561027d57600080fd5b506001610261565b34801561029157600080fd5b506101156102a0366004610ba8565b6106b1565b3480156102b157600080fd5b506001546101a1906001600160a01b031681565b3480156102d157600080fd5b506102616102e0366004610bf1565b6106e5565b3480156102f157600080fd5b506003546101a1906001600160a01b031681565b34801561031157600080fd5b5061016a610320366004610c1f565b6107f2565b34801561033157600080fd5b506101a173a37dbfba2f086187699d78d17ec0750462bd054981565b610357818361044d565b505050565b600061036661043e565b92915050565b6004805461037990610c43565b80601f01602080910402602001604051908101604052809291908181526020018280546103a590610c43565b80156103f25780601f106103c7576101008083540402835291602001916103f2565b820191906000526020600020905b8154815290600101906020018083116103d557829003601f168201915b505050505081565b3361040361043e565b6001600160a01b0316146104325760405162461bcd60e51b815260040161042990610c7e565b60405180910390fd5b61043c6000610844565b565b6000546001600160a01b031690565b6001546001600160a01b0316338163c455279161046861043e565b6040518263ffffffff1660e01b81526004016104849190610b94565b602060405180830381865afa1580156104a1573d6000803e3d6000fd5b505050506040513d601f19601f820116820180604052508101906104c59190610cb3565b6001600160a01b031614806104e95750336104de61043e565b6001600160a01b0316145b8061050757506003546001600160a01b0316336001600160a01b0316145b61051357610513610cd0565b61051b610627565b61055c5760405162461bcd60e51b815260206004820152601260248201527113585e081cdd5c1c1b1e481c995858da195960721b6044820152606401610429565b67026db992a3b180003410156105b45760405162461bcd60e51b815260206004820152601d60248201527f302e3137352065746820697320726571756972656420746f206d696e740000006044820152606401610429565b6105bd34610894565b60025460405163755edd1760e01b81526001600160a01b0390911690819063755edd17906105ef908690600401610b94565b600060405180830381600087803b15801561060957600080fd5b505af115801561061d573d6000803e3d6000fd5b5050505050505050565b600254604080516318160ddd60e01b815290516000926001600160a01b031691839183916318160ddd9160048083019260209291908290030181865afa158015610675573d6000803e3d6000fd5b505050506040513d601f19601f820116820180604052508101906106999190610ce6565b905060016005546106aa9190610d15565b1192915050565b606060046106be836108d5565b6040516020016106cf929190610d48565b6040516020818303038152906040529050919050565b6000826001600160a01b03166106f961043e565b6001600160a01b03161480156107205750816001600160a01b0316836001600160a01b0316145b1561072d57506001610366565b6001546001600160a01b0390811690841661074661043e565b6001600160a01b03161480156107d95750826001600160a01b0316816001600160a01b031663c4552791866040518263ffffffff1660e01b815260040161078d9190610b94565b602060405180830381865afa1580156107aa573d6000803e3d6000fd5b505050506040513d601f19601f820116820180604052508101906107ce9190610cb3565b6001600160a01b0316145b156107e8576001915050610366565b5060009392505050565b336107fb61043e565b6001600160a01b0316146108215760405162461bcd60e51b815260040161042990610c7e565b600061082b61043e565b9050610836826109db565b6108408183610a7b565b5050565b600080546001600160a01b038381166001600160a01b0319831681178455604051919092169283917f8be0079c531659141344cd1fd0a4f28419497f9722a3daafe3b4186f6b6457e09190a35050565b60405173a37dbfba2f086187699d78d17ec0750462bd05499082156108fc029083906000818181858888f19350505050158015610840573d6000803e3d6000fd5b6060816108f95750506040805180820190915260018152600360fc1b602082015290565b8160005b8115610923578061090d81610def565b915061091c9050600a83610e20565b91506108fd565b60008167ffffffffffffffff81111561093e5761093e610e34565b6040519080825280601f01601f191660200182016040528015610968576020820181803683370190505b5090505b84156109d35761097d600183610d15565b915061098a600a86610e4a565b610995906030610e5e565b60f81b8183815181106109aa576109aa610e76565b60200101906001600160f81b031916908160001a9053506109cc600a86610e20565b945061096c565b949350505050565b336109e461043e565b6001600160a01b031614610a0a5760405162461bcd60e51b815260040161042990610c7e565b6001600160a01b038116610a6f5760405162461bcd60e51b815260206004820152602660248201527f4f776e61626c653a206e6577206f776e657220697320746865207a65726f206160448201526564647265737360d01b6064820152608401610429565b610a7881610844565b50565b60005b6006548110156103575780826001600160a01b0316846001600160a01b03167fddf252ad1be2c89b69c2b068fc378daa952ba7f163c4a11628f55a4df523b3ef60405160405180910390a480610ad381610def565b915050610a7e565b60005b83811015610af6578181015183820152602001610ade565b83811115610b05576000848401525b50505050565b6020815260008251806020840152610b2a816040850160208701610adb565b601f01601f19169190910160400192915050565b6001600160a01b0381168114610a7857600080fd5b600080600060608486031215610b6857600080fd5b8335610b7381610b3e565b92506020840135610b8381610b3e565b929592945050506040919091013590565b6001600160a01b0391909116815260200190565b600060208284031215610bba57600080fd5b5035919050565b60008060408385031215610bd457600080fd5b823591506020830135610be681610b3e565b809150509250929050565b60008060408385031215610c0457600080fd5b8235610c0f81610b3e565b91506020830135610be681610b3e565b600060208284031215610c3157600080fd5b8135610c3c81610b3e565b9392505050565b600181811c90821680610c5757607f821691505b60208210811415610c7857634e487b7160e01b600052602260045260246000fd5b50919050565b6020808252818101527f4f776e61626c653a2063616c6c6572206973206e6f7420746865206f776e6572604082015260600190565b600060208284031215610cc557600080fd5b8151610c3c81610b3e565b634e487b7160e01b600052600160045260246000fd5b600060208284031215610cf857600080fd5b5051919050565b634e487b7160e01b600052601160045260246000fd5b600082821015610d2757610d27610cff565b500390565b60008151610d3e818560208601610adb565b9290920192915050565b600080845481600182811c915080831680610d6457607f831692505b6020808410821415610d8457634e487b7160e01b86526022600452602486fd5b818015610d985760018114610da957610dd6565b60ff19861689528489019650610dd6565b60008b81526020902060005b86811015610dce5781548b820152908501908301610db5565b505084890196505b505050505050610de68185610d2c565b95945050505050565b6000600019821415610e0357610e03610cff565b5060010190565b634e487b7160e01b600052601260045260246000fd5b600082610e2f57610e2f610e0a565b500490565b634e487b7160e01b600052604160045260246000fd5b600082610e5957610e59610e0a565b500690565b60008219821115610e7157610e71610cff565b500190565b634e487b7160e01b600052603260045260246000fdfea2646970667358221220a03f7ce09efd679f24346ecf21882d9cc76b7b5d91ae28f11d2c7ae629edc21f64736f6c634300080a0033687474703a2f2f35322e3232312e36342e3232383a353030302f6170692f666163746f72792f",
  "immutableReferences": {},
  "source": "// SPDX-License-Identifier: MIT\n\npragma solidity ^0.8.0;\n\nimport \"openzeppelin-solidity/contracts/access/Ownable.sol\";\nimport \"openzeppelin-solidity/contracts/utils/Strings.sol\";\nimport \"./IFactoryERC721.sol\";\nimport \"./OGFlat.sol\";\n\ncontract OGFlatFactory is FactoryERC721, Ownable {\n    using Strings for string;\n\n    event Transfer(\n        address indexed from,\n        address indexed to,\n        uint256 indexed tokenId\n    );\n\n    address public proxyRegistryAddress;\n    address public nftAddress;\n    address public lootBoxNftAddress;\n    address public constant foundationAddress = 0xA37DbfBa2f086187699d78d17Ec0750462bD0549;\n    string public baseURI = \"http://52.221.64.228:5000/api/factory/\";\n\n    // Maximum supply\n    uint256 FLAT_SUPPLY = 150;\n\n    /*\n     * Three different options for minting Creatures (basic, premium, and gold).\n     */\n    uint256 NUM_OPTIONS = 3;\n    uint256 SINGLE_CREATURE_OPTION = 0;\n    uint256 MULTIPLE_CREATURE_OPTION = 1;\n    uint256 LOOTBOX_OPTION = 2;\n    uint256 NUM_CREATURES_IN_MULTIPLE_CREATURE_OPTION = 4;\n\n    constructor(address _proxyRegistryAddress, address _nftAddress) {\n        proxyRegistryAddress = _proxyRegistryAddress;\n        nftAddress = _nftAddress;\n\n        fireTransferEvents(address(0), owner());\n    }\n\n    function name() override external pure returns (string memory) {\n        // return \"osOgFlats Item Sale\";\n        return \"Swiddle\";\n    }\n\n    function symbol() override external pure returns (string memory) {\n        // return \"CPF\";\n        return \"SWD\";\n    }\n\n    function totalSupply() external view returns (uint256) {\n        return 10000;\n    }\n\n    function supportsFactoryInterface() override public pure returns (bool) {\n        return true;\n    }\n\n    function numOptions() override public view returns (uint256) {\n        return NUM_OPTIONS;\n    }\n\n    function transferOwnership(address newOwner) override public onlyOwner {\n        address _prevOwner = owner();\n        super.transferOwnership(newOwner);\n        fireTransferEvents(_prevOwner, newOwner);\n    }\n\n    function fireTransferEvents(address _from, address _to) private {\n        for (uint256 i = 0; i < NUM_OPTIONS; i++) {\n            emit Transfer(_from, _to, i);\n        }\n    }\n\n    function sendToFoundation(uint256 etherValue) private {\n        payable(foundationAddress).transfer(etherValue);\n    }\n\n\n    function mint(uint256 _optionId, address _toAddress) override public payable {\n        // Must be sent from the owner proxy or owner.\n        ProxyRegistry proxyRegistry = ProxyRegistry(proxyRegistryAddress);\n        assert(\n            address(proxyRegistry.proxies(owner())) == _msgSender() ||\n                owner() == _msgSender() ||\n                _msgSender() == lootBoxNftAddress\n        );\n\n        require(canMint(), \"Max supply reached\");\n        require(msg.value >= 0.175 ether, \"0.175 eth is required to mint\");\n        sendToFoundation(msg.value);\n\n        \n        OGFlat osOgFlats = OGFlat(nftAddress);\n        osOgFlats.mintTo(_toAddress);\n    }  \n\n    function canMint() public view returns (bool) {\n        OGFlat osOgFlats = OGFlat(nftAddress);\n        uint256 creatureSupply = osOgFlats.totalSupply();\n\n        return creatureSupply < (FLAT_SUPPLY - 1);\n    }\n\n    function tokenURI(uint256 _optionId) override external view returns (string memory) {\n        return string(abi.encodePacked(baseURI, Strings.toString(_optionId)));\n    }\n\n    /**\n     * Hack to get things to work automatically on OpenSea.\n     * Use transferFrom so the frontend doesn't have to worry about different method names.\n     */\n    function transferFrom(\n        address _from,\n        address _to,\n        uint256 _tokenId\n    ) public {\n        mint(_tokenId, _to);\n    }\n\n\n    // function royaltyInfo(uint256 _tokenId, uint256 _salePrice) external view returns (\n    //     address receiver,\n    //     uint256 royaltyAmount\n    // ){\n    //     OGFlat osOgFlats = OGFlat(nftAddress);\n    //     uint256 royaltyAmount = _salePrice * 25/1000;\n    //     return (address(this), royaltyAmount);\n    // }\n\n    \n    /**\n     * Hack to get things to work automatically on OpenSea.\n     * Use isApprovedForAll so the frontend doesn't have to worry about different method names.\n     */\n    function isApprovedForAll(address _owner, address _operator)\n        public\n        view\n        returns (bool)\n    {\n        if (owner() == _owner && _owner == _operator) {\n            return true;\n        }\n\n        ProxyRegistry proxyRegistry = ProxyRegistry(proxyRegistryAddress);\n        if (\n            owner() == _owner &&\n            address(proxyRegistry.proxies(_owner)) == _operator\n        ) {\n            return true;\n        }\n\n        return false;\n    }\n    \n\n    /**\n     * Hack to get things to work automatically on OpenSea.\n     * Use isApprovedForAll so the frontend doesn't have to worry about different method names.\n     */\n    function ownerOf(uint256 _tokenId) public view returns (address _owner) {\n        return owner();\n    }\n}\n",
  "sourcePath": "/Users/ashwin/Documents/github/creatureFactorySample/contracts/OGFlatFactory.sol",
  "compiler": {
    "name": "solc",
    "version": "0.8.10+commit.fc410830.Emscripten.clang"
  },
  "schemaVersion": "3.4.3",
  "updatedAt": "2021-11-17T00:45:20.363Z",
  "networkType": "ethereum",
  "devdoc": {
    "kind": "dev",
    "methods": {
      "canMint()": {
        "details": "Returns whether the option ID can be minted. Can return false if the developer wishes to restrict a total supply per option ID (or overall)."
      },
      "mint(uint256,address)": {
        "details": "Mints asset(s) in accordance to a specific address with a particular \"option\". This should be callable only by the contract owner or the owner's Wyvern Proxy (later universal login will solve this). Options should also be delineated 0 - (numOptions() - 1) for convenient indexing.",
        "params": {
          "_optionId": "the option id",
          "_toAddress": "address of the future owner of the asset(s)"
        }
      },
      "owner()": {
        "details": "Returns the address of the current owner."
      },
      "renounceOwnership()": {
        "details": "Leaves the contract without owner. It will not be possible to call `onlyOwner` functions anymore. Can only be called by the current owner. NOTE: Renouncing ownership will leave the contract without an owner, thereby removing any functionality that is only available to the owner."
      },
      "tokenURI(uint256)": {
        "details": "Returns a URL specifying some metadata about the option. This metadata can be of the same structure as the ERC721 metadata."
      },
      "transferOwnership(address)": {
        "details": "Transfers ownership of the contract to a new account (`newOwner`). Can only be called by the current owner."
      }
    },
    "version": 1
  },
  "userdoc": {
    "kind": "user",
    "methods": {
      "isApprovedForAll(address,address)": {
        "notice": "Hack to get things to work automatically on OpenSea. Use isApprovedForAll so the frontend doesn't have to worry about different method names."
      },
      "name()": {
        "notice": "Returns the name of this factory."
      },
      "numOptions()": {
        "notice": "Number of options the factory supports."
      },
      "ownerOf(uint256)": {
        "notice": "Hack to get things to work automatically on OpenSea. Use isApprovedForAll so the frontend doesn't have to worry about different method names."
      },
      "supportsFactoryInterface()": {
        "notice": "Indicates that this is a factory contract. Ideally would use EIP 165 supportsInterface()"
      },
      "symbol()": {
        "notice": "Returns the symbol for this factory."
      },
      "transferFrom(address,address,uint256)": {
        "notice": "Hack to get things to work automatically on OpenSea. Use transferFrom so the frontend doesn't have to worry about different method names."
      }
    },
    "version": 1
  }
}