{
  "contractName": "CreatureFactory",
  "abi": [
    {
      "inputs": [
        {
          "internalType": "address",
          "name": "_proxyRegistryAddress",
          "type": "address"
        },
        {
          "internalType": "address",
          "name": "_nftAddress",
          "type": "address"
        }
      ],
      "stateMutability": "nonpayable",
      "type": "constructor"
    },
    {
      "anonymous": false,
      "inputs": [
        {
          "indexed": true,
          "internalType": "address",
          "name": "previousOwner",
          "type": "address"
        },
        {
          "indexed": true,
          "internalType": "address",
          "name": "newOwner",
          "type": "address"
        }
      ],
      "name": "OwnershipTransferred",
      "type": "event"
    },
    {
      "anonymous": false,
      "inputs": [
        {
          "indexed": true,
          "internalType": "address",
          "name": "from",
          "type": "address"
        },
        {
          "indexed": true,
          "internalType": "address",
          "name": "to",
          "type": "address"
        },
        {
          "indexed": true,
          "internalType": "uint256",
          "name": "tokenId",
          "type": "uint256"
        }
      ],
      "name": "Transfer",
      "type": "event"
    },
    {
      "inputs": [],
      "name": "baseURI",
      "outputs": [
        {
          "internalType": "string",
          "name": "",
          "type": "string"
        }
      ],
      "stateMutability": "view",
      "type": "function",
      "constant": true
    },
    {
      "inputs": [],
      "name": "lootBoxNftAddress",
      "outputs": [
        {
          "internalType": "address",
          "name": "",
          "type": "address"
        }
      ],
      "stateMutability": "view",
      "type": "function",
      "constant": true
    },
    {
      "inputs": [],
      "name": "nftAddress",
      "outputs": [
        {
          "internalType": "address",
          "name": "",
          "type": "address"
        }
      ],
      "stateMutability": "view",
      "type": "function",
      "constant": true
    },
    {
      "inputs": [],
      "name": "owner",
      "outputs": [
        {
          "internalType": "address",
          "name": "",
          "type": "address"
        }
      ],
      "stateMutability": "view",
      "type": "function",
      "constant": true
    },
    {
      "inputs": [],
      "name": "proxyRegistryAddress",
      "outputs": [
        {
          "internalType": "address",
          "name": "",
          "type": "address"
        }
      ],
      "stateMutability": "view",
      "type": "function",
      "constant": true
    },
    {
      "inputs": [],
      "name": "renounceOwnership",
      "outputs": [],
      "stateMutability": "nonpayable",
      "type": "function"
    },
    {
      "inputs": [],
      "name": "name",
      "outputs": [
        {
          "internalType": "string",
          "name": "",
          "type": "string"
        }
      ],
      "stateMutability": "pure",
      "type": "function",
      "constant": true
    },
    {
      "inputs": [],
      "name": "symbol",
      "outputs": [
        {
          "internalType": "string",
          "name": "",
          "type": "string"
        }
      ],
      "stateMutability": "pure",
      "type": "function",
      "constant": true
    },
    {
      "inputs": [],
      "name": "supportsFactoryInterface",
      "outputs": [
        {
          "internalType": "bool",
          "name": "",
          "type": "bool"
        }
      ],
      "stateMutability": "pure",
      "type": "function",
      "constant": true
    },
    {
      "inputs": [],
      "name": "numOptions",
      "outputs": [
        {
          "internalType": "uint256",
          "name": "",
          "type": "uint256"
        }
      ],
      "stateMutability": "view",
      "type": "function",
      "constant": true
    },
    {
      "inputs": [
        {
          "internalType": "address",
          "name": "newOwner",
          "type": "address"
        }
      ],
      "name": "transferOwnership",
      "outputs": [],
      "stateMutability": "nonpayable",
      "type": "function"
    },
    {
      "inputs": [
        {
          "internalType": "uint256",
          "name": "_optionId",
          "type": "uint256"
        },
        {
          "internalType": "address",
          "name": "_toAddress",
          "type": "address"
        }
      ],
      "name": "mint",
      "outputs": [],
      "stateMutability": "nonpayable",
      "type": "function"
    },
    {
      "inputs": [
        {
          "internalType": "uint256",
          "name": "_optionId",
          "type": "uint256"
        }
      ],
      "name": "canMint",
      "outputs": [
        {
          "internalType": "bool",
          "name": "",
          "type": "bool"
        }
      ],
      "stateMutability": "view",
      "type": "function",
      "constant": true
    },
    {
      "inputs": [
        {
          "internalType": "uint256",
          "name": "_optionId",
          "type": "uint256"
        }
      ],
      "name": "tokenURI",
      "outputs": [
        {
          "internalType": "string",
          "name": "",
          "type": "string"
        }
      ],
      "stateMutability": "view",
      "type": "function",
      "constant": true
    },
    {
      "inputs": [
        {
          "internalType": "address",
          "name": "_from",
          "type": "address"
        },
        {
          "internalType": "address",
          "name": "_to",
          "type": "address"
        },
        {
          "internalType": "uint256",
          "name": "_tokenId",
          "type": "uint256"
        }
      ],
      "name": "transferFrom",
      "outputs": [],
      "stateMutability": "nonpayable",
      "type": "function"
    },
    {
      "inputs": [
        {
          "internalType": "address",
          "name": "_owner",
          "type": "address"
        },
        {
          "internalType": "address",
          "name": "_operator",
          "type": "address"
        }
      ],
      "name": "isApprovedForAll",
      "outputs": [
        {
          "internalType": "bool",
          "name": "",
          "type": "bool"
        }
      ],
      "stateMutability": "view",
      "type": "function",
      "constant": true
    },
    {
      "inputs": [
        {
          "internalType": "uint256",
          "name": "_tokenId",
          "type": "uint256"
        }
      ],
      "name": "ownerOf",
      "outputs": [
        {
          "internalType": "address",
          "name": "_owner",
          "type": "address"
        }
      ],
      "stateMutability": "view",
      "type": "function",
      "constant": true
    }
  ],
  "bytecode": "0x60e060405260266080818152906200103560a0398051620000299160049160209091019062000182565b50609660055560036006556000600755600160085560026009556004600a553480156200005557600080fd5b506040516200105b3803806200105b833981016040819052620000789162000245565b6200008333620000c9565b600180546001600160a01b038481166001600160a01b03199283161790925560028054848416921691909117905560008054620000c1921662000119565b5050620002e4565b600080546001600160a01b038381166001600160a01b0319831681178455604051919092169283917f8be0079c531659141344cd1fd0a4f28419497f9722a3daafe3b4186f6b6457e09190a35050565b60005b6006548110156200017d5780826001600160a01b0316846001600160a01b03167fddf252ad1be2c89b69c2b068fc378daa952ba7f163c4a11628f55a4df523b3ef60405160405180910390a48062000174816200027d565b9150506200011c565b505050565b8280546200019090620002a7565b90600052602060002090601f016020900481019282620001b45760008555620001ff565b82601f10620001cf57805160ff1916838001178555620001ff565b82800160010185558215620001ff579182015b82811115620001ff578251825591602001919060010190620001e2565b506200020d92915062000211565b5090565b5b808211156200020d576000815560010162000212565b80516001600160a01b03811681146200024057600080fd5b919050565b600080604083850312156200025957600080fd5b620002648362000228565b9150620002746020840162000228565b90509250929050565b6000600019821415620002a057634e487b7160e01b600052601160045260246000fd5b5060010190565b600181811c90821680620002bc57607f821691505b60208210811415620002de57634e487b7160e01b600052602260045260246000fd5b50919050565b610d4180620002f46000396000f3fe608060405234801561001057600080fd5b50600436106100db5760003560e01c806306fdde03146100e057806323b872dd146101155780634b97aed91461012a5780635bf8633a1461013b5780635dd871a31461015b5780636352211e1461017e5780636c0360eb14610191578063715018a6146101995780638da5cb5b146101a157806394bf804d146101a957806395d89b41146101bc578063c311c523146101db578063c87b56dd146101e2578063cd7c0326146101f5578063e985e9c514610208578063ec07d02e1461021b578063f2fde38b1461022e575b600080fd5b60408051808201909152600781526653776964646c6560c81b60208201525b60405161010c919061098a565b60405180910390f35b6101286101233660046109d2565b610241565b005b60065460405190815260200161010c565b60025461014e906001600160a01b031681565b60405161010c9190610a13565b61016e610169366004610a27565b610250565b604051901515815260200161010c565b61014e61018c366004610a27565b610310565b6100ff610320565b6101286103ae565b61014e6103f2565b6101286101b7366004610a40565b610401565b60408051808201909152600381526214d5d160ea1b60208201526100ff565b600161016e565b6100ff6101f0366004610a27565b610566565b60015461014e906001600160a01b031681565b61016e610216366004610a70565b61059a565b60035461014e906001600160a01b031681565b61012861023c366004610a9e565b6106b6565b61024b8183610401565b505050565b6000600654821061026357506000919050565b600254604080516318160ddd60e01b815290516001600160a01b039092169160009183916318160ddd91600480820192602092909190829003018186803b1580156102ad57600080fd5b505afa1580156102c1573d6000803e3d6000fd5b505050506040513d601f19601f820116820180604052508101906102e59190610ac2565b905060006007548514156102f7575060015b806005546103059190610af1565b909110949350505050565b600061031a6103f2565b92915050565b6004805461032d90610b08565b80601f016020809104026020016040519081016040528092919081815260200182805461035990610b08565b80156103a65780601f1061037b576101008083540402835291602001916103a6565b820191906000526020600020905b81548152906001019060200180831161038957829003601f168201915b505050505081565b336103b76103f2565b6001600160a01b0316146103e65760405162461bcd60e51b81526004016103dd90610b43565b60405180910390fd5b6103f06000610708565b565b6000546001600160a01b031690565b6001546001600160a01b0316338163c455279161041c6103f2565b6040518263ffffffff1660e01b81526004016104389190610a13565b60206040518083038186803b15801561045057600080fd5b505afa158015610464573d6000803e3d6000fd5b505050506040513d601f19601f820116820180604052508101906104889190610b78565b6001600160a01b031614806104ac5750336104a16103f2565b6001600160a01b0316145b806104ca57506003546001600160a01b0316336001600160a01b0316145b6104d6576104d6610b95565b6104df83610250565b6104e857600080fd5b6002546007546001600160a01b03909116908414156105605760405163755edd1760e01b81526001600160a01b0382169063755edd179061052d908690600401610a13565b600060405180830381600087803b15801561054757600080fd5b505af115801561055b573d6000803e3d6000fd5b505050505b50505050565b6060600461057383610758565b604051602001610584929190610bc7565b6040516020818303038152906040529050919050565b6000826001600160a01b03166105ae6103f2565b6001600160a01b03161480156105d55750816001600160a01b0316836001600160a01b0316145b156105e25750600161031a565b6001546001600160a01b039081169084166105fb6103f2565b6001600160a01b031614801561069d5750826001600160a01b0316816001600160a01b031663c4552791866040518263ffffffff1660e01b81526004016106429190610a13565b60206040518083038186803b15801561065a57600080fd5b505afa15801561066e573d6000803e3d6000fd5b505050506040513d601f19601f820116820180604052508101906106929190610b78565b6001600160a01b0316145b156106ac57600191505061031a565b5060009392505050565b336106bf6103f2565b6001600160a01b0316146106e55760405162461bcd60e51b81526004016103dd90610b43565b60006106ef6103f2565b90506106fa8261085e565b61070481836108fe565b5050565b600080546001600160a01b038381166001600160a01b0319831681178455604051919092169283917f8be0079c531659141344cd1fd0a4f28419497f9722a3daafe3b4186f6b6457e09190a35050565b60608161077c5750506040805180820190915260018152600360fc1b602082015290565b8160005b81156107a6578061079081610c6e565b915061079f9050600a83610c9f565b9150610780565b60008167ffffffffffffffff8111156107c1576107c1610cb3565b6040519080825280601f01601f1916602001820160405280156107eb576020820181803683370190505b5090505b841561085657610800600183610af1565b915061080d600a86610cc9565b610818906030610cdd565b60f81b81838151811061082d5761082d610cf5565b60200101906001600160f81b031916908160001a90535061084f600a86610c9f565b94506107ef565b949350505050565b336108676103f2565b6001600160a01b03161461088d5760405162461bcd60e51b81526004016103dd90610b43565b6001600160a01b0381166108f25760405162461bcd60e51b815260206004820152602660248201527f4f776e61626c653a206e6577206f776e657220697320746865207a65726f206160448201526564647265737360d01b60648201526084016103dd565b6108fb81610708565b50565b60005b60065481101561024b5780826001600160a01b0316846001600160a01b03167fddf252ad1be2c89b69c2b068fc378daa952ba7f163c4a11628f55a4df523b3ef60405160405180910390a48061095681610c6e565b915050610901565b60005b83811015610979578181015183820152602001610961565b838111156105605750506000910152565b60208152600082518060208401526109a981604085016020870161095e565b601f01601f19169190910160400192915050565b6001600160a01b03811681146108fb57600080fd5b6000806000606084860312156109e757600080fd5b83356109f2816109bd565b92506020840135610a02816109bd565b929592945050506040919091013590565b6001600160a01b0391909116815260200190565b600060208284031215610a3957600080fd5b5035919050565b60008060408385031215610a5357600080fd5b823591506020830135610a65816109bd565b809150509250929050565b60008060408385031215610a8357600080fd5b8235610a8e816109bd565b91506020830135610a65816109bd565b600060208284031215610ab057600080fd5b8135610abb816109bd565b9392505050565b600060208284031215610ad457600080fd5b5051919050565b634e487b7160e01b600052601160045260246000fd5b600082821015610b0357610b03610adb565b500390565b600181811c90821680610b1c57607f821691505b60208210811415610b3d57634e487b7160e01b600052602260045260246000fd5b50919050565b6020808252818101527f4f776e61626c653a2063616c6c6572206973206e6f7420746865206f776e6572604082015260600190565b600060208284031215610b8a57600080fd5b8151610abb816109bd565b634e487b7160e01b600052600160045260246000fd5b60008151610bbd81856020860161095e565b9290920192915050565b600080845481600182811c915080831680610be357607f831692505b6020808410821415610c0357634e487b7160e01b86526022600452602486fd5b818015610c175760018114610c2857610c55565b60ff19861689528489019650610c55565b60008b81526020902060005b86811015610c4d5781548b820152908501908301610c34565b505084890196505b505050505050610c658185610bab565b95945050505050565b6000600019821415610c8257610c82610adb565b5060010190565b634e487b7160e01b600052601260045260246000fd5b600082610cae57610cae610c89565b500490565b634e487b7160e01b600052604160045260246000fd5b600082610cd857610cd8610c89565b500690565b60008219821115610cf057610cf0610adb565b500190565b634e487b7160e01b600052603260045260246000fdfea26469706673582212201164b17829af90150709b5b312351db7400e993ff88a5291438e51303433574064736f6c63430008090033687474703a2f2f35322e3232312e36342e3232383a353030302f6170692f666163746f72792f",
  "immutableReferences": {},
  "source": "// SPDX-License-Identifier: MIT\n\npragma solidity ^0.8.0;\n\nimport \"openzeppelin-solidity/contracts/access/Ownable.sol\";\nimport \"openzeppelin-solidity/contracts/utils/Strings.sol\";\nimport \"./IFactoryERC721.sol\";\nimport \"./Creature.sol\";\n\ncontract CreatureFactory is FactoryERC721, Ownable {\n    using Strings for string;\n\n    event Transfer(\n        address indexed from,\n        address indexed to,\n        uint256 indexed tokenId\n    );\n\n    address public proxyRegistryAddress;\n    address public nftAddress;\n    address public lootBoxNftAddress;\n    string public baseURI = \"http://52.221.64.228:5000/api/factory/\";\n\n    /*\n     * Enforce the existence of only 100 OpenSea creatures.\n     */\n    uint256 CREATURE_SUPPLY = 150;\n\n    /*\n     * Three different options for minting Creatures (basic, premium, and gold).\n     */\n    uint256 NUM_OPTIONS = 3;\n    uint256 SINGLE_CREATURE_OPTION = 0;\n    uint256 MULTIPLE_CREATURE_OPTION = 1;\n    uint256 LOOTBOX_OPTION = 2;\n    uint256 NUM_CREATURES_IN_MULTIPLE_CREATURE_OPTION = 4;\n\n    constructor(address _proxyRegistryAddress, address _nftAddress) {\n        proxyRegistryAddress = _proxyRegistryAddress;\n        nftAddress = _nftAddress;\n        // lootBoxNftAddress = address(\n        //     new CreatureLootBox(_proxyRegistryAddress, address(this))\n        // );\n\n        fireTransferEvents(address(0), owner());\n    }\n\n    function name() override external pure returns (string memory) {\n        // return \"OpenSeaCreature Item Sale\";\n        return \"Swiddle\";\n    }\n\n    function symbol() override external pure returns (string memory) {\n        // return \"CPF\";\n        return \"SWD\";\n    }\n\n    function supportsFactoryInterface() override public pure returns (bool) {\n        return true;\n    }\n\n    function numOptions() override public view returns (uint256) {\n        return NUM_OPTIONS;\n    }\n\n    function transferOwnership(address newOwner) override public onlyOwner {\n        address _prevOwner = owner();\n        super.transferOwnership(newOwner);\n        fireTransferEvents(_prevOwner, newOwner);\n    }\n\n    function fireTransferEvents(address _from, address _to) private {\n        for (uint256 i = 0; i < NUM_OPTIONS; i++) {\n            emit Transfer(_from, _to, i);\n        }\n    }\n\n    function mint(uint256 _optionId, address _toAddress) override public {\n        // Must be sent from the owner proxy or owner.\n        ProxyRegistry proxyRegistry = ProxyRegistry(proxyRegistryAddress);\n        assert(\n            address(proxyRegistry.proxies(owner())) == _msgSender() ||\n                owner() == _msgSender() ||\n                _msgSender() == lootBoxNftAddress\n        );\n        require(canMint(_optionId));\n\n        Creature openSeaCreature = Creature(nftAddress);\n        if (_optionId == SINGLE_CREATURE_OPTION) {\n            openSeaCreature.mintTo(_toAddress);\n        }\n        // } else if (_optionId == MULTIPLE_CREATURE_OPTION) {\n        //     for (\n        //         uint256 i = 0;\n        //         i < NUM_CREATURES_IN_MULTIPLE_CREATURE_OPTION;\n        //         i++\n        //     ) {\n        //         openSeaCreature.mintTo(_toAddress);\n        //     }\n        // } else if (_optionId == LOOTBOX_OPTION) {\n        //     CreatureLootBox openSeaCreatureLootBox = CreatureLootBox(\n        //         lootBoxNftAddress\n        //     );\n        //     openSeaCreatureLootBox.mintTo(_toAddress);\n        // }\n    }\n\n    function canMint(uint256 _optionId) override public view returns (bool) {\n        if (_optionId >= NUM_OPTIONS) {\n            return false;\n        }\n\n        Creature openSeaCreature = Creature(nftAddress);\n        uint256 creatureSupply = openSeaCreature.totalSupply();\n\n        uint256 numItemsAllocated = 0;\n        if (_optionId == SINGLE_CREATURE_OPTION) {\n            numItemsAllocated = 1;\n        } \n        // } else if (_optionId == MULTIPLE_CREATURE_OPTION) {\n        //     numItemsAllocated = NUM_CREATURES_IN_MULTIPLE_CREATURE_OPTION;\n        // } else if (_optionId == LOOTBOX_OPTION) {\n        //     CreatureLootBox openSeaCreatureLootBox = CreatureLootBox(\n        //         lootBoxNftAddress\n        //     );\n        //     numItemsAllocated = openSeaCreatureLootBox.itemsPerLootbox();\n        // }\n        return creatureSupply < (CREATURE_SUPPLY - numItemsAllocated);\n    }\n\n    function tokenURI(uint256 _optionId) override external view returns (string memory) {\n        return string(abi.encodePacked(baseURI, Strings.toString(_optionId)));\n    }\n\n    /**\n     * Hack to get things to work automatically on OpenSea.\n     * Use transferFrom so the frontend doesn't have to worry about different method names.\n     */\n    function transferFrom(\n        address _from,\n        address _to,\n        uint256 _tokenId\n    ) public {\n        mint(_tokenId, _to);\n    }\n\n    /**\n     * Hack to get things to work automatically on OpenSea.\n     * Use isApprovedForAll so the frontend doesn't have to worry about different method names.\n     */\n    function isApprovedForAll(address _owner, address _operator)\n        public\n        view\n        returns (bool)\n    {\n        if (owner() == _owner && _owner == _operator) {\n            return true;\n        }\n\n        ProxyRegistry proxyRegistry = ProxyRegistry(proxyRegistryAddress);\n        if (\n            owner() == _owner &&\n            address(proxyRegistry.proxies(_owner)) == _operator\n        ) {\n            return true;\n        }\n\n        return false;\n    }\n\n    /**\n     * Hack to get things to work automatically on OpenSea.\n     * Use isApprovedForAll so the frontend doesn't have to worry about different method names.\n     */\n    function ownerOf(uint256 _tokenId) public view returns (address _owner) {\n        return owner();\n    }\n}\n",
  "sourcePath": "/Users/ashwin/Documents/github/creatureFactorySample/contracts/CreatureFactory.sol",
  "compiler": {
    "name": "solc",
    "version": "0.8.9+commit.e5eed63a.Emscripten.clang"
  },
  "schemaVersion": "3.4.3",
  "updatedAt": "2021-11-06T21:29:17.890Z",
  "networkType": "ethereum",
  "devdoc": {
    "kind": "dev",
    "methods": {
      "canMint(uint256)": {
        "details": "Returns whether the option ID can be minted. Can return false if the developer wishes to restrict a total supply per option ID (or overall)."
      },
      "mint(uint256,address)": {
        "details": "Mints asset(s) in accordance to a specific address with a particular \"option\". This should be callable only by the contract owner or the owner's Wyvern Proxy (later universal login will solve this). Options should also be delineated 0 - (numOptions() - 1) for convenient indexing.",
        "params": {
          "_optionId": "the option id",
          "_toAddress": "address of the future owner of the asset(s)"
        }
      },
      "owner()": {
        "details": "Returns the address of the current owner."
      },
      "renounceOwnership()": {
        "details": "Leaves the contract without owner. It will not be possible to call `onlyOwner` functions anymore. Can only be called by the current owner. NOTE: Renouncing ownership will leave the contract without an owner, thereby removing any functionality that is only available to the owner."
      },
      "tokenURI(uint256)": {
        "details": "Returns a URL specifying some metadata about the option. This metadata can be of the same structure as the ERC721 metadata."
      },
      "transferOwnership(address)": {
        "details": "Transfers ownership of the contract to a new account (`newOwner`). Can only be called by the current owner."
      }
    },
    "version": 1
  },
  "userdoc": {
    "kind": "user",
    "methods": {
      "isApprovedForAll(address,address)": {
        "notice": "Hack to get things to work automatically on OpenSea. Use isApprovedForAll so the frontend doesn't have to worry about different method names."
      },
      "name()": {
        "notice": "Returns the name of this factory."
      },
      "numOptions()": {
        "notice": "Number of options the factory supports."
      },
      "ownerOf(uint256)": {
        "notice": "Hack to get things to work automatically on OpenSea. Use isApprovedForAll so the frontend doesn't have to worry about different method names."
      },
      "supportsFactoryInterface()": {
        "notice": "Indicates that this is a factory contract. Ideally would use EIP 165 supportsInterface()"
      },
      "symbol()": {
        "notice": "Returns the symbol for this factory."
      },
      "transferFrom(address,address,uint256)": {
        "notice": "Hack to get things to work automatically on OpenSea. Use transferFrom so the frontend doesn't have to worry about different method names."
      }
    },
    "version": 1
  }
}