{
  "contractName": "CreatureFactory",
  "abi": [
    {
      "inputs": [
        {
          "internalType": "address",
          "name": "_proxyRegistryAddress",
          "type": "address"
        },
        {
          "internalType": "address",
          "name": "_nftAddress",
          "type": "address"
        }
      ],
      "stateMutability": "nonpayable",
      "type": "constructor"
    },
    {
      "anonymous": false,
      "inputs": [
        {
          "indexed": true,
          "internalType": "address",
          "name": "previousOwner",
          "type": "address"
        },
        {
          "indexed": true,
          "internalType": "address",
          "name": "newOwner",
          "type": "address"
        }
      ],
      "name": "OwnershipTransferred",
      "type": "event"
    },
    {
      "anonymous": false,
      "inputs": [
        {
          "indexed": true,
          "internalType": "address",
          "name": "from",
          "type": "address"
        },
        {
          "indexed": true,
          "internalType": "address",
          "name": "to",
          "type": "address"
        },
        {
          "indexed": true,
          "internalType": "uint256",
          "name": "tokenId",
          "type": "uint256"
        }
      ],
      "name": "Transfer",
      "type": "event"
    },
    {
      "inputs": [],
      "name": "baseURI",
      "outputs": [
        {
          "internalType": "string",
          "name": "",
          "type": "string"
        }
      ],
      "stateMutability": "view",
      "type": "function",
      "constant": true
    },
    {
      "inputs": [],
      "name": "lootBoxNftAddress",
      "outputs": [
        {
          "internalType": "address",
          "name": "",
          "type": "address"
        }
      ],
      "stateMutability": "view",
      "type": "function",
      "constant": true
    },
    {
      "inputs": [],
      "name": "nftAddress",
      "outputs": [
        {
          "internalType": "address",
          "name": "",
          "type": "address"
        }
      ],
      "stateMutability": "view",
      "type": "function",
      "constant": true
    },
    {
      "inputs": [],
      "name": "owner",
      "outputs": [
        {
          "internalType": "address",
          "name": "",
          "type": "address"
        }
      ],
      "stateMutability": "view",
      "type": "function",
      "constant": true
    },
    {
      "inputs": [],
      "name": "proxyRegistryAddress",
      "outputs": [
        {
          "internalType": "address",
          "name": "",
          "type": "address"
        }
      ],
      "stateMutability": "view",
      "type": "function",
      "constant": true
    },
    {
      "inputs": [],
      "name": "renounceOwnership",
      "outputs": [],
      "stateMutability": "nonpayable",
      "type": "function"
    },
    {
      "inputs": [],
      "name": "name",
      "outputs": [
        {
          "internalType": "string",
          "name": "",
          "type": "string"
        }
      ],
      "stateMutability": "pure",
      "type": "function",
      "constant": true
    },
    {
      "inputs": [],
      "name": "symbol",
      "outputs": [
        {
          "internalType": "string",
          "name": "",
          "type": "string"
        }
      ],
      "stateMutability": "pure",
      "type": "function",
      "constant": true
    },
    {
      "inputs": [],
      "name": "supportsFactoryInterface",
      "outputs": [
        {
          "internalType": "bool",
          "name": "",
          "type": "bool"
        }
      ],
      "stateMutability": "pure",
      "type": "function",
      "constant": true
    },
    {
      "inputs": [],
      "name": "numOptions",
      "outputs": [
        {
          "internalType": "uint256",
          "name": "",
          "type": "uint256"
        }
      ],
      "stateMutability": "view",
      "type": "function",
      "constant": true
    },
    {
      "inputs": [
        {
          "internalType": "address",
          "name": "newOwner",
          "type": "address"
        }
      ],
      "name": "transferOwnership",
      "outputs": [],
      "stateMutability": "nonpayable",
      "type": "function"
    },
    {
      "inputs": [
        {
          "internalType": "uint256",
          "name": "_optionId",
          "type": "uint256"
        },
        {
          "internalType": "address",
          "name": "_toAddress",
          "type": "address"
        }
      ],
      "name": "mint",
      "outputs": [],
      "stateMutability": "payable",
      "type": "function",
      "payable": true
    },
    {
      "inputs": [
        {
          "internalType": "uint256",
          "name": "_optionId",
          "type": "uint256"
        }
      ],
      "name": "canMint",
      "outputs": [
        {
          "internalType": "bool",
          "name": "",
          "type": "bool"
        }
      ],
      "stateMutability": "view",
      "type": "function",
      "constant": true
    },
    {
      "inputs": [
        {
          "internalType": "uint256",
          "name": "_optionId",
          "type": "uint256"
        }
      ],
      "name": "tokenURI",
      "outputs": [
        {
          "internalType": "string",
          "name": "",
          "type": "string"
        }
      ],
      "stateMutability": "view",
      "type": "function",
      "constant": true
    },
    {
      "inputs": [
        {
          "internalType": "address",
          "name": "_from",
          "type": "address"
        },
        {
          "internalType": "address",
          "name": "_to",
          "type": "address"
        },
        {
          "internalType": "uint256",
          "name": "_tokenId",
          "type": "uint256"
        }
      ],
      "name": "transferFrom",
      "outputs": [],
      "stateMutability": "nonpayable",
      "type": "function"
    },
    {
      "inputs": [
        {
          "internalType": "address",
          "name": "_owner",
          "type": "address"
        },
        {
          "internalType": "address",
          "name": "_operator",
          "type": "address"
        }
      ],
      "name": "isApprovedForAll",
      "outputs": [
        {
          "internalType": "bool",
          "name": "",
          "type": "bool"
        }
      ],
      "stateMutability": "view",
      "type": "function",
      "constant": true
    },
    {
      "inputs": [
        {
          "internalType": "uint256",
          "name": "_tokenId",
          "type": "uint256"
        }
      ],
      "name": "ownerOf",
      "outputs": [
        {
          "internalType": "address",
          "name": "_owner",
          "type": "address"
        }
      ],
      "stateMutability": "view",
      "type": "function",
      "constant": true
    }
  ],
  "bytecode": "0x60e060405260266080818152906200112c60a0398051620000299160049160209091019062000182565b50609660055560036006556000600755600160085560026009556004600a553480156200005557600080fd5b506040516200115238038062001152833981016040819052620000789162000245565b6200008333620000c9565b600180546001600160a01b038481166001600160a01b03199283161790925560028054848416921691909117905560008054620000c1921662000119565b5050620002e4565b600080546001600160a01b038381166001600160a01b0319831681178455604051919092169283917f8be0079c531659141344cd1fd0a4f28419497f9722a3daafe3b4186f6b6457e09190a35050565b60005b6006548110156200017d5780826001600160a01b0316846001600160a01b03167fddf252ad1be2c89b69c2b068fc378daa952ba7f163c4a11628f55a4df523b3ef60405160405180910390a48062000174816200027d565b9150506200011c565b505050565b8280546200019090620002a7565b90600052602060002090601f016020900481019282620001b45760008555620001ff565b82601f10620001cf57805160ff1916838001178555620001ff565b82800160010185558215620001ff579182015b82811115620001ff578251825591602001919060010190620001e2565b506200020d92915062000211565b5090565b5b808211156200020d576000815560010162000212565b80516001600160a01b03811681146200024057600080fd5b919050565b600080604083850312156200025957600080fd5b620002648362000228565b9150620002746020840162000228565b90509250929050565b6000600019821415620002a057634e487b7160e01b600052601160045260246000fd5b5060010190565b600181811c90821680620002bc57607f821691505b60208210811415620002de57634e487b7160e01b600052602260045260246000fd5b50919050565b610e3880620002f46000396000f3fe6080604052600436106100ce5760003560e01c806306fdde03146100d357806323b872dd146101155780634b97aed9146101375780635bf8633a146101555780635dd871a3146101825780636352211e146101b25780636c0360eb146101d2578063715018a6146101e75780638da5cb5b146101fc57806394bf804d1461021157806395d89b4114610224578063c311c52314610250578063c87b56dd14610264578063cd7c032614610284578063e985e9c5146102a4578063ec07d02e146102c4578063f2fde38b146102e4575b600080fd5b3480156100df57600080fd5b5060408051808201909152600781526653776964646c6560c81b60208201525b60405161010c9190610a81565b60405180910390f35b34801561012157600080fd5b50610135610130366004610ac9565b610304565b005b34801561014357600080fd5b5060065460405190815260200161010c565b34801561016157600080fd5b50600254610175906001600160a01b031681565b60405161010c9190610b0a565b34801561018e57600080fd5b506101a261019d366004610b1e565b610313565b604051901515815260200161010c565b3480156101be57600080fd5b506101756101cd366004610b1e565b6103c4565b3480156101de57600080fd5b506100ff6103d4565b3480156101f357600080fd5b50610135610462565b34801561020857600080fd5b506101756104a6565b61013561021f366004610b37565b6104b5565b34801561023057600080fd5b5060408051808201909152600381526214d5d160ea1b60208201526100ff565b34801561025c57600080fd5b5060016101a2565b34801561027057600080fd5b506100ff61027f366004610b1e565b61066c565b34801561029057600080fd5b50600154610175906001600160a01b031681565b3480156102b057600080fd5b506101a26102bf366004610b67565b6106a0565b3480156102d057600080fd5b50600354610175906001600160a01b031681565b3480156102f057600080fd5b506101356102ff366004610b95565b6107ad565b61030e81836104b5565b505050565b6000600654821061032657506000919050565b600254604080516318160ddd60e01b815290516001600160a01b039092169160009183916318160ddd916004808201926020929091908290030181865afa158015610375573d6000803e3d6000fd5b505050506040513d601f19601f820116820180604052508101906103999190610bb9565b905060006007548514156103ab575060015b806005546103b99190610be8565b909110949350505050565b60006103ce6104a6565b92915050565b600480546103e190610bff565b80601f016020809104026020016040519081016040528092919081815260200182805461040d90610bff565b801561045a5780601f1061042f5761010080835404028352916020019161045a565b820191906000526020600020905b81548152906001019060200180831161043d57829003601f168201915b505050505081565b3361046b6104a6565b6001600160a01b03161461049a5760405162461bcd60e51b815260040161049190610c3a565b60405180910390fd5b6104a460006107ff565b565b6000546001600160a01b031690565b6001546001600160a01b0316338163c45527916104d06104a6565b6040518263ffffffff1660e01b81526004016104ec9190610b0a565b602060405180830381865afa158015610509573d6000803e3d6000fd5b505050506040513d601f19601f8201168201806040525081019061052d9190610c6f565b6001600160a01b031614806105515750336105466104a6565b6001600160a01b0316145b8061056f57506003546001600160a01b0316336001600160a01b0316145b61057b5761057b610c8c565b61058483610313565b61058d57600080fd5b66b1a2bc2ec500003410156105ee5760405162461bcd60e51b815260206004820152602160248201527f4e6f7420656e6f756768204554482073656e743a20636865636b2070726963656044820152601760f91b6064820152608401610491565b6002546007546001600160a01b03909116908414156106665760405163755edd1760e01b81526001600160a01b0382169063755edd1790610633908690600401610b0a565b600060405180830381600087803b15801561064d57600080fd5b505af1158015610661573d6000803e3d6000fd5b505050505b50505050565b606060046106798361084f565b60405160200161068a929190610cbe565b6040516020818303038152906040529050919050565b6000826001600160a01b03166106b46104a6565b6001600160a01b03161480156106db5750816001600160a01b0316836001600160a01b0316145b156106e8575060016103ce565b6001546001600160a01b039081169084166107016104a6565b6001600160a01b03161480156107945750826001600160a01b0316816001600160a01b031663c4552791866040518263ffffffff1660e01b81526004016107489190610b0a565b602060405180830381865afa158015610765573d6000803e3d6000fd5b505050506040513d601f19601f820116820180604052508101906107899190610c6f565b6001600160a01b0316145b156107a35760019150506103ce565b5060009392505050565b336107b66104a6565b6001600160a01b0316146107dc5760405162461bcd60e51b815260040161049190610c3a565b60006107e66104a6565b90506107f182610955565b6107fb81836109f5565b5050565b600080546001600160a01b038381166001600160a01b0319831681178455604051919092169283917f8be0079c531659141344cd1fd0a4f28419497f9722a3daafe3b4186f6b6457e09190a35050565b6060816108735750506040805180820190915260018152600360fc1b602082015290565b8160005b811561089d578061088781610d65565b91506108969050600a83610d96565b9150610877565b60008167ffffffffffffffff8111156108b8576108b8610daa565b6040519080825280601f01601f1916602001820160405280156108e2576020820181803683370190505b5090505b841561094d576108f7600183610be8565b9150610904600a86610dc0565b61090f906030610dd4565b60f81b81838151811061092457610924610dec565b60200101906001600160f81b031916908160001a905350610946600a86610d96565b94506108e6565b949350505050565b3361095e6104a6565b6001600160a01b0316146109845760405162461bcd60e51b815260040161049190610c3a565b6001600160a01b0381166109e95760405162461bcd60e51b815260206004820152602660248201527f4f776e61626c653a206e6577206f776e657220697320746865207a65726f206160448201526564647265737360d01b6064820152608401610491565b6109f2816107ff565b50565b60005b60065481101561030e5780826001600160a01b0316846001600160a01b03167fddf252ad1be2c89b69c2b068fc378daa952ba7f163c4a11628f55a4df523b3ef60405160405180910390a480610a4d81610d65565b9150506109f8565b60005b83811015610a70578181015183820152602001610a58565b838111156106665750506000910152565b6020815260008251806020840152610aa0816040850160208701610a55565b601f01601f19169190910160400192915050565b6001600160a01b03811681146109f257600080fd5b600080600060608486031215610ade57600080fd5b8335610ae981610ab4565b92506020840135610af981610ab4565b929592945050506040919091013590565b6001600160a01b0391909116815260200190565b600060208284031215610b3057600080fd5b5035919050565b60008060408385031215610b4a57600080fd5b823591506020830135610b5c81610ab4565b809150509250929050565b60008060408385031215610b7a57600080fd5b8235610b8581610ab4565b91506020830135610b5c81610ab4565b600060208284031215610ba757600080fd5b8135610bb281610ab4565b9392505050565b600060208284031215610bcb57600080fd5b5051919050565b634e487b7160e01b600052601160045260246000fd5b600082821015610bfa57610bfa610bd2565b500390565b600181811c90821680610c1357607f821691505b60208210811415610c3457634e487b7160e01b600052602260045260246000fd5b50919050565b6020808252818101527f4f776e61626c653a2063616c6c6572206973206e6f7420746865206f776e6572604082015260600190565b600060208284031215610c8157600080fd5b8151610bb281610ab4565b634e487b7160e01b600052600160045260246000fd5b60008151610cb4818560208601610a55565b9290920192915050565b600080845481600182811c915080831680610cda57607f831692505b6020808410821415610cfa57634e487b7160e01b86526022600452602486fd5b818015610d0e5760018114610d1f57610d4c565b60ff19861689528489019650610d4c565b60008b81526020902060005b86811015610d445781548b820152908501908301610d2b565b505084890196505b505050505050610d5c8185610ca2565b95945050505050565b6000600019821415610d7957610d79610bd2565b5060010190565b634e487b7160e01b600052601260045260246000fd5b600082610da557610da5610d80565b500490565b634e487b7160e01b600052604160045260246000fd5b600082610dcf57610dcf610d80565b500690565b60008219821115610de757610de7610bd2565b500190565b634e487b7160e01b600052603260045260246000fdfea264697066735822122004b1eaa3ae09299476c43f50fd95eb41c08073fa17b8bad9ad3d933f8ab2c19464736f6c634300080a0033687474703a2f2f35322e3232312e36342e3232383a353030302f6170692f666163746f72792f",
  "immutableReferences": {},
  "source": "// SPDX-License-Identifier: MIT\n\npragma solidity ^0.8.0;\n\nimport \"openzeppelin-solidity/contracts/access/Ownable.sol\";\nimport \"openzeppelin-solidity/contracts/utils/Strings.sol\";\nimport \"./IFactoryERC721.sol\";\nimport \"./Creature.sol\";\n\ncontract CreatureFactory is FactoryERC721, Ownable {\n    using Strings for string;\n\n    event Transfer(\n        address indexed from,\n        address indexed to,\n        uint256 indexed tokenId\n    );\n\n    address public proxyRegistryAddress;\n    address public nftAddress;\n    address public lootBoxNftAddress;\n    string public baseURI = \"http://52.221.64.228:5000/api/factory/\";\n\n    /*\n     * Enforce the existence of only 100 OpenSea creatures.\n     */\n    uint256 CREATURE_SUPPLY = 150;\n\n    /*\n     * Three different options for minting Creatures (basic, premium, and gold).\n     */\n    uint256 NUM_OPTIONS = 3;\n    uint256 SINGLE_CREATURE_OPTION = 0;\n    uint256 MULTIPLE_CREATURE_OPTION = 1;\n    uint256 LOOTBOX_OPTION = 2;\n    uint256 NUM_CREATURES_IN_MULTIPLE_CREATURE_OPTION = 4;\n\n    constructor(address _proxyRegistryAddress, address _nftAddress) {\n        proxyRegistryAddress = _proxyRegistryAddress;\n        nftAddress = _nftAddress;\n        // lootBoxNftAddress = address(\n        //     new CreatureLootBox(_proxyRegistryAddress, address(this))\n        // );\n\n        fireTransferEvents(address(0), owner());\n    }\n\n    function name() override external pure returns (string memory) {\n        // return \"OpenSeaCreature Item Sale\";\n        return \"Swiddle\";\n    }\n\n    function symbol() override external pure returns (string memory) {\n        // return \"CPF\";\n        return \"SWD\";\n    }\n\n    function supportsFactoryInterface() override public pure returns (bool) {\n        return true;\n    }\n\n    function numOptions() override public view returns (uint256) {\n        return NUM_OPTIONS;\n    }\n\n    function transferOwnership(address newOwner) override public onlyOwner {\n        address _prevOwner = owner();\n        super.transferOwnership(newOwner);\n        fireTransferEvents(_prevOwner, newOwner);\n    }\n\n    function fireTransferEvents(address _from, address _to) private {\n        for (uint256 i = 0; i < NUM_OPTIONS; i++) {\n            emit Transfer(_from, _to, i);\n        }\n    }\n\n    function mint(uint256 _optionId, address _toAddress) override public payable {\n        // Must be sent from the owner proxy or owner.\n        ProxyRegistry proxyRegistry = ProxyRegistry(proxyRegistryAddress);\n        assert(\n            address(proxyRegistry.proxies(owner())) == _msgSender() ||\n                owner() == _msgSender() ||\n                _msgSender() == lootBoxNftAddress\n        );\n\n        // require(msg.value == 0.02 ether, \"Need to send 0.2 ether\");\n        require(canMint(_optionId));\n        require(msg.value >= 0.05 ether, \"Not enough ETH sent: check price.\");\n\n        Creature openSeaCreature = Creature(nftAddress);\n        if (_optionId == SINGLE_CREATURE_OPTION) {\n            openSeaCreature.mintTo(_toAddress);\n        }\n    }\n\n    function canMint(uint256 _optionId) override public view returns (bool) {\n        if (_optionId >= NUM_OPTIONS) {\n            return false;\n        }\n\n        Creature openSeaCreature = Creature(nftAddress);\n        uint256 creatureSupply = openSeaCreature.totalSupply();\n\n        uint256 numItemsAllocated = 0;\n        if (_optionId == SINGLE_CREATURE_OPTION) {\n            numItemsAllocated = 1;\n        } \n        // } else if (_optionId == MULTIPLE_CREATURE_OPTION) {\n        //     numItemsAllocated = NUM_CREATURES_IN_MULTIPLE_CREATURE_OPTION;\n        // } else if (_optionId == LOOTBOX_OPTION) {\n        //     CreatureLootBox openSeaCreatureLootBox = CreatureLootBox(\n        //         lootBoxNftAddress\n        //     );\n        //     numItemsAllocated = openSeaCreatureLootBox.itemsPerLootbox();\n        // }\n        return creatureSupply < (CREATURE_SUPPLY - numItemsAllocated);\n    }\n\n    function tokenURI(uint256 _optionId) override external view returns (string memory) {\n        return string(abi.encodePacked(baseURI, Strings.toString(_optionId)));\n    }\n\n    /**\n     * Hack to get things to work automatically on OpenSea.\n     * Use transferFrom so the frontend doesn't have to worry about different method names.\n     */\n    function transferFrom(\n        address _from,\n        address _to,\n        uint256 _tokenId\n    ) public {\n        mint(_tokenId, _to);\n    }\n\n    /**\n     * Hack to get things to work automatically on OpenSea.\n     * Use isApprovedForAll so the frontend doesn't have to worry about different method names.\n     */\n    function isApprovedForAll(address _owner, address _operator)\n        public\n        view\n        returns (bool)\n    {\n        if (owner() == _owner && _owner == _operator) {\n            return true;\n        }\n\n        ProxyRegistry proxyRegistry = ProxyRegistry(proxyRegistryAddress);\n        if (\n            owner() == _owner &&\n            address(proxyRegistry.proxies(_owner)) == _operator\n        ) {\n            return true;\n        }\n\n        return false;\n    }\n\n    /**\n     * Hack to get things to work automatically on OpenSea.\n     * Use isApprovedForAll so the frontend doesn't have to worry about different method names.\n     */\n    function ownerOf(uint256 _tokenId) public view returns (address _owner) {\n        return owner();\n    }\n}\n",
  "sourcePath": "/Users/ashwin/Documents/github/creatureFactorySample/contracts/CreatureFactory.sol",
  "compiler": {
    "name": "solc",
    "version": "0.8.10+commit.fc410830.Emscripten.clang"
  },
  "schemaVersion": "3.4.3",
  "updatedAt": "2021-11-11T11:03:23.663Z",
  "networkType": "ethereum",
  "devdoc": {
    "kind": "dev",
    "methods": {
      "canMint(uint256)": {
        "details": "Returns whether the option ID can be minted. Can return false if the developer wishes to restrict a total supply per option ID (or overall)."
      },
      "mint(uint256,address)": {
        "details": "Mints asset(s) in accordance to a specific address with a particular \"option\". This should be callable only by the contract owner or the owner's Wyvern Proxy (later universal login will solve this). Options should also be delineated 0 - (numOptions() - 1) for convenient indexing.",
        "params": {
          "_optionId": "the option id",
          "_toAddress": "address of the future owner of the asset(s)"
        }
      },
      "owner()": {
        "details": "Returns the address of the current owner."
      },
      "renounceOwnership()": {
        "details": "Leaves the contract without owner. It will not be possible to call `onlyOwner` functions anymore. Can only be called by the current owner. NOTE: Renouncing ownership will leave the contract without an owner, thereby removing any functionality that is only available to the owner."
      },
      "tokenURI(uint256)": {
        "details": "Returns a URL specifying some metadata about the option. This metadata can be of the same structure as the ERC721 metadata."
      },
      "transferOwnership(address)": {
        "details": "Transfers ownership of the contract to a new account (`newOwner`). Can only be called by the current owner."
      }
    },
    "version": 1
  },
  "userdoc": {
    "kind": "user",
    "methods": {
      "isApprovedForAll(address,address)": {
        "notice": "Hack to get things to work automatically on OpenSea. Use isApprovedForAll so the frontend doesn't have to worry about different method names."
      },
      "name()": {
        "notice": "Returns the name of this factory."
      },
      "numOptions()": {
        "notice": "Number of options the factory supports."
      },
      "ownerOf(uint256)": {
        "notice": "Hack to get things to work automatically on OpenSea. Use isApprovedForAll so the frontend doesn't have to worry about different method names."
      },
      "supportsFactoryInterface()": {
        "notice": "Indicates that this is a factory contract. Ideally would use EIP 165 supportsInterface()"
      },
      "symbol()": {
        "notice": "Returns the symbol for this factory."
      },
      "transferFrom(address,address,uint256)": {
        "notice": "Hack to get things to work automatically on OpenSea. Use transferFrom so the frontend doesn't have to worry about different method names."
      }
    },
    "version": 1
  }
}