{
  "contractName": "OGFlatFactory",
  "abi": [
    {
      "inputs": [
        {
          "internalType": "address",
          "name": "_proxyRegistryAddress",
          "type": "address"
        },
        {
          "internalType": "address",
          "name": "_nftAddress",
          "type": "address"
        }
      ],
      "stateMutability": "nonpayable",
      "type": "constructor"
    },
    {
      "anonymous": false,
      "inputs": [
        {
          "indexed": true,
          "internalType": "address",
          "name": "previousOwner",
          "type": "address"
        },
        {
          "indexed": true,
          "internalType": "address",
          "name": "newOwner",
          "type": "address"
        }
      ],
      "name": "OwnershipTransferred",
      "type": "event"
    },
    {
      "anonymous": false,
      "inputs": [
        {
          "indexed": true,
          "internalType": "address",
          "name": "from",
          "type": "address"
        },
        {
          "indexed": true,
          "internalType": "address",
          "name": "to",
          "type": "address"
        },
        {
          "indexed": true,
          "internalType": "uint256",
          "name": "tokenId",
          "type": "uint256"
        }
      ],
      "name": "Transfer",
      "type": "event"
    },
    {
      "inputs": [],
      "name": "baseURI",
      "outputs": [
        {
          "internalType": "string",
          "name": "",
          "type": "string"
        }
      ],
      "stateMutability": "view",
      "type": "function"
    },
    {
      "inputs": [],
      "name": "foundationAddress",
      "outputs": [
        {
          "internalType": "address",
          "name": "",
          "type": "address"
        }
      ],
      "stateMutability": "view",
      "type": "function"
    },
    {
      "inputs": [],
      "name": "nftAddress",
      "outputs": [
        {
          "internalType": "address",
          "name": "",
          "type": "address"
        }
      ],
      "stateMutability": "view",
      "type": "function"
    },
    {
      "inputs": [],
      "name": "owner",
      "outputs": [
        {
          "internalType": "address",
          "name": "",
          "type": "address"
        }
      ],
      "stateMutability": "view",
      "type": "function"
    },
    {
      "inputs": [],
      "name": "proxyRegistryAddress",
      "outputs": [
        {
          "internalType": "address",
          "name": "",
          "type": "address"
        }
      ],
      "stateMutability": "view",
      "type": "function"
    },
    {
      "inputs": [],
      "name": "renounceOwnership",
      "outputs": [],
      "stateMutability": "nonpayable",
      "type": "function"
    },
    {
      "inputs": [],
      "name": "name",
      "outputs": [
        {
          "internalType": "string",
          "name": "",
          "type": "string"
        }
      ],
      "stateMutability": "pure",
      "type": "function"
    },
    {
      "inputs": [],
      "name": "symbol",
      "outputs": [
        {
          "internalType": "string",
          "name": "",
          "type": "string"
        }
      ],
      "stateMutability": "pure",
      "type": "function"
    },
    {
      "inputs": [],
      "name": "supportsFactoryInterface",
      "outputs": [
        {
          "internalType": "bool",
          "name": "",
          "type": "bool"
        }
      ],
      "stateMutability": "pure",
      "type": "function"
    },
    {
      "inputs": [],
      "name": "numOptions",
      "outputs": [
        {
          "internalType": "uint256",
          "name": "",
          "type": "uint256"
        }
      ],
      "stateMutability": "view",
      "type": "function"
    },
    {
      "inputs": [
        {
          "internalType": "address",
          "name": "newOwner",
          "type": "address"
        }
      ],
      "name": "transferOwnership",
      "outputs": [],
      "stateMutability": "nonpayable",
      "type": "function"
    },
    {
      "inputs": [
        {
          "internalType": "uint256",
          "name": "_optionId",
          "type": "uint256"
        },
        {
          "internalType": "address",
          "name": "_toAddress",
          "type": "address"
        }
      ],
      "name": "mint",
      "outputs": [],
      "stateMutability": "payable",
      "type": "function"
    },
    {
      "inputs": [
        {
          "internalType": "uint256",
          "name": "mintCount",
          "type": "uint256"
        }
      ],
      "name": "canMint",
      "outputs": [
        {
          "internalType": "bool",
          "name": "",
          "type": "bool"
        }
      ],
      "stateMutability": "view",
      "type": "function"
    },
    {
      "inputs": [
        {
          "internalType": "uint256",
          "name": "_optionId",
          "type": "uint256"
        }
      ],
      "name": "tokenURI",
      "outputs": [
        {
          "internalType": "string",
          "name": "",
          "type": "string"
        }
      ],
      "stateMutability": "view",
      "type": "function"
    },
    {
      "inputs": [
        {
          "internalType": "address",
          "name": "_from",
          "type": "address"
        },
        {
          "internalType": "address",
          "name": "_to",
          "type": "address"
        },
        {
          "internalType": "uint256",
          "name": "_tokenId",
          "type": "uint256"
        }
      ],
      "name": "transferFrom",
      "outputs": [],
      "stateMutability": "nonpayable",
      "type": "function"
    },
    {
      "inputs": [
        {
          "internalType": "address",
          "name": "_owner",
          "type": "address"
        },
        {
          "internalType": "address",
          "name": "_operator",
          "type": "address"
        }
      ],
      "name": "isApprovedForAll",
      "outputs": [
        {
          "internalType": "bool",
          "name": "",
          "type": "bool"
        }
      ],
      "stateMutability": "view",
      "type": "function"
    },
    {
      "inputs": [
        {
          "internalType": "uint256",
          "name": "_tokenId",
          "type": "uint256"
        }
      ],
      "name": "ownerOf",
      "outputs": [
        {
          "internalType": "address",
          "name": "_owner",
          "type": "address"
        }
      ],
      "stateMutability": "view",
      "type": "function"
    }
  ],
  "bytecode": "0x60e060405260266080818152906200119d60a0398051620000299160039160209091019062000183565b5061012d600455600360055560006006556001600755600260085560046009553480156200005657600080fd5b50604051620011c3380380620011c3833981016040819052620000799162000246565b6200008433620000ca565b600180546001600160a01b038481166001600160a01b03199283161790925560028054848416921691909117905560008054620000c292166200011a565b5050620002e5565b600080546001600160a01b038381166001600160a01b0319831681178455604051919092169283917f8be0079c531659141344cd1fd0a4f28419497f9722a3daafe3b4186f6b6457e09190a35050565b60005b6005548110156200017e5780826001600160a01b0316846001600160a01b03167fddf252ad1be2c89b69c2b068fc378daa952ba7f163c4a11628f55a4df523b3ef60405160405180910390a48062000175816200027e565b9150506200011d565b505050565b8280546200019190620002a8565b90600052602060002090601f016020900481019282620001b5576000855562000200565b82601f10620001d057805160ff191683800117855562000200565b8280016001018555821562000200579182015b8281111562000200578251825591602001919060010190620001e3565b506200020e92915062000212565b5090565b5b808211156200020e576000815560010162000213565b80516001600160a01b03811681146200024157600080fd5b919050565b600080604083850312156200025a57600080fd5b620002658362000229565b9150620002756020840162000229565b90509250929050565b6000600019821415620002a157634e487b7160e01b600052601160045260246000fd5b5060010190565b600181811c90821680620002bd57607f821691505b60208210811415620002df57634e487b7160e01b600052602260045260246000fd5b50919050565b610ea880620002f56000396000f3fe6080604052600436106100ce5760003560e01c806306fdde03146100d357806323b872dd1461011d5780634b97aed91461013f5780635bf8633a1461015d5780635dd871a31461018a5780636352211e146101ba5780636c0360eb146101da578063715018a6146101ef5780638da5cb5b1461020457806394bf804d1461021957806395d89b411461022c578063c311c52314610258578063c87b56dd1461026c578063cd7c03261461028c578063e985e9c5146102ac578063f2fde38b146102cc578063fcf07c6b146102ec575b600080fd5b3480156100df57600080fd5b5060408051808201909152600f81526e53776964646c6520466163746f727960881b60208201525b6040516101149190610af1565b60405180910390f35b34801561012957600080fd5b5061013d610138366004610b39565b610314565b005b34801561014b57600080fd5b50600554604051908152602001610114565b34801561016957600080fd5b5060025461017d906001600160a01b031681565b6040516101149190610b7a565b34801561019657600080fd5b506101aa6101a5366004610b8e565b610323565b6040519015158152602001610114565b3480156101c657600080fd5b5061017d6101d5366004610b8e565b6103ad565b3480156101e657600080fd5b506101076103bd565b3480156101fb57600080fd5b5061013d61044b565b34801561021057600080fd5b5061017d61048f565b61013d610227366004610ba7565b61049e565b34801561023857600080fd5b5060408051808201909152600381526229aba360e91b6020820152610107565b34801561026457600080fd5b5060016101aa565b34801561027857600080fd5b50610107610287366004610b8e565b610697565b34801561029857600080fd5b5060015461017d906001600160a01b031681565b3480156102b857600080fd5b506101aa6102c7366004610bd7565b6106cb565b3480156102d857600080fd5b5061013d6102e7366004610c05565b6107d8565b3480156102f857600080fd5b5061017d73658a13938775f901bd02596c6ca794e25f8c50f581565b61031e818361049e565b505050565b600254604080516318160ddd60e01b815290516000926001600160a01b031691839183916318160ddd9160048083019260209291908290030181865afa158015610371573d6000803e3d6000fd5b505050506040513d601f19601f820116820180604052508101906103959190610c29565b9050836004546103a59190610c58565b119392505050565b60006103b761048f565b92915050565b600380546103ca90610c6f565b80601f01602080910402602001604051908101604052809291908181526020018280546103f690610c6f565b80156104435780601f1061041857610100808354040283529160200191610443565b820191906000526020600020905b81548152906001019060200180831161042657829003601f168201915b505050505081565b3361045461048f565b6001600160a01b0316146104835760405162461bcd60e51b815260040161047a90610caa565b60405180910390fd5b61048d600061082a565b565b6000546001600160a01b031690565b6001546001600160a01b0316338163c45527916104b961048f565b6040518263ffffffff1660e01b81526004016104d59190610b7a565b602060405180830381865afa1580156104f2573d6000803e3d6000fd5b505050506040513d601f19601f820116820180604052508101906105169190610cdf565b6001600160a01b0316148061053a57503361052f61048f565b6001600160a01b0316145b61054657610546610cfc565b67026db992a3b1800034101561059e5760405162461bcd60e51b815260206004820152601d60248201527f302e3137352065746820697320726571756972656420746f206d696e74000000604482015260640161047a565b60006105b267026db992a3b1800034610d28565b90506105bd81610323565b6105fe5760405162461bcd60e51b815260206004820152601260248201527113585e081cdd5c1c1b1e481c995858da195960721b604482015260640161047a565b6106073461087a565b6002546001600160a01b031660005b8281101561068f5760405163755edd1760e01b81526001600160a01b0383169063755edd179061064a908890600401610b7a565b600060405180830381600087803b15801561066457600080fd5b505af1158015610678573d6000803e3d6000fd5b50505050808061068790610d3c565b915050610616565b505050505050565b606060036106a4836108bb565b6040516020016106b5929190610d73565b6040516020818303038152906040529050919050565b6000826001600160a01b03166106df61048f565b6001600160a01b03161480156107065750816001600160a01b0316836001600160a01b0316145b15610713575060016103b7565b6001546001600160a01b0390811690841661072c61048f565b6001600160a01b03161480156107bf5750826001600160a01b0316816001600160a01b031663c4552791866040518263ffffffff1660e01b81526004016107739190610b7a565b602060405180830381865afa158015610790573d6000803e3d6000fd5b505050506040513d601f19601f820116820180604052508101906107b49190610cdf565b6001600160a01b0316145b156107ce5760019150506103b7565b5060009392505050565b336107e161048f565b6001600160a01b0316146108075760405162461bcd60e51b815260040161047a90610caa565b600061081161048f565b905061081c826109c1565b6108268183610a61565b5050565b600080546001600160a01b038381166001600160a01b0319831681178455604051919092169283917f8be0079c531659141344cd1fd0a4f28419497f9722a3daafe3b4186f6b6457e09190a35050565b60405173658a13938775f901bd02596c6ca794e25f8c50f59082156108fc029083906000818181858888f19350505050158015610826573d6000803e3d6000fd5b6060816108df5750506040805180820190915260018152600360fc1b602082015290565b8160005b811561090957806108f381610d3c565b91506109029050600a83610d28565b91506108e3565b60008167ffffffffffffffff81111561092457610924610e1a565b6040519080825280601f01601f19166020018201604052801561094e576020820181803683370190505b5090505b84156109b957610963600183610c58565b9150610970600a86610e30565b61097b906030610e44565b60f81b81838151811061099057610990610e5c565b60200101906001600160f81b031916908160001a9053506109b2600a86610d28565b9450610952565b949350505050565b336109ca61048f565b6001600160a01b0316146109f05760405162461bcd60e51b815260040161047a90610caa565b6001600160a01b038116610a555760405162461bcd60e51b815260206004820152602660248201527f4f776e61626c653a206e6577206f776e657220697320746865207a65726f206160448201526564647265737360d01b606482015260840161047a565b610a5e8161082a565b50565b60005b60055481101561031e5780826001600160a01b0316846001600160a01b03167fddf252ad1be2c89b69c2b068fc378daa952ba7f163c4a11628f55a4df523b3ef60405160405180910390a480610ab981610d3c565b915050610a64565b60005b83811015610adc578181015183820152602001610ac4565b83811115610aeb576000848401525b50505050565b6020815260008251806020840152610b10816040850160208701610ac1565b601f01601f19169190910160400192915050565b6001600160a01b0381168114610a5e57600080fd5b600080600060608486031215610b4e57600080fd5b8335610b5981610b24565b92506020840135610b6981610b24565b929592945050506040919091013590565b6001600160a01b0391909116815260200190565b600060208284031215610ba057600080fd5b5035919050565b60008060408385031215610bba57600080fd5b823591506020830135610bcc81610b24565b809150509250929050565b60008060408385031215610bea57600080fd5b8235610bf581610b24565b91506020830135610bcc81610b24565b600060208284031215610c1757600080fd5b8135610c2281610b24565b9392505050565b600060208284031215610c3b57600080fd5b5051919050565b634e487b7160e01b600052601160045260246000fd5b600082821015610c6a57610c6a610c42565b500390565b600181811c90821680610c8357607f821691505b60208210811415610ca457634e487b7160e01b600052602260045260246000fd5b50919050565b6020808252818101527f4f776e61626c653a2063616c6c6572206973206e6f7420746865206f776e6572604082015260600190565b600060208284031215610cf157600080fd5b8151610c2281610b24565b634e487b7160e01b600052600160045260246000fd5b634e487b7160e01b600052601260045260246000fd5b600082610d3757610d37610d12565b500490565b6000600019821415610d5057610d50610c42565b5060010190565b60008151610d69818560208601610ac1565b9290920192915050565b600080845481600182811c915080831680610d8f57607f831692505b6020808410821415610daf57634e487b7160e01b86526022600452602486fd5b818015610dc35760018114610dd457610e01565b60ff19861689528489019650610e01565b60008b81526020902060005b86811015610df95781548b820152908501908301610de0565b505084890196505b505050505050610e118185610d57565b95945050505050565b634e487b7160e01b600052604160045260246000fd5b600082610e3f57610e3f610d12565b500690565b60008219821115610e5757610e57610c42565b500190565b634e487b7160e01b600052603260045260246000fdfea2646970667358221220f0db61a7d151370eb61720e64bc44005477fcbaefda5277fcf6bfa3bc5e944f564736f6c634300080a0033687474703a2f2f35322e3232312e36342e3232383a353030302f6170692f666163746f72792f",
  "immutableReferences": {},
  "source": "// SPDX-License-Identifier: MIT\n\npragma solidity ^0.8.0;\n\nimport \"openzeppelin-solidity/contracts/access/Ownable.sol\";\nimport \"openzeppelin-solidity/contracts/utils/Strings.sol\";\nimport \"./IFactoryERC721.sol\";\nimport \"./OGFlat.sol\";\n\ncontract OGFlatFactory is FactoryERC721, Ownable {\n    using Strings for string;\n\n    event Transfer(\n        address indexed from,\n        address indexed to,\n        uint256 indexed tokenId\n    );\n\n    address public proxyRegistryAddress;\n    address public nftAddress;\n    address public constant foundationAddress = 0x658A13938775f901bd02596c6ca794E25f8C50F5;\n    string public baseURI = \"http://52.221.64.228:5000/api/factory/\";\n\n    // Maximum supply desired (then add 1 to it)\n    uint256 FLAT_SUPPLY = 301;\n\n    /*\n     * Three different options for minting Creatures (basic, premium, and gold).\n     */\n    uint256 NUM_OPTIONS = 3;\n    uint256 SINGLE_CREATURE_OPTION = 0;\n    uint256 MULTIPLE_CREATURE_OPTION = 1;\n    uint256 LOOTBOX_OPTION = 2;\n    uint256 NUM_CREATURES_IN_MULTIPLE_CREATURE_OPTION = 4;\n\n    constructor(address _proxyRegistryAddress, address _nftAddress) {\n        proxyRegistryAddress = _proxyRegistryAddress;\n        nftAddress = _nftAddress;\n\n        fireTransferEvents(address(0), owner());\n    }\n\n    function name() override external pure returns (string memory) {\n        // return \"osOgFlats Item Sale\";\n        return \"Swiddle Factory\";\n    }\n\n    function symbol() override external pure returns (string memory) {\n        // return \"CPF\";\n        return \"SWF\";\n    }\n\n    // function totalSupply() external view returns (uint256) {\n    //     return FLAT_SUPPLY;\n    // }\n\n    function supportsFactoryInterface() override public pure returns (bool) {\n        return true;\n    }\n\n    function numOptions() override public view returns (uint256) {\n        return NUM_OPTIONS;\n    }\n\n    function transferOwnership(address newOwner) override public onlyOwner {\n        address _prevOwner = owner();\n        super.transferOwnership(newOwner);\n        fireTransferEvents(_prevOwner, newOwner);\n    }\n\n    function fireTransferEvents(address _from, address _to) private {\n        for (uint256 i = 0; i < NUM_OPTIONS; i++) {\n            emit Transfer(_from, _to, i);\n        }\n    }\n\n    function sendToFoundation(uint256 etherValue) private {\n        payable(foundationAddress).transfer(etherValue);\n    }\n\n\n    function mint(uint256 _optionId, address _toAddress) override public payable {\n        // Must be sent from the owner proxy or owner.\n        ProxyRegistry proxyRegistry = ProxyRegistry(proxyRegistryAddress);\n        assert(address(proxyRegistry.proxies(owner())) == _msgSender() || owner() == _msgSender());\n\n        //Checks if user can afford at least 1 flat\n        require(msg.value >= 0.175 ether, \"0.175 eth is required to mint\");\n\n        //Counts how many flats can be purchased with eth amount \n        uint256 mintCount = msg.value / 0.175 ether;\n\n        //Check if there are flats left to mint\n        require(canMint(mintCount), \"Max supply reached\");\n\n        sendToFoundation(msg.value);\n\n        OGFlat osOgFlats = OGFlat(nftAddress);\n        for (uint256 i = 0; i < mintCount; i++) {\n            osOgFlats.mintTo(_toAddress);\n        }\n    }  \n\n    function canMint(uint256 mintCount) public view returns (bool) {\n        OGFlat osOgFlats = OGFlat(nftAddress);\n        uint256 creatureSupply = osOgFlats.totalSupply();\n\n        return creatureSupply < (FLAT_SUPPLY - mintCount);\n    }\n\n    function tokenURI(uint256 _optionId) override external view returns (string memory) {\n        return string(abi.encodePacked(baseURI, Strings.toString(_optionId)));\n    }\n\n    /**\n     * Hack to get things to work automatically on OpenSea.\n     * Use transferFrom so the frontend doesn't have to worry about different method names.\n     */\n    function transferFrom(\n        address _from,\n        address _to,\n        uint256 _tokenId\n    ) public {\n        mint(_tokenId, _to);\n    }\n\n\n    // function royaltyInfo(uint256 _tokenId, uint256 _salePrice) external view returns (\n    //     address receiver,\n    //     uint256 royaltyAmount\n    // ){\n    //     OGFlat osOgFlats = OGFlat(nftAddress);\n    //     uint256 royaltyAmount = _salePrice * 25/1000;\n    //     return (address(this), royaltyAmount);\n    // }\n\n    \n    /**\n     * Hack to get things to work automatically on OpenSea.\n     * Use isApprovedForAll so the frontend doesn't have to worry about different method names.\n     */\n    function isApprovedForAll(address _owner, address _operator)\n        public\n        view\n        returns (bool)\n    {\n        if (owner() == _owner && _owner == _operator) {\n            return true;\n        }\n\n        ProxyRegistry proxyRegistry = ProxyRegistry(proxyRegistryAddress);\n        if (\n            owner() == _owner &&\n            address(proxyRegistry.proxies(_owner)) == _operator\n        ) {\n            return true;\n        }\n\n        return false;\n    }\n    \n\n    /**\n     * Hack to get things to work automatically on OpenSea.\n     * Use isApprovedForAll so the frontend doesn't have to worry about different method names.\n     */\n    function ownerOf(uint256 _tokenId) public view returns (address _owner) {\n        return owner();\n    }\n}\n",
  "sourcePath": "/Users/ashwin/Documents/github/creatureFactorySample/contracts/OGFlatFactory.sol",
  "compiler": {
    "name": "solc",
    "version": "0.8.10+commit.fc410830.Emscripten.clang"
  },
  "schemaVersion": "3.4.3",
  "updatedAt": "2021-11-17T23:13:04.681Z",
  "devdoc": {
    "kind": "dev",
    "methods": {
      "canMint(uint256)": {
        "details": "Returns whether the option ID can be minted. Can return false if the developer wishes to restrict a total supply per option ID (or overall)."
      },
      "mint(uint256,address)": {
        "details": "Mints asset(s) in accordance to a specific address with a particular \"option\". This should be callable only by the contract owner or the owner's Wyvern Proxy (later universal login will solve this). Options should also be delineated 0 - (numOptions() - 1) for convenient indexing.",
        "params": {
          "_optionId": "the option id",
          "_toAddress": "address of the future owner of the asset(s)"
        }
      },
      "owner()": {
        "details": "Returns the address of the current owner."
      },
      "renounceOwnership()": {
        "details": "Leaves the contract without owner. It will not be possible to call `onlyOwner` functions anymore. Can only be called by the current owner. NOTE: Renouncing ownership will leave the contract without an owner, thereby removing any functionality that is only available to the owner."
      },
      "tokenURI(uint256)": {
        "details": "Returns a URL specifying some metadata about the option. This metadata can be of the same structure as the ERC721 metadata."
      },
      "transferOwnership(address)": {
        "details": "Transfers ownership of the contract to a new account (`newOwner`). Can only be called by the current owner."
      }
    },
    "version": 1
  },
  "userdoc": {
    "kind": "user",
    "methods": {
      "isApprovedForAll(address,address)": {
        "notice": "Hack to get things to work automatically on OpenSea. Use isApprovedForAll so the frontend doesn't have to worry about different method names."
      },
      "name()": {
        "notice": "Returns the name of this factory."
      },
      "numOptions()": {
        "notice": "Number of options the factory supports."
      },
      "ownerOf(uint256)": {
        "notice": "Hack to get things to work automatically on OpenSea. Use isApprovedForAll so the frontend doesn't have to worry about different method names."
      },
      "supportsFactoryInterface()": {
        "notice": "Indicates that this is a factory contract. Ideally would use EIP 165 supportsInterface()"
      },
      "symbol()": {
        "notice": "Returns the symbol for this factory."
      },
      "transferFrom(address,address,uint256)": {
        "notice": "Hack to get things to work automatically on OpenSea. Use transferFrom so the frontend doesn't have to worry about different method names."
      }
    },
    "version": 1
  }
}