{
  "contractName": "CreatureFactory",
  "abi": [
    {
      "inputs": [
        {
          "internalType": "address",
          "name": "_proxyRegistryAddress",
          "type": "address"
        },
        {
          "internalType": "address",
          "name": "_nftAddress",
          "type": "address"
        }
      ],
      "stateMutability": "nonpayable",
      "type": "constructor"
    },
    {
      "anonymous": false,
      "inputs": [
        {
          "indexed": true,
          "internalType": "address",
          "name": "previousOwner",
          "type": "address"
        },
        {
          "indexed": true,
          "internalType": "address",
          "name": "newOwner",
          "type": "address"
        }
      ],
      "name": "OwnershipTransferred",
      "type": "event"
    },
    {
      "anonymous": false,
      "inputs": [
        {
          "indexed": true,
          "internalType": "address",
          "name": "from",
          "type": "address"
        },
        {
          "indexed": true,
          "internalType": "address",
          "name": "to",
          "type": "address"
        },
        {
          "indexed": true,
          "internalType": "uint256",
          "name": "tokenId",
          "type": "uint256"
        }
      ],
      "name": "Transfer",
      "type": "event"
    },
    {
      "inputs": [],
      "name": "baseURI",
      "outputs": [
        {
          "internalType": "string",
          "name": "",
          "type": "string"
        }
      ],
      "stateMutability": "view",
      "type": "function"
    },
    {
      "inputs": [],
      "name": "foundationAddress",
      "outputs": [
        {
          "internalType": "address",
          "name": "",
          "type": "address"
        }
      ],
      "stateMutability": "view",
      "type": "function"
    },
    {
      "inputs": [],
      "name": "lootBoxNftAddress",
      "outputs": [
        {
          "internalType": "address",
          "name": "",
          "type": "address"
        }
      ],
      "stateMutability": "view",
      "type": "function"
    },
    {
      "inputs": [],
      "name": "nftAddress",
      "outputs": [
        {
          "internalType": "address",
          "name": "",
          "type": "address"
        }
      ],
      "stateMutability": "view",
      "type": "function"
    },
    {
      "inputs": [],
      "name": "owner",
      "outputs": [
        {
          "internalType": "address",
          "name": "",
          "type": "address"
        }
      ],
      "stateMutability": "view",
      "type": "function"
    },
    {
      "inputs": [],
      "name": "proxyRegistryAddress",
      "outputs": [
        {
          "internalType": "address",
          "name": "",
          "type": "address"
        }
      ],
      "stateMutability": "view",
      "type": "function"
    },
    {
      "inputs": [],
      "name": "renounceOwnership",
      "outputs": [],
      "stateMutability": "nonpayable",
      "type": "function"
    },
    {
      "inputs": [],
      "name": "name",
      "outputs": [
        {
          "internalType": "string",
          "name": "",
          "type": "string"
        }
      ],
      "stateMutability": "pure",
      "type": "function"
    },
    {
      "inputs": [],
      "name": "symbol",
      "outputs": [
        {
          "internalType": "string",
          "name": "",
          "type": "string"
        }
      ],
      "stateMutability": "pure",
      "type": "function"
    },
    {
      "inputs": [],
      "name": "supportsFactoryInterface",
      "outputs": [
        {
          "internalType": "bool",
          "name": "",
          "type": "bool"
        }
      ],
      "stateMutability": "pure",
      "type": "function"
    },
    {
      "inputs": [],
      "name": "numOptions",
      "outputs": [
        {
          "internalType": "uint256",
          "name": "",
          "type": "uint256"
        }
      ],
      "stateMutability": "view",
      "type": "function"
    },
    {
      "inputs": [
        {
          "internalType": "address",
          "name": "newOwner",
          "type": "address"
        }
      ],
      "name": "transferOwnership",
      "outputs": [],
      "stateMutability": "nonpayable",
      "type": "function"
    },
    {
      "inputs": [
        {
          "internalType": "uint256",
          "name": "etherValue",
          "type": "uint256"
        }
      ],
      "name": "sendToFoundation",
      "outputs": [],
      "stateMutability": "payable",
      "type": "function"
    },
    {
      "inputs": [
        {
          "internalType": "uint256",
          "name": "_optionId",
          "type": "uint256"
        },
        {
          "internalType": "address",
          "name": "_toAddress",
          "type": "address"
        },
        {
          "internalType": "uint256",
          "name": "_quantity",
          "type": "uint256"
        }
      ],
      "name": "mint",
      "outputs": [],
      "stateMutability": "payable",
      "type": "function"
    },
    {
      "inputs": [
        {
          "internalType": "uint256",
          "name": "_optionId",
          "type": "uint256"
        }
      ],
      "name": "canMint",
      "outputs": [
        {
          "internalType": "bool",
          "name": "",
          "type": "bool"
        }
      ],
      "stateMutability": "view",
      "type": "function"
    },
    {
      "inputs": [
        {
          "internalType": "uint256",
          "name": "_optionId",
          "type": "uint256"
        }
      ],
      "name": "tokenURI",
      "outputs": [
        {
          "internalType": "string",
          "name": "",
          "type": "string"
        }
      ],
      "stateMutability": "view",
      "type": "function"
    },
    {
      "inputs": [
        {
          "internalType": "address",
          "name": "_from",
          "type": "address"
        },
        {
          "internalType": "address",
          "name": "_to",
          "type": "address"
        },
        {
          "internalType": "uint256",
          "name": "_tokenId",
          "type": "uint256"
        }
      ],
      "name": "transferFrom",
      "outputs": [],
      "stateMutability": "nonpayable",
      "type": "function"
    },
    {
      "inputs": [
        {
          "internalType": "address",
          "name": "_owner",
          "type": "address"
        },
        {
          "internalType": "address",
          "name": "_operator",
          "type": "address"
        }
      ],
      "name": "isApprovedForAll",
      "outputs": [
        {
          "internalType": "bool",
          "name": "",
          "type": "bool"
        }
      ],
      "stateMutability": "view",
      "type": "function"
    },
    {
      "inputs": [
        {
          "internalType": "uint256",
          "name": "_tokenId",
          "type": "uint256"
        }
      ],
      "name": "ownerOf",
      "outputs": [
        {
          "internalType": "address",
          "name": "_owner",
          "type": "address"
        }
      ],
      "stateMutability": "view",
      "type": "function"
    }
  ],
  "bytecode": "0x60e060405260266080818152906200123d60a0398051620000299160049160209091019062000182565b50609660055560036006556000600755600160085560026009556004600a553480156200005557600080fd5b506040516200126338038062001263833981016040819052620000789162000245565b6200008333620000c9565b600180546001600160a01b038481166001600160a01b03199283161790925560028054848416921691909117905560008054620000c1921662000119565b5050620002e4565b600080546001600160a01b038381166001600160a01b0319831681178455604051919092169283917f8be0079c531659141344cd1fd0a4f28419497f9722a3daafe3b4186f6b6457e09190a35050565b60005b6006548110156200017d5780826001600160a01b0316846001600160a01b03167fddf252ad1be2c89b69c2b068fc378daa952ba7f163c4a11628f55a4df523b3ef60405160405180910390a48062000174816200027d565b9150506200011c565b505050565b8280546200019090620002a7565b90600052602060002090601f016020900481019282620001b45760008555620001ff565b82601f10620001cf57805160ff1916838001178555620001ff565b82800160010185558215620001ff579182015b82811115620001ff578251825591602001919060010190620001e2565b506200020d92915062000211565b5090565b5b808211156200020d576000815560010162000212565b80516001600160a01b03811681146200024057600080fd5b919050565b600080604083850312156200025957600080fd5b620002648362000228565b9150620002746020840162000228565b90509250929050565b6000600019821415620002a057634e487b7160e01b600052601160045260246000fd5b5060010190565b600181811c90821680620002bc57607f821691505b60208210811415620002de57634e487b7160e01b600052602260045260246000fd5b50919050565b610f4980620002f46000396000f3fe6080604052600436106100e35760003560e01c8062878d10146100e857806306fdde03146100fd57806323b872dd1461013f5780634b97aed91461015f5780635bf8633a1461017d5780635dd871a3146101aa5780636352211e146101da5780636c0360eb146101fa578063715018a61461020f578063836a1040146102245780638da5cb5b1461023757806395d89b411461024c578063c311c52314610278578063c87b56dd1461028c578063cd7c0326146102ac578063e985e9c5146102cc578063ec07d02e146102ec578063f2fde38b1461030c578063fcf07c6b1461032c575b600080fd5b6100fb6100f6366004610b60565b610354565b005b34801561010957600080fd5b5060408051808201909152600781526653776964646c6560c81b60208201525b6040516101369190610ba9565b60405180910390f35b34801561014b57600080fd5b506100fb61015a366004610bf1565b610399565b34801561016b57600080fd5b50600654604051908152602001610136565b34801561018957600080fd5b5060025461019d906001600160a01b031681565b6040516101369190610c32565b3480156101b657600080fd5b506101ca6101c5366004610b60565b6103aa565b6040519015158152602001610136565b3480156101e657600080fd5b5061019d6101f5366004610b60565b61045b565b34801561020657600080fd5b5061012961046b565b34801561021b57600080fd5b506100fb6104f9565b6100fb610232366004610c46565b61053d565b34801561024357600080fd5b5061019d61076c565b34801561025857600080fd5b5060408051808201909152600381526214d5d160ea1b6020820152610129565b34801561028457600080fd5b5060016101ca565b34801561029857600080fd5b506101296102a7366004610b60565b61077b565b3480156102b857600080fd5b5060015461019d906001600160a01b031681565b3480156102d857600080fd5b506101ca6102e7366004610c6d565b6107af565b3480156102f857600080fd5b5060035461019d906001600160a01b031681565b34801561031857600080fd5b506100fb610327366004610ca6565b6108bc565b34801561033857600080fd5b5061019d73a37dbfba2f086187699d78d17ec0750462bd054981565b60405173a37dbfba2f086187699d78d17ec0750462bd05499082156108fc029083906000818181858888f19350505050158015610395573d6000803e3d6000fd5b5050565b6103a58183600161053d565b505050565b600060065482106103bd57506000919050565b600254604080516318160ddd60e01b815290516001600160a01b039092169160009183916318160ddd916004808201926020929091908290030181865afa15801561040c573d6000803e3d6000fd5b505050506040513d601f19601f820116820180604052508101906104309190610cca565b90506000600754851415610442575060015b806005546104509190610cf9565b909110949350505050565b600061046561076c565b92915050565b6004805461047890610d10565b80601f01602080910402602001604051908101604052809291908181526020018280546104a490610d10565b80156104f15780601f106104c6576101008083540402835291602001916104f1565b820191906000526020600020905b8154815290600101906020018083116104d457829003601f168201915b505050505081565b3361050261076c565b6001600160a01b0316146105315760405162461bcd60e51b815260040161052890610d4b565b60405180910390fd5b61053b600061090a565b565b6001546001600160a01b0316338163c455279161055861076c565b6040518263ffffffff1660e01b81526004016105749190610c32565b602060405180830381865afa158015610591573d6000803e3d6000fd5b505050506040513d601f19601f820116820180604052508101906105b59190610d80565b6001600160a01b031614806105d95750336105ce61076c565b6001600160a01b0316145b806105f757506003546001600160a01b0316336001600160a01b0316145b61060357610603610d9d565b6000821161065f5760405162461bcd60e51b815260206004820152602360248201527f4e65656420746f2070757263686173652061206d696e696d756d206f6620312060448201526213919560ea1b6064820152608401610528565b610668846103aa565b61067157600080fd5b67026db992a3b180003410156106d35760405162461bcd60e51b815260206004820152602160248201527f4e6f7420656e6f756768204554482073656e743a20636865636b2070726963656044820152601760f91b6064820152608401610528565b6002546001600160a01b031660005b8381101561075b5760405163755edd1760e01b81526001600160a01b0383169063755edd1790610716908890600401610c32565b600060405180830381600087803b15801561073057600080fd5b505af1158015610744573d6000803e3d6000fd5b50505050808061075390610db3565b9150506106e2565b5061076534610354565b5050505050565b6000546001600160a01b031690565b606060046107888361095a565b604051602001610799929190610dea565b6040516020818303038152906040529050919050565b6000826001600160a01b03166107c361076c565b6001600160a01b03161480156107ea5750816001600160a01b0316836001600160a01b0316145b156107f757506001610465565b6001546001600160a01b0390811690841661081061076c565b6001600160a01b03161480156108a35750826001600160a01b0316816001600160a01b031663c4552791866040518263ffffffff1660e01b81526004016108579190610c32565b602060405180830381865afa158015610874573d6000803e3d6000fd5b505050506040513d601f19601f820116820180604052508101906108989190610d80565b6001600160a01b0316145b156108b2576001915050610465565b5060009392505050565b336108c561076c565b6001600160a01b0316146108eb5760405162461bcd60e51b815260040161052890610d4b565b60006108f561076c565b905061090082610a60565b6103958183610b00565b600080546001600160a01b038381166001600160a01b0319831681178455604051919092169283917f8be0079c531659141344cd1fd0a4f28419497f9722a3daafe3b4186f6b6457e09190a35050565b60608161097e5750506040805180820190915260018152600360fc1b602082015290565b8160005b81156109a8578061099281610db3565b91506109a19050600a83610ea7565b9150610982565b60008167ffffffffffffffff8111156109c3576109c3610ebb565b6040519080825280601f01601f1916602001820160405280156109ed576020820181803683370190505b5090505b8415610a5857610a02600183610cf9565b9150610a0f600a86610ed1565b610a1a906030610ee5565b60f81b818381518110610a2f57610a2f610efd565b60200101906001600160f81b031916908160001a905350610a51600a86610ea7565b94506109f1565b949350505050565b33610a6961076c565b6001600160a01b031614610a8f5760405162461bcd60e51b815260040161052890610d4b565b6001600160a01b038116610af45760405162461bcd60e51b815260206004820152602660248201527f4f776e61626c653a206e6577206f776e657220697320746865207a65726f206160448201526564647265737360d01b6064820152608401610528565b610afd8161090a565b50565b60005b6006548110156103a55780826001600160a01b0316846001600160a01b03167fddf252ad1be2c89b69c2b068fc378daa952ba7f163c4a11628f55a4df523b3ef60405160405180910390a480610b5881610db3565b915050610b03565b600060208284031215610b7257600080fd5b5035919050565b60005b83811015610b94578181015183820152602001610b7c565b83811115610ba3576000848401525b50505050565b6020815260008251806020840152610bc8816040850160208701610b79565b601f01601f19169190910160400192915050565b6001600160a01b0381168114610afd57600080fd5b600080600060608486031215610c0657600080fd5b8335610c1181610bdc565b92506020840135610c2181610bdc565b929592945050506040919091013590565b6001600160a01b0391909116815260200190565b600080600060608486031215610c5b57600080fd5b833592506020840135610c2181610bdc565b60008060408385031215610c8057600080fd5b8235610c8b81610bdc565b91506020830135610c9b81610bdc565b809150509250929050565b600060208284031215610cb857600080fd5b8135610cc381610bdc565b9392505050565b600060208284031215610cdc57600080fd5b5051919050565b634e487b7160e01b600052601160045260246000fd5b600082821015610d0b57610d0b610ce3565b500390565b600181811c90821680610d2457607f821691505b60208210811415610d4557634e487b7160e01b600052602260045260246000fd5b50919050565b6020808252818101527f4f776e61626c653a2063616c6c6572206973206e6f7420746865206f776e6572604082015260600190565b600060208284031215610d9257600080fd5b8151610cc381610bdc565b634e487b7160e01b600052600160045260246000fd5b6000600019821415610dc757610dc7610ce3565b5060010190565b60008151610de0818560208601610b79565b9290920192915050565b600080845481600182811c915080831680610e0657607f831692505b6020808410821415610e2657634e487b7160e01b86526022600452602486fd5b818015610e3a5760018114610e4b57610e78565b60ff19861689528489019650610e78565b60008b81526020902060005b86811015610e705781548b820152908501908301610e57565b505084890196505b505050505050610e888185610dce565b95945050505050565b634e487b7160e01b600052601260045260246000fd5b600082610eb657610eb6610e91565b500490565b634e487b7160e01b600052604160045260246000fd5b600082610ee057610ee0610e91565b500690565b60008219821115610ef857610ef8610ce3565b500190565b634e487b7160e01b600052603260045260246000fdfea26469706673582212200d79f8928e8c791f1378ce1a60a15ea157a7fd41690577a505a222d614c7178264736f6c634300080a0033687474703a2f2f35322e3232312e36342e3232383a353030302f6170692f666163746f72792f",
  "immutableReferences": {},
  "source": "// SPDX-License-Identifier: MIT\n\npragma solidity ^0.8.0;\n\nimport \"openzeppelin-solidity/contracts/access/Ownable.sol\";\nimport \"openzeppelin-solidity/contracts/utils/Strings.sol\";\nimport \"./IFactoryERC721.sol\";\nimport \"./Creature.sol\";\n\ncontract CreatureFactory is FactoryERC721, Ownable {\n    using Strings for string;\n\n    event Transfer(\n        address indexed from,\n        address indexed to,\n        uint256 indexed tokenId\n    );\n\n    address public proxyRegistryAddress;\n    address public nftAddress;\n    address public lootBoxNftAddress;\n    address public constant foundationAddress = 0xA37DbfBa2f086187699d78d17Ec0750462bD0549;\n    string public baseURI = \"http://52.221.64.228:5000/api/factory/\";\n\n    // Maximum supply\n    uint256 CREATURE_SUPPLY = 150;\n\n    /*\n     * Three different options for minting Creatures (basic, premium, and gold).\n     */\n    uint256 NUM_OPTIONS = 3;\n    uint256 SINGLE_CREATURE_OPTION = 0;\n    uint256 MULTIPLE_CREATURE_OPTION = 1;\n    uint256 LOOTBOX_OPTION = 2;\n    uint256 NUM_CREATURES_IN_MULTIPLE_CREATURE_OPTION = 4;\n\n    constructor(address _proxyRegistryAddress, address _nftAddress) {\n        proxyRegistryAddress = _proxyRegistryAddress;\n        nftAddress = _nftAddress;\n        // lootBoxNftAddress = address(\n        //     new CreatureLootBox(_proxyRegistryAddress, address(this))\n        // );\n\n        fireTransferEvents(address(0), owner());\n    }\n\n    function name() override external pure returns (string memory) {\n        // return \"OpenSeaCreature Item Sale\";\n        return \"Swiddle\";\n    }\n\n    function symbol() override external pure returns (string memory) {\n        // return \"CPF\";\n        return \"SWD\";\n    }\n\n    function supportsFactoryInterface() override public pure returns (bool) {\n        return true;\n    }\n\n    function numOptions() override public view returns (uint256) {\n        return NUM_OPTIONS;\n    }\n\n    function transferOwnership(address newOwner) override public onlyOwner {\n        address _prevOwner = owner();\n        super.transferOwnership(newOwner);\n        fireTransferEvents(_prevOwner, newOwner);\n    }\n\n    function fireTransferEvents(address _from, address _to) private {\n        for (uint256 i = 0; i < NUM_OPTIONS; i++) {\n            emit Transfer(_from, _to, i);\n        }\n    }\n\n    function sendToFoundation(uint256 etherValue) public payable {\n        payable(foundationAddress).transfer(etherValue);\n    }\n\n    function mint(uint256 _optionId, address _toAddress, uint256 _quantity) public payable {\n        // Must be sent from the owner proxy or owner.\n        ProxyRegistry proxyRegistry = ProxyRegistry(proxyRegistryAddress);\n        assert(\n            address(proxyRegistry.proxies(owner())) == _msgSender() ||\n                owner() == _msgSender() ||\n                _msgSender() == lootBoxNftAddress\n        );\n\n        require(_quantity > 0, \"Need to purchase a minimum of 1 NFT\");\n        require(canMint(_optionId));\n        require(msg.value >= 0.175 ether, \"Not enough ETH sent: check price.\");\n\n        Creature openSeaCreature = Creature(nftAddress);\n        for(uint256 i = 0; i < _quantity; i++) {\n            openSeaCreature.mintTo(_toAddress);\n        }\n\n        //When the client pays the eth, it gets sent to the contract.\n        //The contract then sends the ether to the foundation wallet.\n        sendToFoundation(msg.value);\n\n    }  \n\n    function canMint(uint256 _optionId) override public view returns (bool) {\n        if (_optionId >= NUM_OPTIONS) {\n            return false;\n        }\n\n        Creature openSeaCreature = Creature(nftAddress);\n        uint256 creatureSupply = openSeaCreature.totalSupply();\n\n        uint256 numItemsAllocated = 0;\n        if (_optionId == SINGLE_CREATURE_OPTION) {\n            numItemsAllocated = 1;\n        } \n        // } else if (_optionId == MULTIPLE_CREATURE_OPTION) {\n        //     numItemsAllocated = NUM_CREATURES_IN_MULTIPLE_CREATURE_OPTION;\n        // } else if (_optionId == LOOTBOX_OPTION) {\n        //     CreatureLootBox openSeaCreatureLootBox = CreatureLootBox(\n        //         lootBoxNftAddress\n        //     );\n        //     numItemsAllocated = openSeaCreatureLootBox.itemsPerLootbox();\n        // }\n        return creatureSupply < (CREATURE_SUPPLY - numItemsAllocated);\n    }\n\n    function tokenURI(uint256 _optionId) override external view returns (string memory) {\n        return string(abi.encodePacked(baseURI, Strings.toString(_optionId)));\n    }\n    \n    /**\n     * Hack to get things to work automatically on OpenSea.\n     * Use transferFrom so the frontend doesn't have to worry about different method names.\n     */\n    function transferFrom(\n        address _from,\n        address _to,\n        uint256 _tokenId\n    ) public {\n        mint(_tokenId, _to, 1);\n    }\n\n    // function payTransferFee(address _from) internal {\n    //     transferFrom(_from, foundationAddress, _tokenId);\n    // }\n\n    /**\n     * Hack to get things to work automatically on OpenSea.\n     * Use isApprovedForAll so the frontend doesn't have to worry about different method names.\n     */\n    function isApprovedForAll(address _owner, address _operator)\n        public\n        view\n        returns (bool)\n    {\n        if (owner() == _owner && _owner == _operator) {\n            return true;\n        }\n\n        ProxyRegistry proxyRegistry = ProxyRegistry(proxyRegistryAddress);\n        if (\n            owner() == _owner &&\n            address(proxyRegistry.proxies(_owner)) == _operator\n        ) {\n            return true;\n        }\n\n        return false;\n    }\n    \n\n    /**\n     * Hack to get things to work automatically on OpenSea.\n     * Use isApprovedForAll so the frontend doesn't have to worry about different method names.\n     */\n    function ownerOf(uint256 _tokenId) public view returns (address _owner) {\n        return owner();\n    }\n}\n",
  "sourcePath": "/Users/ashwin/Documents/github/creatureFactorySample/contracts/CreatureFactory.sol",
  "compiler": {
    "name": "solc",
    "version": "0.8.10+commit.fc410830.Emscripten.clang"
  },
  "schemaVersion": "3.4.3",
  "updatedAt": "2021-11-15T15:28:24.576Z",
  "devdoc": {
    "kind": "dev",
    "methods": {
      "canMint(uint256)": {
        "details": "Returns whether the option ID can be minted. Can return false if the developer wishes to restrict a total supply per option ID (or overall)."
      },
      "mint(uint256,address,uint256)": {
        "details": "Mints asset(s) in accordance to a specific address with a particular \"option\". This should be callable only by the contract owner or the owner's Wyvern Proxy (later universal login will solve this). Options should also be delineated 0 - (numOptions() - 1) for convenient indexing.",
        "params": {
          "_optionId": "the option id",
          "_toAddress": "address of the future owner of the asset(s)"
        }
      },
      "owner()": {
        "details": "Returns the address of the current owner."
      },
      "renounceOwnership()": {
        "details": "Leaves the contract without owner. It will not be possible to call `onlyOwner` functions anymore. Can only be called by the current owner. NOTE: Renouncing ownership will leave the contract without an owner, thereby removing any functionality that is only available to the owner."
      },
      "tokenURI(uint256)": {
        "details": "Returns a URL specifying some metadata about the option. This metadata can be of the same structure as the ERC721 metadata."
      },
      "transferOwnership(address)": {
        "details": "Transfers ownership of the contract to a new account (`newOwner`). Can only be called by the current owner."
      }
    },
    "version": 1
  },
  "userdoc": {
    "kind": "user",
    "methods": {
      "isApprovedForAll(address,address)": {
        "notice": "Hack to get things to work automatically on OpenSea. Use isApprovedForAll so the frontend doesn't have to worry about different method names."
      },
      "name()": {
        "notice": "Returns the name of this factory."
      },
      "numOptions()": {
        "notice": "Number of options the factory supports."
      },
      "ownerOf(uint256)": {
        "notice": "Hack to get things to work automatically on OpenSea. Use isApprovedForAll so the frontend doesn't have to worry about different method names."
      },
      "supportsFactoryInterface()": {
        "notice": "Indicates that this is a factory contract. Ideally would use EIP 165 supportsInterface()"
      },
      "symbol()": {
        "notice": "Returns the symbol for this factory."
      },
      "transferFrom(address,address,uint256)": {
        "notice": "Hack to get things to work automatically on OpenSea. Use transferFrom so the frontend doesn't have to worry about different method names."
      }
    },
    "version": 1
  }
}