{
  "contractName": "OGFlatFactory",
  "abi": [
    {
      "inputs": [
        {
          "internalType": "address",
          "name": "_proxyRegistryAddress",
          "type": "address"
        },
        {
          "internalType": "address",
          "name": "_nftAddress",
          "type": "address"
        }
      ],
      "stateMutability": "nonpayable",
      "type": "constructor"
    },
    {
      "anonymous": false,
      "inputs": [
        {
          "indexed": true,
          "internalType": "address",
          "name": "previousOwner",
          "type": "address"
        },
        {
          "indexed": true,
          "internalType": "address",
          "name": "newOwner",
          "type": "address"
        }
      ],
      "name": "OwnershipTransferred",
      "type": "event"
    },
    {
      "anonymous": false,
      "inputs": [
        {
          "indexed": true,
          "internalType": "address",
          "name": "from",
          "type": "address"
        },
        {
          "indexed": true,
          "internalType": "address",
          "name": "to",
          "type": "address"
        },
        {
          "indexed": true,
          "internalType": "uint256",
          "name": "tokenId",
          "type": "uint256"
        }
      ],
      "name": "Transfer",
      "type": "event"
    },
    {
      "inputs": [],
      "name": "baseURI",
      "outputs": [
        {
          "internalType": "string",
          "name": "",
          "type": "string"
        }
      ],
      "stateMutability": "view",
      "type": "function",
      "constant": true
    },
    {
      "inputs": [],
      "name": "foundationAddress",
      "outputs": [
        {
          "internalType": "address",
          "name": "",
          "type": "address"
        }
      ],
      "stateMutability": "view",
      "type": "function",
      "constant": true
    },
    {
      "inputs": [],
      "name": "nftAddress",
      "outputs": [
        {
          "internalType": "address",
          "name": "",
          "type": "address"
        }
      ],
      "stateMutability": "view",
      "type": "function",
      "constant": true
    },
    {
      "inputs": [],
      "name": "owner",
      "outputs": [
        {
          "internalType": "address",
          "name": "",
          "type": "address"
        }
      ],
      "stateMutability": "view",
      "type": "function",
      "constant": true
    },
    {
      "inputs": [],
      "name": "proxyRegistryAddress",
      "outputs": [
        {
          "internalType": "address",
          "name": "",
          "type": "address"
        }
      ],
      "stateMutability": "view",
      "type": "function",
      "constant": true
    },
    {
      "inputs": [],
      "name": "renounceOwnership",
      "outputs": [],
      "stateMutability": "nonpayable",
      "type": "function"
    },
    {
      "inputs": [],
      "name": "name",
      "outputs": [
        {
          "internalType": "string",
          "name": "",
          "type": "string"
        }
      ],
      "stateMutability": "pure",
      "type": "function",
      "constant": true
    },
    {
      "inputs": [],
      "name": "symbol",
      "outputs": [
        {
          "internalType": "string",
          "name": "",
          "type": "string"
        }
      ],
      "stateMutability": "pure",
      "type": "function",
      "constant": true
    },
    {
      "inputs": [],
      "name": "totalSupply",
      "outputs": [
        {
          "internalType": "uint256",
          "name": "",
          "type": "uint256"
        }
      ],
      "stateMutability": "view",
      "type": "function",
      "constant": true
    },
    {
      "inputs": [],
      "name": "supportsFactoryInterface",
      "outputs": [
        {
          "internalType": "bool",
          "name": "",
          "type": "bool"
        }
      ],
      "stateMutability": "pure",
      "type": "function",
      "constant": true
    },
    {
      "inputs": [],
      "name": "numOptions",
      "outputs": [
        {
          "internalType": "uint256",
          "name": "",
          "type": "uint256"
        }
      ],
      "stateMutability": "view",
      "type": "function",
      "constant": true
    },
    {
      "inputs": [
        {
          "internalType": "address",
          "name": "newOwner",
          "type": "address"
        }
      ],
      "name": "transferOwnership",
      "outputs": [],
      "stateMutability": "nonpayable",
      "type": "function"
    },
    {
      "inputs": [
        {
          "internalType": "uint256",
          "name": "_optionId",
          "type": "uint256"
        },
        {
          "internalType": "address",
          "name": "_toAddress",
          "type": "address"
        }
      ],
      "name": "mint",
      "outputs": [],
      "stateMutability": "payable",
      "type": "function",
      "payable": true
    },
    {
      "inputs": [],
      "name": "canMint",
      "outputs": [
        {
          "internalType": "bool",
          "name": "",
          "type": "bool"
        }
      ],
      "stateMutability": "view",
      "type": "function",
      "constant": true
    },
    {
      "inputs": [
        {
          "internalType": "uint256",
          "name": "_optionId",
          "type": "uint256"
        }
      ],
      "name": "tokenURI",
      "outputs": [
        {
          "internalType": "string",
          "name": "",
          "type": "string"
        }
      ],
      "stateMutability": "view",
      "type": "function",
      "constant": true
    },
    {
      "inputs": [
        {
          "internalType": "address",
          "name": "_from",
          "type": "address"
        },
        {
          "internalType": "address",
          "name": "_to",
          "type": "address"
        },
        {
          "internalType": "uint256",
          "name": "_tokenId",
          "type": "uint256"
        }
      ],
      "name": "transferFrom",
      "outputs": [],
      "stateMutability": "nonpayable",
      "type": "function"
    },
    {
      "inputs": [
        {
          "internalType": "address",
          "name": "_owner",
          "type": "address"
        },
        {
          "internalType": "address",
          "name": "_operator",
          "type": "address"
        }
      ],
      "name": "isApprovedForAll",
      "outputs": [
        {
          "internalType": "bool",
          "name": "",
          "type": "bool"
        }
      ],
      "stateMutability": "view",
      "type": "function",
      "constant": true
    },
    {
      "inputs": [
        {
          "internalType": "uint256",
          "name": "_tokenId",
          "type": "uint256"
        }
      ],
      "name": "ownerOf",
      "outputs": [
        {
          "internalType": "address",
          "name": "_owner",
          "type": "address"
        }
      ],
      "stateMutability": "view",
      "type": "function",
      "constant": true
    }
  ],
  "bytecode": "0x60e06040526026608081815290620011c060a0398051620000299160039160209091019062000182565b506096600455600360055560006006556001600755600260085560046009553480156200005557600080fd5b50604051620011e6380380620011e6833981016040819052620000789162000245565b6200008333620000c9565b600180546001600160a01b038481166001600160a01b03199283161790925560028054848416921691909117905560008054620000c1921662000119565b5050620002e4565b600080546001600160a01b038381166001600160a01b0319831681178455604051919092169283917f8be0079c531659141344cd1fd0a4f28419497f9722a3daafe3b4186f6b6457e09190a35050565b60005b6005548110156200017d5780826001600160a01b0316846001600160a01b03167fddf252ad1be2c89b69c2b068fc378daa952ba7f163c4a11628f55a4df523b3ef60405160405180910390a48062000174816200027d565b9150506200011c565b505050565b8280546200019090620002a7565b90600052602060002090601f016020900481019282620001b45760008555620001ff565b82601f10620001cf57805160ff1916838001178555620001ff565b82800160010185558215620001ff579182015b82811115620001ff578251825591602001919060010190620001e2565b506200020d92915062000211565b5090565b5b808211156200020d576000815560010162000212565b80516001600160a01b03811681146200024057600080fd5b919050565b600080604083850312156200025957600080fd5b620002648362000228565b9150620002746020840162000228565b90509250929050565b6000600019821415620002a057634e487b7160e01b600052601160045260246000fd5b5060010190565b600181811c90821680620002bc57607f821691505b60208210811415620002de57634e487b7160e01b600052602260045260246000fd5b50919050565b610ecc80620002f46000396000f3fe6080604052600436106100d95760003560e01c806306fdde03146100de57806318160ddd1461012857806323b872dd146101475780634b97aed9146101695780635bf8633a1461017e5780636352211e146101ab5780636c0360eb146101cb578063715018a6146101e05780638da5cb5b146101f557806394bf804d1461020a57806395d89b411461021d578063beb9716d14610249578063c311c5231461026e578063c87b56dd14610282578063cd7c0326146102a2578063e985e9c5146102c2578063f2fde38b146102e2578063fcf07c6b14610302575b600080fd5b3480156100ea57600080fd5b5060408051808201909152600f81526e53776964646c6520466163746f727960881b60208201525b60405161011f9190610b15565b60405180910390f35b34801561013457600080fd5b506127105b60405190815260200161011f565b34801561015357600080fd5b50610167610162366004610b5d565b61032a565b005b34801561017557600080fd5b50600554610139565b34801561018a57600080fd5b5060025461019e906001600160a01b031681565b60405161011f9190610b9e565b3480156101b757600080fd5b5061019e6101c6366004610bb2565b610339565b3480156101d757600080fd5b50610112610349565b3480156101ec57600080fd5b506101676103d7565b34801561020157600080fd5b5061019e61041b565b610167610218366004610bcb565b61042a565b34801561022957600080fd5b5060408051808201909152600381526229aba360e91b6020820152610112565b34801561025557600080fd5b5061025e610631565b604051901515815260200161011f565b34801561027a57600080fd5b50600161025e565b34801561028e57600080fd5b5061011261029d366004610bb2565b6106bb565b3480156102ae57600080fd5b5060015461019e906001600160a01b031681565b3480156102ce57600080fd5b5061025e6102dd366004610bfb565b6106ef565b3480156102ee57600080fd5b506101676102fd366004610c29565b6107fc565b34801561030e57600080fd5b5061019e73a37dbfba2f086187699d78d17ec0750462bd054981565b610334818361042a565b505050565b600061034361041b565b92915050565b6003805461035690610c4d565b80601f016020809104026020016040519081016040528092919081815260200182805461038290610c4d565b80156103cf5780601f106103a4576101008083540402835291602001916103cf565b820191906000526020600020905b8154815290600101906020018083116103b257829003601f168201915b505050505081565b336103e061041b565b6001600160a01b03161461040f5760405162461bcd60e51b815260040161040690610c88565b60405180910390fd5b610419600061084e565b565b6000546001600160a01b031690565b600180546001600160a01b0316338163c455279161044661041b565b6040518263ffffffff1660e01b81526004016104629190610b9e565b602060405180830381865afa15801561047f573d6000803e3d6000fd5b505050506040513d601f19601f820116820180604052508101906104a39190610cbd565b6001600160a01b031614806104c75750336104bc61041b565b6001600160a01b0316145b6104d3576104d3610cda565b6104db610631565b61051c5760405162461bcd60e51b815260206004820152601260248201527113585e081cdd5c1c1b1e481c995858da195960721b6044820152606401610406565b67026db992a3b180003410156105745760405162461bcd60e51b815260206004820152601d60248201527f302e3137352065746820697320726571756972656420746f206d696e740000006044820152606401610406565b6704db73254763000034106105985761059567026db992a3b1800034610d1c565b91505b6105a13461089e565b6002546001600160a01b031660005b838110156106295760405163755edd1760e01b81526001600160a01b0383169063755edd17906105e4908890600401610b9e565b600060405180830381600087803b1580156105fe57600080fd5b505af1158015610612573d6000803e3d6000fd5b50505050808061062190610d30565b9150506105b0565b505050505050565b600254604080516318160ddd60e01b815290516000926001600160a01b031691839183916318160ddd9160048083019260209291908290030181865afa15801561067f573d6000803e3d6000fd5b505050506040513d601f19601f820116820180604052508101906106a39190610d4b565b905060016004546106b49190610d64565b1192915050565b606060036106c8836108df565b6040516020016106d9929190610d97565b6040516020818303038152906040529050919050565b6000826001600160a01b031661070361041b565b6001600160a01b031614801561072a5750816001600160a01b0316836001600160a01b0316145b1561073757506001610343565b6001546001600160a01b0390811690841661075061041b565b6001600160a01b03161480156107e35750826001600160a01b0316816001600160a01b031663c4552791866040518263ffffffff1660e01b81526004016107979190610b9e565b602060405180830381865afa1580156107b4573d6000803e3d6000fd5b505050506040513d601f19601f820116820180604052508101906107d89190610cbd565b6001600160a01b0316145b156107f2576001915050610343565b5060009392505050565b3361080561041b565b6001600160a01b03161461082b5760405162461bcd60e51b815260040161040690610c88565b600061083561041b565b9050610840826109e5565b61084a8183610a85565b5050565b600080546001600160a01b038381166001600160a01b0319831681178455604051919092169283917f8be0079c531659141344cd1fd0a4f28419497f9722a3daafe3b4186f6b6457e09190a35050565b60405173a37dbfba2f086187699d78d17ec0750462bd05499082156108fc029083906000818181858888f1935050505015801561084a573d6000803e3d6000fd5b6060816109035750506040805180820190915260018152600360fc1b602082015290565b8160005b811561092d578061091781610d30565b91506109269050600a83610d1c565b9150610907565b60008167ffffffffffffffff81111561094857610948610e3e565b6040519080825280601f01601f191660200182016040528015610972576020820181803683370190505b5090505b84156109dd57610987600183610d64565b9150610994600a86610e54565b61099f906030610e68565b60f81b8183815181106109b4576109b4610e80565b60200101906001600160f81b031916908160001a9053506109d6600a86610d1c565b9450610976565b949350505050565b336109ee61041b565b6001600160a01b031614610a145760405162461bcd60e51b815260040161040690610c88565b6001600160a01b038116610a795760405162461bcd60e51b815260206004820152602660248201527f4f776e61626c653a206e6577206f776e657220697320746865207a65726f206160448201526564647265737360d01b6064820152608401610406565b610a828161084e565b50565b60005b6005548110156103345780826001600160a01b0316846001600160a01b03167fddf252ad1be2c89b69c2b068fc378daa952ba7f163c4a11628f55a4df523b3ef60405160405180910390a480610add81610d30565b915050610a88565b60005b83811015610b00578181015183820152602001610ae8565b83811115610b0f576000848401525b50505050565b6020815260008251806020840152610b34816040850160208701610ae5565b601f01601f19169190910160400192915050565b6001600160a01b0381168114610a8257600080fd5b600080600060608486031215610b7257600080fd5b8335610b7d81610b48565b92506020840135610b8d81610b48565b929592945050506040919091013590565b6001600160a01b0391909116815260200190565b600060208284031215610bc457600080fd5b5035919050565b60008060408385031215610bde57600080fd5b823591506020830135610bf081610b48565b809150509250929050565b60008060408385031215610c0e57600080fd5b8235610c1981610b48565b91506020830135610bf081610b48565b600060208284031215610c3b57600080fd5b8135610c4681610b48565b9392505050565b600181811c90821680610c6157607f821691505b60208210811415610c8257634e487b7160e01b600052602260045260246000fd5b50919050565b6020808252818101527f4f776e61626c653a2063616c6c6572206973206e6f7420746865206f776e6572604082015260600190565b600060208284031215610ccf57600080fd5b8151610c4681610b48565b634e487b7160e01b600052600160045260246000fd5b634e487b7160e01b600052601260045260246000fd5b634e487b7160e01b600052601160045260246000fd5b600082610d2b57610d2b610cf0565b500490565b6000600019821415610d4457610d44610d06565b5060010190565b600060208284031215610d5d57600080fd5b5051919050565b600082821015610d7657610d76610d06565b500390565b60008151610d8d818560208601610ae5565b9290920192915050565b600080845481600182811c915080831680610db357607f831692505b6020808410821415610dd357634e487b7160e01b86526022600452602486fd5b818015610de75760018114610df857610e25565b60ff19861689528489019650610e25565b60008b81526020902060005b86811015610e1d5781548b820152908501908301610e04565b505084890196505b505050505050610e358185610d7b565b95945050505050565b634e487b7160e01b600052604160045260246000fd5b600082610e6357610e63610cf0565b500690565b60008219821115610e7b57610e7b610d06565b500190565b634e487b7160e01b600052603260045260246000fdfea2646970667358221220109bb2627cb128490cfb17978550fbd7cd99b66403bb1cc48601b09e0ed27bbd64736f6c634300080a0033687474703a2f2f35322e3232312e36342e3232383a353030302f6170692f666163746f72792f",
  "immutableReferences": {},
  "source": "// SPDX-License-Identifier: MIT\n\npragma solidity ^0.8.0;\n\nimport \"openzeppelin-solidity/contracts/access/Ownable.sol\";\nimport \"openzeppelin-solidity/contracts/utils/Strings.sol\";\nimport \"./IFactoryERC721.sol\";\nimport \"./OGFlat.sol\";\n\ncontract OGFlatFactory is FactoryERC721, Ownable {\n    using Strings for string;\n\n    event Transfer(\n        address indexed from,\n        address indexed to,\n        uint256 indexed tokenId\n    );\n\n    address public proxyRegistryAddress;\n    address public nftAddress;\n    address public constant foundationAddress = 0xA37DbfBa2f086187699d78d17Ec0750462bD0549;\n    string public baseURI = \"http://52.221.64.228:5000/api/factory/\";\n\n    // Maximum supply\n    uint256 FLAT_SUPPLY = 150;\n\n    /*\n     * Three different options for minting Creatures (basic, premium, and gold).\n     */\n    uint256 NUM_OPTIONS = 3;\n    uint256 SINGLE_CREATURE_OPTION = 0;\n    uint256 MULTIPLE_CREATURE_OPTION = 1;\n    uint256 LOOTBOX_OPTION = 2;\n    uint256 NUM_CREATURES_IN_MULTIPLE_CREATURE_OPTION = 4;\n\n    constructor(address _proxyRegistryAddress, address _nftAddress) {\n        proxyRegistryAddress = _proxyRegistryAddress;\n        nftAddress = _nftAddress;\n\n        fireTransferEvents(address(0), owner());\n    }\n\n    function name() override external pure returns (string memory) {\n        // return \"osOgFlats Item Sale\";\n        return \"Swiddle Factory\";\n    }\n\n    function symbol() override external pure returns (string memory) {\n        // return \"CPF\";\n        return \"SWF\";\n    }\n\n    function totalSupply() external view returns (uint256) {\n        return 10000;\n    }\n\n    function supportsFactoryInterface() override public pure returns (bool) {\n        return true;\n    }\n\n    function numOptions() override public view returns (uint256) {\n        return NUM_OPTIONS;\n    }\n\n    function transferOwnership(address newOwner) override public onlyOwner {\n        address _prevOwner = owner();\n        super.transferOwnership(newOwner);\n        fireTransferEvents(_prevOwner, newOwner);\n    }\n\n    function fireTransferEvents(address _from, address _to) private {\n        for (uint256 i = 0; i < NUM_OPTIONS; i++) {\n            emit Transfer(_from, _to, i);\n        }\n    }\n\n    function sendToFoundation(uint256 etherValue) private {\n        payable(foundationAddress).transfer(etherValue);\n    }\n\n\n    function mint(uint256 _optionId, address _toAddress) override public payable {\n        uint256 mintCount = 1;\n\n        // Must be sent from the owner proxy or owner.\n        ProxyRegistry proxyRegistry = ProxyRegistry(proxyRegistryAddress);\n        assert(\n            address(proxyRegistry.proxies(owner())) == _msgSender() ||\n                owner() == _msgSender()\n        );\n\n        require(canMint(), \"Max supply reached\");\n        require(msg.value >= 0.175 ether, \"0.175 eth is required to mint\");\n\n        //If double the ether value then mint based on this information\n        if (msg.value >= 0.35 ether) {\n            mintCount = msg.value / 0.175 ether;\n        } \n\n        sendToFoundation(msg.value);\n\n        OGFlat osOgFlats = OGFlat(nftAddress);\n        for (uint256 i = 0; i < mintCount; i++) {\n            osOgFlats.mintTo(_toAddress);\n        }\n    }  \n\n    function canMint() public view returns (bool) {\n        OGFlat osOgFlats = OGFlat(nftAddress);\n        uint256 creatureSupply = osOgFlats.totalSupply();\n\n        return creatureSupply < (FLAT_SUPPLY - 1);\n    }\n\n    function tokenURI(uint256 _optionId) override external view returns (string memory) {\n        return string(abi.encodePacked(baseURI, Strings.toString(_optionId)));\n    }\n\n    /**\n     * Hack to get things to work automatically on OpenSea.\n     * Use transferFrom so the frontend doesn't have to worry about different method names.\n     */\n    function transferFrom(\n        address _from,\n        address _to,\n        uint256 _tokenId\n    ) public {\n        mint(_tokenId, _to);\n    }\n\n\n    // function royaltyInfo(uint256 _tokenId, uint256 _salePrice) external view returns (\n    //     address receiver,\n    //     uint256 royaltyAmount\n    // ){\n    //     OGFlat osOgFlats = OGFlat(nftAddress);\n    //     uint256 royaltyAmount = _salePrice * 25/1000;\n    //     return (address(this), royaltyAmount);\n    // }\n\n    \n    /**\n     * Hack to get things to work automatically on OpenSea.\n     * Use isApprovedForAll so the frontend doesn't have to worry about different method names.\n     */\n    function isApprovedForAll(address _owner, address _operator)\n        public\n        view\n        returns (bool)\n    {\n        if (owner() == _owner && _owner == _operator) {\n            return true;\n        }\n\n        ProxyRegistry proxyRegistry = ProxyRegistry(proxyRegistryAddress);\n        if (\n            owner() == _owner &&\n            address(proxyRegistry.proxies(_owner)) == _operator\n        ) {\n            return true;\n        }\n\n        return false;\n    }\n    \n\n    /**\n     * Hack to get things to work automatically on OpenSea.\n     * Use isApprovedForAll so the frontend doesn't have to worry about different method names.\n     */\n    function ownerOf(uint256 _tokenId) public view returns (address _owner) {\n        return owner();\n    }\n}\n",
  "sourcePath": "/Users/ashwin/Documents/github/creatureFactorySample/contracts/OGFlatFactory.sol",
  "compiler": {
    "name": "solc",
    "version": "0.8.10+commit.fc410830.Emscripten.clang"
  },
  "schemaVersion": "3.4.3",
  "updatedAt": "2021-11-17T02:51:45.691Z",
  "networkType": "ethereum",
  "devdoc": {
    "kind": "dev",
    "methods": {
      "canMint()": {
        "details": "Returns whether the option ID can be minted. Can return false if the developer wishes to restrict a total supply per option ID (or overall)."
      },
      "mint(uint256,address)": {
        "details": "Mints asset(s) in accordance to a specific address with a particular \"option\". This should be callable only by the contract owner or the owner's Wyvern Proxy (later universal login will solve this). Options should also be delineated 0 - (numOptions() - 1) for convenient indexing.",
        "params": {
          "_optionId": "the option id",
          "_toAddress": "address of the future owner of the asset(s)"
        }
      },
      "owner()": {
        "details": "Returns the address of the current owner."
      },
      "renounceOwnership()": {
        "details": "Leaves the contract without owner. It will not be possible to call `onlyOwner` functions anymore. Can only be called by the current owner. NOTE: Renouncing ownership will leave the contract without an owner, thereby removing any functionality that is only available to the owner."
      },
      "tokenURI(uint256)": {
        "details": "Returns a URL specifying some metadata about the option. This metadata can be of the same structure as the ERC721 metadata."
      },
      "transferOwnership(address)": {
        "details": "Transfers ownership of the contract to a new account (`newOwner`). Can only be called by the current owner."
      }
    },
    "version": 1
  },
  "userdoc": {
    "kind": "user",
    "methods": {
      "isApprovedForAll(address,address)": {
        "notice": "Hack to get things to work automatically on OpenSea. Use isApprovedForAll so the frontend doesn't have to worry about different method names."
      },
      "name()": {
        "notice": "Returns the name of this factory."
      },
      "numOptions()": {
        "notice": "Number of options the factory supports."
      },
      "ownerOf(uint256)": {
        "notice": "Hack to get things to work automatically on OpenSea. Use isApprovedForAll so the frontend doesn't have to worry about different method names."
      },
      "supportsFactoryInterface()": {
        "notice": "Indicates that this is a factory contract. Ideally would use EIP 165 supportsInterface()"
      },
      "symbol()": {
        "notice": "Returns the symbol for this factory."
      },
      "transferFrom(address,address,uint256)": {
        "notice": "Hack to get things to work automatically on OpenSea. Use transferFrom so the frontend doesn't have to worry about different method names."
      }
    },
    "version": 1
  }
}