{
  "contractName": "OGFlatFactory",
  "abi": [
    {
      "inputs": [
        {
          "internalType": "address",
          "name": "_proxyRegistryAddress",
          "type": "address"
        },
        {
          "internalType": "address",
          "name": "_nftAddress",
          "type": "address"
        }
      ],
      "stateMutability": "nonpayable",
      "type": "constructor"
    },
    {
      "anonymous": false,
      "inputs": [
        {
          "indexed": true,
          "internalType": "address",
          "name": "previousOwner",
          "type": "address"
        },
        {
          "indexed": true,
          "internalType": "address",
          "name": "newOwner",
          "type": "address"
        }
      ],
      "name": "OwnershipTransferred",
      "type": "event"
    },
    {
      "anonymous": false,
      "inputs": [
        {
          "indexed": true,
          "internalType": "address",
          "name": "from",
          "type": "address"
        },
        {
          "indexed": true,
          "internalType": "address",
          "name": "to",
          "type": "address"
        },
        {
          "indexed": true,
          "internalType": "uint256",
          "name": "tokenId",
          "type": "uint256"
        }
      ],
      "name": "Transfer",
      "type": "event"
    },
    {
      "inputs": [],
      "name": "baseURI",
      "outputs": [
        {
          "internalType": "string",
          "name": "",
          "type": "string"
        }
      ],
      "stateMutability": "view",
      "type": "function",
      "constant": true
    },
    {
      "inputs": [],
      "name": "foundationAddress",
      "outputs": [
        {
          "internalType": "address",
          "name": "",
          "type": "address"
        }
      ],
      "stateMutability": "view",
      "type": "function",
      "constant": true
    },
    {
      "inputs": [],
      "name": "lootBoxNftAddress",
      "outputs": [
        {
          "internalType": "address",
          "name": "",
          "type": "address"
        }
      ],
      "stateMutability": "view",
      "type": "function",
      "constant": true
    },
    {
      "inputs": [],
      "name": "nftAddress",
      "outputs": [
        {
          "internalType": "address",
          "name": "",
          "type": "address"
        }
      ],
      "stateMutability": "view",
      "type": "function",
      "constant": true
    },
    {
      "inputs": [],
      "name": "owner",
      "outputs": [
        {
          "internalType": "address",
          "name": "",
          "type": "address"
        }
      ],
      "stateMutability": "view",
      "type": "function",
      "constant": true
    },
    {
      "inputs": [],
      "name": "proxyRegistryAddress",
      "outputs": [
        {
          "internalType": "address",
          "name": "",
          "type": "address"
        }
      ],
      "stateMutability": "view",
      "type": "function",
      "constant": true
    },
    {
      "inputs": [],
      "name": "renounceOwnership",
      "outputs": [],
      "stateMutability": "nonpayable",
      "type": "function"
    },
    {
      "inputs": [],
      "name": "name",
      "outputs": [
        {
          "internalType": "string",
          "name": "",
          "type": "string"
        }
      ],
      "stateMutability": "pure",
      "type": "function",
      "constant": true
    },
    {
      "inputs": [],
      "name": "symbol",
      "outputs": [
        {
          "internalType": "string",
          "name": "",
          "type": "string"
        }
      ],
      "stateMutability": "pure",
      "type": "function",
      "constant": true
    },
    {
      "inputs": [],
      "name": "supportsFactoryInterface",
      "outputs": [
        {
          "internalType": "bool",
          "name": "",
          "type": "bool"
        }
      ],
      "stateMutability": "pure",
      "type": "function",
      "constant": true
    },
    {
      "inputs": [],
      "name": "numOptions",
      "outputs": [
        {
          "internalType": "uint256",
          "name": "",
          "type": "uint256"
        }
      ],
      "stateMutability": "view",
      "type": "function",
      "constant": true
    },
    {
      "inputs": [
        {
          "internalType": "address",
          "name": "newOwner",
          "type": "address"
        }
      ],
      "name": "transferOwnership",
      "outputs": [],
      "stateMutability": "nonpayable",
      "type": "function"
    },
    {
      "inputs": [
        {
          "internalType": "uint256",
          "name": "_optionId",
          "type": "uint256"
        },
        {
          "internalType": "address",
          "name": "_toAddress",
          "type": "address"
        }
      ],
      "name": "mint",
      "outputs": [],
      "stateMutability": "payable",
      "type": "function",
      "payable": true
    },
    {
      "inputs": [
        {
          "internalType": "uint256",
          "name": "mintCount",
          "type": "uint256"
        }
      ],
      "name": "canMint",
      "outputs": [
        {
          "internalType": "bool",
          "name": "",
          "type": "bool"
        }
      ],
      "stateMutability": "view",
      "type": "function",
      "constant": true
    },
    {
      "inputs": [
        {
          "internalType": "uint256",
          "name": "_optionId",
          "type": "uint256"
        }
      ],
      "name": "tokenURI",
      "outputs": [
        {
          "internalType": "string",
          "name": "",
          "type": "string"
        }
      ],
      "stateMutability": "view",
      "type": "function",
      "constant": true
    },
    {
      "inputs": [
        {
          "internalType": "address",
          "name": "_from",
          "type": "address"
        },
        {
          "internalType": "address",
          "name": "_to",
          "type": "address"
        },
        {
          "internalType": "uint256",
          "name": "_tokenId",
          "type": "uint256"
        }
      ],
      "name": "transferFrom",
      "outputs": [],
      "stateMutability": "nonpayable",
      "type": "function"
    },
    {
      "inputs": [
        {
          "internalType": "address",
          "name": "_owner",
          "type": "address"
        },
        {
          "internalType": "address",
          "name": "_operator",
          "type": "address"
        }
      ],
      "name": "isApprovedForAll",
      "outputs": [
        {
          "internalType": "bool",
          "name": "",
          "type": "bool"
        }
      ],
      "stateMutability": "view",
      "type": "function",
      "constant": true
    },
    {
      "inputs": [
        {
          "internalType": "uint256",
          "name": "_tokenId",
          "type": "uint256"
        }
      ],
      "name": "ownerOf",
      "outputs": [
        {
          "internalType": "address",
          "name": "_owner",
          "type": "address"
        }
      ],
      "stateMutability": "view",
      "type": "function",
      "constant": true
    }
  ],
  "bytecode": "0x60e06040526026608081815290620011c760a0398051620000299160049160209091019062000182565b50603260055560036006556000600755600160085560026009556004600a553480156200005557600080fd5b50604051620011ed380380620011ed833981016040819052620000789162000245565b6200008333620000c9565b600180546001600160a01b038481166001600160a01b03199283161790925560028054848416921691909117905560008054620000c1921662000119565b5050620002e4565b600080546001600160a01b038381166001600160a01b0319831681178455604051919092169283917f8be0079c531659141344cd1fd0a4f28419497f9722a3daafe3b4186f6b6457e09190a35050565b60005b6006548110156200017d5780826001600160a01b0316846001600160a01b03167fddf252ad1be2c89b69c2b068fc378daa952ba7f163c4a11628f55a4df523b3ef60405160405180910390a48062000174816200027d565b9150506200011c565b505050565b8280546200019090620002a7565b90600052602060002090601f016020900481019282620001b45760008555620001ff565b82601f10620001cf57805160ff1916838001178555620001ff565b82800160010185558215620001ff579182015b82811115620001ff578251825591602001919060010190620001e2565b506200020d92915062000211565b5090565b5b808211156200020d576000815560010162000212565b80516001600160a01b03811681146200024057600080fd5b919050565b600080604083850312156200025957600080fd5b620002648362000228565b9150620002746020840162000228565b90509250929050565b6000600019821415620002a057634e487b7160e01b600052601160045260246000fd5b5060010190565b600181811c90821680620002bc57607f821691505b60208210811415620002de57634e487b7160e01b600052602260045260246000fd5b50919050565b610ed380620002f46000396000f3fe6080604052600436106100d95760003560e01c806306fdde03146100de57806323b872dd146101285780634b97aed91461014a5780635bf8633a146101685780635dd871a3146101955780636352211e146101c55780636c0360eb146101e5578063715018a6146101fa5780638da5cb5b1461020f57806394bf804d1461022457806395d89b4114610237578063c311c52314610263578063c87b56dd14610277578063cd7c032614610297578063e985e9c5146102b7578063ec07d02e146102d7578063f2fde38b146102f7578063fcf07c6b14610317575b600080fd5b3480156100ea57600080fd5b5060408051808201909152600f81526e53776964646c6520466163746f727960881b60208201525b60405161011f9190610b1c565b60405180910390f35b34801561013457600080fd5b50610148610143366004610b64565b61033f565b005b34801561015657600080fd5b5060065460405190815260200161011f565b34801561017457600080fd5b50600254610188906001600160a01b031681565b60405161011f9190610ba5565b3480156101a157600080fd5b506101b56101b0366004610bb9565b61034e565b604051901515815260200161011f565b3480156101d157600080fd5b506101886101e0366004610bb9565b6103d8565b3480156101f157600080fd5b506101126103e8565b34801561020657600080fd5b50610148610476565b34801561021b57600080fd5b506101886104ba565b610148610232366004610bd2565b6104c9565b34801561024357600080fd5b5060408051808201909152600381526229aba360e91b6020820152610112565b34801561026f57600080fd5b5060016101b5565b34801561028357600080fd5b50610112610292366004610bb9565b6106c2565b3480156102a357600080fd5b50600154610188906001600160a01b031681565b3480156102c357600080fd5b506101b56102d2366004610c02565b6106f6565b3480156102e357600080fd5b50600354610188906001600160a01b031681565b34801561030357600080fd5b50610148610312366004610c30565b610803565b34801561032357600080fd5b5061018873658a13938775f901bd02596c6ca794e25f8c50f581565b61034981836104c9565b505050565b600254604080516318160ddd60e01b815290516000926001600160a01b031691839183916318160ddd9160048083019260209291908290030181865afa15801561039c573d6000803e3d6000fd5b505050506040513d601f19601f820116820180604052508101906103c09190610c54565b9050836005546103d09190610c83565b119392505050565b60006103e26104ba565b92915050565b600480546103f590610c9a565b80601f016020809104026020016040519081016040528092919081815260200182805461042190610c9a565b801561046e5780601f106104435761010080835404028352916020019161046e565b820191906000526020600020905b81548152906001019060200180831161045157829003601f168201915b505050505081565b3361047f6104ba565b6001600160a01b0316146104ae5760405162461bcd60e51b81526004016104a590610cd5565b60405180910390fd5b6104b86000610855565b565b6000546001600160a01b031690565b6001546001600160a01b0316338163c45527916104e46104ba565b6040518263ffffffff1660e01b81526004016105009190610ba5565b602060405180830381865afa15801561051d573d6000803e3d6000fd5b505050506040513d601f19601f820116820180604052508101906105419190610d0a565b6001600160a01b0316148061056557503361055a6104ba565b6001600160a01b0316145b61057157610571610d27565b67026db992a3b180003410156105c95760405162461bcd60e51b815260206004820152601d60248201527f302e3137352065746820697320726571756972656420746f206d696e7400000060448201526064016104a5565b60006105dd67026db992a3b1800034610d53565b90506105e88161034e565b6106295760405162461bcd60e51b815260206004820152601260248201527113585e081cdd5c1c1b1e481c995858da195960721b60448201526064016104a5565b610632346108a5565b6002546001600160a01b031660005b828110156106ba5760405163755edd1760e01b81526001600160a01b0383169063755edd1790610675908890600401610ba5565b600060405180830381600087803b15801561068f57600080fd5b505af11580156106a3573d6000803e3d6000fd5b5050505080806106b290610d67565b915050610641565b505050505050565b606060046106cf836108e6565b6040516020016106e0929190610d9e565b6040516020818303038152906040529050919050565b6000826001600160a01b031661070a6104ba565b6001600160a01b03161480156107315750816001600160a01b0316836001600160a01b0316145b1561073e575060016103e2565b6001546001600160a01b039081169084166107576104ba565b6001600160a01b03161480156107ea5750826001600160a01b0316816001600160a01b031663c4552791866040518263ffffffff1660e01b815260040161079e9190610ba5565b602060405180830381865afa1580156107bb573d6000803e3d6000fd5b505050506040513d601f19601f820116820180604052508101906107df9190610d0a565b6001600160a01b0316145b156107f95760019150506103e2565b5060009392505050565b3361080c6104ba565b6001600160a01b0316146108325760405162461bcd60e51b81526004016104a590610cd5565b600061083c6104ba565b9050610847826109ec565b6108518183610a8c565b5050565b600080546001600160a01b038381166001600160a01b0319831681178455604051919092169283917f8be0079c531659141344cd1fd0a4f28419497f9722a3daafe3b4186f6b6457e09190a35050565b60405173658a13938775f901bd02596c6ca794e25f8c50f59082156108fc029083906000818181858888f19350505050158015610851573d6000803e3d6000fd5b60608161090a5750506040805180820190915260018152600360fc1b602082015290565b8160005b8115610934578061091e81610d67565b915061092d9050600a83610d53565b915061090e565b60008167ffffffffffffffff81111561094f5761094f610e45565b6040519080825280601f01601f191660200182016040528015610979576020820181803683370190505b5090505b84156109e45761098e600183610c83565b915061099b600a86610e5b565b6109a6906030610e6f565b60f81b8183815181106109bb576109bb610e87565b60200101906001600160f81b031916908160001a9053506109dd600a86610d53565b945061097d565b949350505050565b336109f56104ba565b6001600160a01b031614610a1b5760405162461bcd60e51b81526004016104a590610cd5565b6001600160a01b038116610a805760405162461bcd60e51b815260206004820152602660248201527f4f776e61626c653a206e6577206f776e657220697320746865207a65726f206160448201526564647265737360d01b60648201526084016104a5565b610a8981610855565b50565b60005b6006548110156103495780826001600160a01b0316846001600160a01b03167fddf252ad1be2c89b69c2b068fc378daa952ba7f163c4a11628f55a4df523b3ef60405160405180910390a480610ae481610d67565b915050610a8f565b60005b83811015610b07578181015183820152602001610aef565b83811115610b16576000848401525b50505050565b6020815260008251806020840152610b3b816040850160208701610aec565b601f01601f19169190910160400192915050565b6001600160a01b0381168114610a8957600080fd5b600080600060608486031215610b7957600080fd5b8335610b8481610b4f565b92506020840135610b9481610b4f565b929592945050506040919091013590565b6001600160a01b0391909116815260200190565b600060208284031215610bcb57600080fd5b5035919050565b60008060408385031215610be557600080fd5b823591506020830135610bf781610b4f565b809150509250929050565b60008060408385031215610c1557600080fd5b8235610c2081610b4f565b91506020830135610bf781610b4f565b600060208284031215610c4257600080fd5b8135610c4d81610b4f565b9392505050565b600060208284031215610c6657600080fd5b5051919050565b634e487b7160e01b600052601160045260246000fd5b600082821015610c9557610c95610c6d565b500390565b600181811c90821680610cae57607f821691505b60208210811415610ccf57634e487b7160e01b600052602260045260246000fd5b50919050565b6020808252818101527f4f776e61626c653a2063616c6c6572206973206e6f7420746865206f776e6572604082015260600190565b600060208284031215610d1c57600080fd5b8151610c4d81610b4f565b634e487b7160e01b600052600160045260246000fd5b634e487b7160e01b600052601260045260246000fd5b600082610d6257610d62610d3d565b500490565b6000600019821415610d7b57610d7b610c6d565b5060010190565b60008151610d94818560208601610aec565b9290920192915050565b600080845481600182811c915080831680610dba57607f831692505b6020808410821415610dda57634e487b7160e01b86526022600452602486fd5b818015610dee5760018114610dff57610e2c565b60ff19861689528489019650610e2c565b60008b81526020902060005b86811015610e245781548b820152908501908301610e0b565b505084890196505b505050505050610e3c8185610d82565b95945050505050565b634e487b7160e01b600052604160045260246000fd5b600082610e6a57610e6a610d3d565b500690565b60008219821115610e8257610e82610c6d565b500190565b634e487b7160e01b600052603260045260246000fdfea26469706673582212203237b4a8f6a35f6efd34e04cc40189d9084329a4ccc5b0edb36dcceb7975e36e64736f6c634300080a0033687474703a2f2f35322e3232312e36342e3232383a353030302f6170692f666163746f72792f",
  "immutableReferences": {},
  "source": "// SPDX-License-Identifier: MIT\n\npragma solidity ^0.8.0;\n\nimport \"openzeppelin-solidity/contracts/access/Ownable.sol\";\nimport \"openzeppelin-solidity/contracts/utils/Strings.sol\";\nimport \"./IFactoryERC721.sol\";\nimport \"./OGFlat.sol\";\n\ncontract OGFlatFactory is FactoryERC721, Ownable {\n    using Strings for string;\n\n    event Transfer(\n        address indexed from,\n        address indexed to,\n        uint256 indexed tokenId\n    );\n\n    address public proxyRegistryAddress;\n    address public nftAddress;\n    address public lootBoxNftAddress;\n    address public constant foundationAddress = 0x658A13938775f901bd02596c6ca794E25f8C50F5;\n    string public baseURI = \"http://52.221.64.228:5000/api/factory/\";\n\n    // Maximum supply\n    uint256 FLAT_SUPPLY = 50;\n\n    /*\n     * Three different options for minting Creatures (basic, premium, and gold).\n     */\n    uint256 NUM_OPTIONS = 3;\n    uint256 SINGLE_CREATURE_OPTION = 0;\n    uint256 MULTIPLE_CREATURE_OPTION = 1;\n    uint256 LOOTBOX_OPTION = 2;\n    uint256 NUM_CREATURES_IN_MULTIPLE_CREATURE_OPTION = 4;\n\n    constructor(address _proxyRegistryAddress, address _nftAddress) {\n        proxyRegistryAddress = _proxyRegistryAddress;\n        nftAddress = _nftAddress;\n\n        fireTransferEvents(address(0), owner());\n    }\n\n    function name() override external pure returns (string memory) {\n        // return \"osOgFlats Item Sale\";\n        return \"Swiddle Factory\";\n    }\n\n    function symbol() override external pure returns (string memory) {\n        // return \"CPF\";\n        return \"SWF\";\n    }\n\n    // function totalSupply() external view returns (uint256) {\n    //     return FLAT_SUPPLY;\n    // }\n\n    function supportsFactoryInterface() override public pure returns (bool) {\n        return true;\n    }\n\n    function numOptions() override public view returns (uint256) {\n        return NUM_OPTIONS;\n    }\n\n    function transferOwnership(address newOwner) override public onlyOwner {\n        address _prevOwner = owner();\n        super.transferOwnership(newOwner);\n        fireTransferEvents(_prevOwner, newOwner);\n    }\n\n    function fireTransferEvents(address _from, address _to) private {\n        for (uint256 i = 0; i < NUM_OPTIONS; i++) {\n            emit Transfer(_from, _to, i);\n        }\n    }\n\n    function sendToFoundation(uint256 etherValue) private {\n        payable(foundationAddress).transfer(etherValue);\n    }\n\n\n    function mint(uint256 _optionId, address _toAddress) override public payable {\n        // Must be sent from the owner proxy or owner.\n        ProxyRegistry proxyRegistry = ProxyRegistry(proxyRegistryAddress);\n        assert(\n            address(proxyRegistry.proxies(owner())) == _msgSender() ||\n                owner() == _msgSender()\n        );\n\n        require(msg.value >= 0.175 ether, \"0.175 eth is required to mint\");\n        //Counts how many flats can be purchased with eth amount \n        uint256 mintCount = msg.value / 0.175 ether;\n        require(canMint(mintCount), \"Max supply reached\");\n\n        sendToFoundation(msg.value);\n\n        OGFlat osOgFlats = OGFlat(nftAddress);\n        for (uint256 i = 0; i < mintCount; i++) {\n            osOgFlats.mintTo(_toAddress);\n        }\n    }  \n\n    function canMint(uint256 mintCount) public view returns (bool) {\n        OGFlat osOgFlats = OGFlat(nftAddress);\n        uint256 creatureSupply = osOgFlats.totalSupply();\n\n        return creatureSupply < (FLAT_SUPPLY - mintCount);\n    }\n\n    function tokenURI(uint256 _optionId) override external view returns (string memory) {\n        return string(abi.encodePacked(baseURI, Strings.toString(_optionId)));\n    }\n\n    /**\n     * Hack to get things to work automatically on OpenSea.\n     * Use transferFrom so the frontend doesn't have to worry about different method names.\n     */\n    function transferFrom(\n        address _from,\n        address _to,\n        uint256 _tokenId\n    ) public {\n        mint(_tokenId, _to);\n    }\n\n\n    // function royaltyInfo(uint256 _tokenId, uint256 _salePrice) external view returns (\n    //     address receiver,\n    //     uint256 royaltyAmount\n    // ){\n    //     OGFlat osOgFlats = OGFlat(nftAddress);\n    //     uint256 royaltyAmount = _salePrice * 25/1000;\n    //     return (address(this), royaltyAmount);\n    // }\n\n    \n    /**\n     * Hack to get things to work automatically on OpenSea.\n     * Use isApprovedForAll so the frontend doesn't have to worry about different method names.\n     */\n    function isApprovedForAll(address _owner, address _operator)\n        public\n        view\n        returns (bool)\n    {\n        if (owner() == _owner && _owner == _operator) {\n            return true;\n        }\n\n        ProxyRegistry proxyRegistry = ProxyRegistry(proxyRegistryAddress);\n        if (\n            owner() == _owner &&\n            address(proxyRegistry.proxies(_owner)) == _operator\n        ) {\n            return true;\n        }\n\n        return false;\n    }\n    \n\n    /**\n     * Hack to get things to work automatically on OpenSea.\n     * Use isApprovedForAll so the frontend doesn't have to worry about different method names.\n     */\n    function ownerOf(uint256 _tokenId) public view returns (address _owner) {\n        return owner();\n    }\n}\n",
  "sourcePath": "/Users/ashwin/Documents/github/creatureFactorySample/contracts/OGFlatFactory.sol",
  "compiler": {
    "name": "solc",
    "version": "0.8.10+commit.fc410830.Emscripten.clang"
  },
  "schemaVersion": "3.4.3",
  "updatedAt": "2021-11-17T22:32:16.458Z",
  "networkType": "ethereum",
  "devdoc": {
    "kind": "dev",
    "methods": {
      "canMint(uint256)": {
        "details": "Returns whether the option ID can be minted. Can return false if the developer wishes to restrict a total supply per option ID (or overall)."
      },
      "mint(uint256,address)": {
        "details": "Mints asset(s) in accordance to a specific address with a particular \"option\". This should be callable only by the contract owner or the owner's Wyvern Proxy (later universal login will solve this). Options should also be delineated 0 - (numOptions() - 1) for convenient indexing.",
        "params": {
          "_optionId": "the option id",
          "_toAddress": "address of the future owner of the asset(s)"
        }
      },
      "owner()": {
        "details": "Returns the address of the current owner."
      },
      "renounceOwnership()": {
        "details": "Leaves the contract without owner. It will not be possible to call `onlyOwner` functions anymore. Can only be called by the current owner. NOTE: Renouncing ownership will leave the contract without an owner, thereby removing any functionality that is only available to the owner."
      },
      "tokenURI(uint256)": {
        "details": "Returns a URL specifying some metadata about the option. This metadata can be of the same structure as the ERC721 metadata."
      },
      "transferOwnership(address)": {
        "details": "Transfers ownership of the contract to a new account (`newOwner`). Can only be called by the current owner."
      }
    },
    "version": 1
  },
  "userdoc": {
    "kind": "user",
    "methods": {
      "isApprovedForAll(address,address)": {
        "notice": "Hack to get things to work automatically on OpenSea. Use isApprovedForAll so the frontend doesn't have to worry about different method names."
      },
      "name()": {
        "notice": "Returns the name of this factory."
      },
      "numOptions()": {
        "notice": "Number of options the factory supports."
      },
      "ownerOf(uint256)": {
        "notice": "Hack to get things to work automatically on OpenSea. Use isApprovedForAll so the frontend doesn't have to worry about different method names."
      },
      "supportsFactoryInterface()": {
        "notice": "Indicates that this is a factory contract. Ideally would use EIP 165 supportsInterface()"
      },
      "symbol()": {
        "notice": "Returns the symbol for this factory."
      },
      "transferFrom(address,address,uint256)": {
        "notice": "Hack to get things to work automatically on OpenSea. Use transferFrom so the frontend doesn't have to worry about different method names."
      }
    },
    "version": 1
  }
}