{
  "contractName": "CreatureFactory",
  "abi": [
    {
      "inputs": [
        {
          "internalType": "address",
          "name": "_proxyRegistryAddress",
          "type": "address"
        },
        {
          "internalType": "address",
          "name": "_nftAddress",
          "type": "address"
        }
      ],
      "stateMutability": "nonpayable",
      "type": "constructor"
    },
    {
      "anonymous": false,
      "inputs": [
        {
          "indexed": true,
          "internalType": "address",
          "name": "previousOwner",
          "type": "address"
        },
        {
          "indexed": true,
          "internalType": "address",
          "name": "newOwner",
          "type": "address"
        }
      ],
      "name": "OwnershipTransferred",
      "type": "event"
    },
    {
      "anonymous": false,
      "inputs": [
        {
          "indexed": true,
          "internalType": "address",
          "name": "from",
          "type": "address"
        },
        {
          "indexed": true,
          "internalType": "address",
          "name": "to",
          "type": "address"
        },
        {
          "indexed": true,
          "internalType": "uint256",
          "name": "tokenId",
          "type": "uint256"
        }
      ],
      "name": "Transfer",
      "type": "event"
    },
    {
      "inputs": [],
      "name": "baseURI",
      "outputs": [
        {
          "internalType": "string",
          "name": "",
          "type": "string"
        }
      ],
      "stateMutability": "view",
      "type": "function",
      "constant": true
    },
    {
      "inputs": [],
      "name": "foundationAddress",
      "outputs": [
        {
          "internalType": "address",
          "name": "",
          "type": "address"
        }
      ],
      "stateMutability": "view",
      "type": "function",
      "constant": true
    },
    {
      "inputs": [],
      "name": "lootBoxNftAddress",
      "outputs": [
        {
          "internalType": "address",
          "name": "",
          "type": "address"
        }
      ],
      "stateMutability": "view",
      "type": "function",
      "constant": true
    },
    {
      "inputs": [],
      "name": "nftAddress",
      "outputs": [
        {
          "internalType": "address",
          "name": "",
          "type": "address"
        }
      ],
      "stateMutability": "view",
      "type": "function",
      "constant": true
    },
    {
      "inputs": [],
      "name": "owner",
      "outputs": [
        {
          "internalType": "address",
          "name": "",
          "type": "address"
        }
      ],
      "stateMutability": "view",
      "type": "function",
      "constant": true
    },
    {
      "inputs": [],
      "name": "proxyRegistryAddress",
      "outputs": [
        {
          "internalType": "address",
          "name": "",
          "type": "address"
        }
      ],
      "stateMutability": "view",
      "type": "function",
      "constant": true
    },
    {
      "inputs": [],
      "name": "renounceOwnership",
      "outputs": [],
      "stateMutability": "nonpayable",
      "type": "function"
    },
    {
      "inputs": [],
      "name": "name",
      "outputs": [
        {
          "internalType": "string",
          "name": "",
          "type": "string"
        }
      ],
      "stateMutability": "pure",
      "type": "function",
      "constant": true
    },
    {
      "inputs": [],
      "name": "symbol",
      "outputs": [
        {
          "internalType": "string",
          "name": "",
          "type": "string"
        }
      ],
      "stateMutability": "pure",
      "type": "function",
      "constant": true
    },
    {
      "inputs": [],
      "name": "supportsFactoryInterface",
      "outputs": [
        {
          "internalType": "bool",
          "name": "",
          "type": "bool"
        }
      ],
      "stateMutability": "pure",
      "type": "function",
      "constant": true
    },
    {
      "inputs": [],
      "name": "numOptions",
      "outputs": [
        {
          "internalType": "uint256",
          "name": "",
          "type": "uint256"
        }
      ],
      "stateMutability": "view",
      "type": "function",
      "constant": true
    },
    {
      "inputs": [
        {
          "internalType": "address",
          "name": "newOwner",
          "type": "address"
        }
      ],
      "name": "transferOwnership",
      "outputs": [],
      "stateMutability": "nonpayable",
      "type": "function"
    },
    {
      "inputs": [
        {
          "internalType": "uint256",
          "name": "_optionId",
          "type": "uint256"
        },
        {
          "internalType": "address",
          "name": "_toAddress",
          "type": "address"
        }
      ],
      "name": "mint",
      "outputs": [],
      "stateMutability": "payable",
      "type": "function",
      "payable": true
    },
    {
      "inputs": [
        {
          "internalType": "uint256",
          "name": "_optionId",
          "type": "uint256"
        }
      ],
      "name": "canMint",
      "outputs": [
        {
          "internalType": "bool",
          "name": "",
          "type": "bool"
        }
      ],
      "stateMutability": "view",
      "type": "function",
      "constant": true
    },
    {
      "inputs": [
        {
          "internalType": "uint256",
          "name": "_optionId",
          "type": "uint256"
        }
      ],
      "name": "tokenURI",
      "outputs": [
        {
          "internalType": "string",
          "name": "",
          "type": "string"
        }
      ],
      "stateMutability": "view",
      "type": "function",
      "constant": true
    },
    {
      "inputs": [
        {
          "internalType": "address",
          "name": "_from",
          "type": "address"
        },
        {
          "internalType": "address",
          "name": "_to",
          "type": "address"
        },
        {
          "internalType": "uint256",
          "name": "_tokenId",
          "type": "uint256"
        }
      ],
      "name": "transferFrom",
      "outputs": [],
      "stateMutability": "nonpayable",
      "type": "function"
    },
    {
      "inputs": [
        {
          "internalType": "address",
          "name": "_owner",
          "type": "address"
        },
        {
          "internalType": "address",
          "name": "_operator",
          "type": "address"
        }
      ],
      "name": "isApprovedForAll",
      "outputs": [
        {
          "internalType": "bool",
          "name": "",
          "type": "bool"
        }
      ],
      "stateMutability": "view",
      "type": "function",
      "constant": true
    },
    {
      "inputs": [
        {
          "internalType": "uint256",
          "name": "_tokenId",
          "type": "uint256"
        }
      ],
      "name": "ownerOf",
      "outputs": [
        {
          "internalType": "address",
          "name": "_owner",
          "type": "address"
        }
      ],
      "stateMutability": "view",
      "type": "function",
      "constant": true
    }
  ],
  "bytecode": "0x60e06040526026608081815290620011aa60a0398051620000299160049160209091019062000182565b50609660055560036006556000600755600160085560026009556004600a553480156200005557600080fd5b50604051620011d0380380620011d0833981016040819052620000789162000245565b6200008333620000c9565b600180546001600160a01b038481166001600160a01b03199283161790925560028054848416921691909117905560008054620000c1921662000119565b5050620002e4565b600080546001600160a01b038381166001600160a01b0319831681178455604051919092169283917f8be0079c531659141344cd1fd0a4f28419497f9722a3daafe3b4186f6b6457e09190a35050565b60005b6006548110156200017d5780826001600160a01b0316846001600160a01b03167fddf252ad1be2c89b69c2b068fc378daa952ba7f163c4a11628f55a4df523b3ef60405160405180910390a48062000174816200027d565b9150506200011c565b505050565b8280546200019090620002a7565b90600052602060002090601f016020900481019282620001b45760008555620001ff565b82601f10620001cf57805160ff1916838001178555620001ff565b82800160010185558215620001ff579182015b82811115620001ff578251825591602001919060010190620001e2565b506200020d92915062000211565b5090565b5b808211156200020d576000815560010162000212565b80516001600160a01b03811681146200024057600080fd5b919050565b600080604083850312156200025957600080fd5b620002648362000228565b9150620002746020840162000228565b90509250929050565b6000600019821415620002a057634e487b7160e01b600052601160045260246000fd5b5060010190565b600181811c90821680620002bc57607f821691505b60208210811415620002de57634e487b7160e01b600052602260045260246000fd5b50919050565b610eb680620002f46000396000f3fe6080604052600436106100d95760003560e01c806306fdde03146100de57806323b872dd146101205780634b97aed9146101425780635bf8633a146101605780635dd871a31461018d5780636352211e146101bd5780636c0360eb146101dd578063715018a6146101f25780638da5cb5b1461020757806394bf804d1461021c57806395d89b411461022f578063c311c5231461025b578063c87b56dd1461026f578063cd7c03261461028f578063e985e9c5146102af578063ec07d02e146102cf578063f2fde38b146102ef578063fcf07c6b1461030f575b600080fd5b3480156100ea57600080fd5b5060408051808201909152600781526653776964646c6560c81b60208201525b6040516101179190610aff565b60405180910390f35b34801561012c57600080fd5b5061014061013b366004610b47565b610337565b005b34801561014e57600080fd5b50600654604051908152602001610117565b34801561016c57600080fd5b50600254610180906001600160a01b031681565b6040516101179190610b88565b34801561019957600080fd5b506101ad6101a8366004610b9c565b610346565b6040519015158152602001610117565b3480156101c957600080fd5b506101806101d8366004610b9c565b6103f7565b3480156101e957600080fd5b5061010a610407565b3480156101fe57600080fd5b50610140610495565b34801561021357600080fd5b506101806104d9565b61014061022a366004610bb5565b6104e8565b34801561023b57600080fd5b5060408051808201909152600381526214d5d160ea1b602082015261010a565b34801561026757600080fd5b5060016101ad565b34801561027b57600080fd5b5061010a61028a366004610b9c565b6106a9565b34801561029b57600080fd5b50600154610180906001600160a01b031681565b3480156102bb57600080fd5b506101ad6102ca366004610be5565b6106dd565b3480156102db57600080fd5b50600354610180906001600160a01b031681565b3480156102fb57600080fd5b5061014061030a366004610c13565b6107ea565b34801561031b57600080fd5b5061018073a37dbfba2f086187699d78d17ec0750462bd054981565b61034181836104e8565b505050565b6000600654821061035957506000919050565b600254604080516318160ddd60e01b815290516001600160a01b039092169160009183916318160ddd916004808201926020929091908290030181865afa1580156103a8573d6000803e3d6000fd5b505050506040513d601f19601f820116820180604052508101906103cc9190610c37565b905060006007548514156103de575060015b806005546103ec9190610c66565b909110949350505050565b60006104016104d9565b92915050565b6004805461041490610c7d565b80601f016020809104026020016040519081016040528092919081815260200182805461044090610c7d565b801561048d5780601f106104625761010080835404028352916020019161048d565b820191906000526020600020905b81548152906001019060200180831161047057829003601f168201915b505050505081565b3361049e6104d9565b6001600160a01b0316146104cd5760405162461bcd60e51b81526004016104c490610cb8565b60405180910390fd5b6104d7600061083c565b565b6000546001600160a01b031690565b6001546001600160a01b0316338163c45527916105036104d9565b6040518263ffffffff1660e01b815260040161051f9190610b88565b602060405180830381865afa15801561053c573d6000803e3d6000fd5b505050506040513d601f19601f820116820180604052508101906105609190610ced565b6001600160a01b031614806105845750336105796104d9565b6001600160a01b0316145b806105a257506003546001600160a01b0316336001600160a01b0316145b6105ae576105ae610d0a565b6105b783610346565b6105c057600080fd5b67026db992a3b180003410156106225760405162461bcd60e51b815260206004820152602160248201527f4e6f7420656e6f756768204554482073656e743a20636865636b2070726963656044820152601760f91b60648201526084016104c4565b61062b3461088c565b6002546007546001600160a01b03909116908414156106a35760405163755edd1760e01b81526001600160a01b0382169063755edd1790610670908690600401610b88565b600060405180830381600087803b15801561068a57600080fd5b505af115801561069e573d6000803e3d6000fd5b505050505b50505050565b606060046106b6836108cd565b6040516020016106c7929190610d3c565b6040516020818303038152906040529050919050565b6000826001600160a01b03166106f16104d9565b6001600160a01b03161480156107185750816001600160a01b0316836001600160a01b0316145b1561072557506001610401565b6001546001600160a01b0390811690841661073e6104d9565b6001600160a01b03161480156107d15750826001600160a01b0316816001600160a01b031663c4552791866040518263ffffffff1660e01b81526004016107859190610b88565b602060405180830381865afa1580156107a2573d6000803e3d6000fd5b505050506040513d601f19601f820116820180604052508101906107c69190610ced565b6001600160a01b0316145b156107e0576001915050610401565b5060009392505050565b336107f36104d9565b6001600160a01b0316146108195760405162461bcd60e51b81526004016104c490610cb8565b60006108236104d9565b905061082e826109d3565b6108388183610a73565b5050565b600080546001600160a01b038381166001600160a01b0319831681178455604051919092169283917f8be0079c531659141344cd1fd0a4f28419497f9722a3daafe3b4186f6b6457e09190a35050565b60405173a37dbfba2f086187699d78d17ec0750462bd05499082156108fc029083906000818181858888f19350505050158015610838573d6000803e3d6000fd5b6060816108f15750506040805180820190915260018152600360fc1b602082015290565b8160005b811561091b578061090581610de3565b91506109149050600a83610e14565b91506108f5565b60008167ffffffffffffffff81111561093657610936610e28565b6040519080825280601f01601f191660200182016040528015610960576020820181803683370190505b5090505b84156109cb57610975600183610c66565b9150610982600a86610e3e565b61098d906030610e52565b60f81b8183815181106109a2576109a2610e6a565b60200101906001600160f81b031916908160001a9053506109c4600a86610e14565b9450610964565b949350505050565b336109dc6104d9565b6001600160a01b031614610a025760405162461bcd60e51b81526004016104c490610cb8565b6001600160a01b038116610a675760405162461bcd60e51b815260206004820152602660248201527f4f776e61626c653a206e6577206f776e657220697320746865207a65726f206160448201526564647265737360d01b60648201526084016104c4565b610a708161083c565b50565b60005b6006548110156103415780826001600160a01b0316846001600160a01b03167fddf252ad1be2c89b69c2b068fc378daa952ba7f163c4a11628f55a4df523b3ef60405160405180910390a480610acb81610de3565b915050610a76565b60005b83811015610aee578181015183820152602001610ad6565b838111156106a35750506000910152565b6020815260008251806020840152610b1e816040850160208701610ad3565b601f01601f19169190910160400192915050565b6001600160a01b0381168114610a7057600080fd5b600080600060608486031215610b5c57600080fd5b8335610b6781610b32565b92506020840135610b7781610b32565b929592945050506040919091013590565b6001600160a01b0391909116815260200190565b600060208284031215610bae57600080fd5b5035919050565b60008060408385031215610bc857600080fd5b823591506020830135610bda81610b32565b809150509250929050565b60008060408385031215610bf857600080fd5b8235610c0381610b32565b91506020830135610bda81610b32565b600060208284031215610c2557600080fd5b8135610c3081610b32565b9392505050565b600060208284031215610c4957600080fd5b5051919050565b634e487b7160e01b600052601160045260246000fd5b600082821015610c7857610c78610c50565b500390565b600181811c90821680610c9157607f821691505b60208210811415610cb257634e487b7160e01b600052602260045260246000fd5b50919050565b6020808252818101527f4f776e61626c653a2063616c6c6572206973206e6f7420746865206f776e6572604082015260600190565b600060208284031215610cff57600080fd5b8151610c3081610b32565b634e487b7160e01b600052600160045260246000fd5b60008151610d32818560208601610ad3565b9290920192915050565b600080845481600182811c915080831680610d5857607f831692505b6020808410821415610d7857634e487b7160e01b86526022600452602486fd5b818015610d8c5760018114610d9d57610dca565b60ff19861689528489019650610dca565b60008b81526020902060005b86811015610dc25781548b820152908501908301610da9565b505084890196505b505050505050610dda8185610d20565b95945050505050565b6000600019821415610df757610df7610c50565b5060010190565b634e487b7160e01b600052601260045260246000fd5b600082610e2357610e23610dfe565b500490565b634e487b7160e01b600052604160045260246000fd5b600082610e4d57610e4d610dfe565b500690565b60008219821115610e6557610e65610c50565b500190565b634e487b7160e01b600052603260045260246000fdfea26469706673582212204c18f5253c878befc017ac086149374c2678b9dce523c432f7cb1db6dd2dac4964736f6c634300080a0033687474703a2f2f35322e3232312e36342e3232383a353030302f6170692f666163746f72792f",
  "immutableReferences": {},
  "source": "// SPDX-License-Identifier: MIT\n\npragma solidity ^0.8.0;\n\nimport \"openzeppelin-solidity/contracts/access/Ownable.sol\";\nimport \"openzeppelin-solidity/contracts/utils/Strings.sol\";\nimport \"./IFactoryERC721.sol\";\nimport \"./Creature.sol\";\n\ncontract CreatureFactory is FactoryERC721, Ownable {\n    using Strings for string;\n\n    event Transfer(\n        address indexed from,\n        address indexed to,\n        uint256 indexed tokenId\n    );\n\n    address public proxyRegistryAddress;\n    address public nftAddress;\n    address public lootBoxNftAddress;\n    address public constant foundationAddress = 0xA37DbfBa2f086187699d78d17Ec0750462bD0549;\n    string public baseURI = \"http://52.221.64.228:5000/api/factory/\";\n\n    // Maximum supply\n    uint256 CREATURE_SUPPLY = 150;\n\n    /*\n     * Three different options for minting Creatures (basic, premium, and gold).\n     */\n    uint256 NUM_OPTIONS = 3;\n    uint256 SINGLE_CREATURE_OPTION = 0;\n    uint256 MULTIPLE_CREATURE_OPTION = 1;\n    uint256 LOOTBOX_OPTION = 2;\n    uint256 NUM_CREATURES_IN_MULTIPLE_CREATURE_OPTION = 4;\n\n    constructor(address _proxyRegistryAddress, address _nftAddress) {\n        proxyRegistryAddress = _proxyRegistryAddress;\n        nftAddress = _nftAddress;\n        // lootBoxNftAddress = address(\n        //     new CreatureLootBox(_proxyRegistryAddress, address(this))\n        // );\n\n        fireTransferEvents(address(0), owner());\n    }\n\n    function name() override external pure returns (string memory) {\n        // return \"OpenSeaCreature Item Sale\";\n        return \"Swiddle\";\n    }\n\n    function symbol() override external pure returns (string memory) {\n        // return \"CPF\";\n        return \"SWD\";\n    }\n\n    function supportsFactoryInterface() override public pure returns (bool) {\n        return true;\n    }\n\n    function numOptions() override public view returns (uint256) {\n        return NUM_OPTIONS;\n    }\n\n    function transferOwnership(address newOwner) override public onlyOwner {\n        address _prevOwner = owner();\n        super.transferOwnership(newOwner);\n        fireTransferEvents(_prevOwner, newOwner);\n    }\n\n    function fireTransferEvents(address _from, address _to) private {\n        for (uint256 i = 0; i < NUM_OPTIONS; i++) {\n            emit Transfer(_from, _to, i);\n        }\n    }\n\n    function sendToFoundation(uint256 etherValue) private {\n        // foundationAddress.transfer(etherValue);\n        // require(address(this).balance >= etherValue, \"Address: insufficient balance\");\n        payable(foundationAddress).transfer(etherValue);\n    }\n\n\n    function mint(uint256 _optionId, address _toAddress) override public payable {\n        // Must be sent from the owner proxy or owner.\n        ProxyRegistry proxyRegistry = ProxyRegistry(proxyRegistryAddress);\n        assert(\n            address(proxyRegistry.proxies(owner())) == _msgSender() ||\n                owner() == _msgSender() ||\n                _msgSender() == lootBoxNftAddress\n        );\n\n        require(canMint(_optionId));\n        require(msg.value >= 0.175 ether, \"Not enough ETH sent: check price.\");\n        sendToFoundation(msg.value);\n\n        \n        Creature openSeaCreature = Creature(nftAddress);\n        if (_optionId == SINGLE_CREATURE_OPTION) {\n            openSeaCreature.mintTo(_toAddress);\n        }\n    }  \n\n    function canMint(uint256 _optionId) override public view returns (bool) {\n        if (_optionId >= NUM_OPTIONS) {\n            return false;\n        }\n\n        Creature openSeaCreature = Creature(nftAddress);\n        uint256 creatureSupply = openSeaCreature.totalSupply();\n\n        uint256 numItemsAllocated = 0;\n        if (_optionId == SINGLE_CREATURE_OPTION) {\n            numItemsAllocated = 1;\n        } \n        // } else if (_optionId == MULTIPLE_CREATURE_OPTION) {\n        //     numItemsAllocated = NUM_CREATURES_IN_MULTIPLE_CREATURE_OPTION;\n        // } else if (_optionId == LOOTBOX_OPTION) {\n        //     CreatureLootBox openSeaCreatureLootBox = CreatureLootBox(\n        //         lootBoxNftAddress\n        //     );\n        //     numItemsAllocated = openSeaCreatureLootBox.itemsPerLootbox();\n        // }\n        return creatureSupply < (CREATURE_SUPPLY - numItemsAllocated);\n    }\n\n    function tokenURI(uint256 _optionId) override external view returns (string memory) {\n        return string(abi.encodePacked(baseURI, Strings.toString(_optionId)));\n    }\n\n    /**\n     * Hack to get things to work automatically on OpenSea.\n     * Use transferFrom so the frontend doesn't have to worry about different method names.\n     */\n    function transferFrom(\n        address _from,\n        address _to,\n        uint256 _tokenId\n    ) public {\n        mint(_tokenId, _to);\n    }\n\n\n    // function royaltyInfo(uint256 _tokenId, uint256 _salePrice) external view returns (\n    //     address receiver,\n    //     uint256 royaltyAmount\n    // ){\n    //     Creature openSeaCreature = Creature(nftAddress);\n    //     uint256 royaltyAmount = _salePrice * 25/1000;\n    //     return (address(this), royaltyAmount);\n    // }\n\n    \n    /**\n     * Hack to get things to work automatically on OpenSea.\n     * Use isApprovedForAll so the frontend doesn't have to worry about different method names.\n     */\n    function isApprovedForAll(address _owner, address _operator)\n        public\n        view\n        returns (bool)\n    {\n        if (owner() == _owner && _owner == _operator) {\n            return true;\n        }\n\n        ProxyRegistry proxyRegistry = ProxyRegistry(proxyRegistryAddress);\n        if (\n            owner() == _owner &&\n            address(proxyRegistry.proxies(_owner)) == _operator\n        ) {\n            return true;\n        }\n\n        return false;\n    }\n    \n\n    /**\n     * Hack to get things to work automatically on OpenSea.\n     * Use isApprovedForAll so the frontend doesn't have to worry about different method names.\n     */\n    function ownerOf(uint256 _tokenId) public view returns (address _owner) {\n        return owner();\n    }\n}\n",
  "sourcePath": "/Users/ashwin/Documents/github/creatureFactorySample/contracts/CreatureFactory.sol",
  "compiler": {
    "name": "solc",
    "version": "0.8.10+commit.fc410830.Emscripten.clang"
  },
  "schemaVersion": "3.4.3",
  "updatedAt": "2021-11-16T01:25:36.235Z",
  "networkType": "ethereum",
  "devdoc": {
    "kind": "dev",
    "methods": {
      "canMint(uint256)": {
        "details": "Returns whether the option ID can be minted. Can return false if the developer wishes to restrict a total supply per option ID (or overall)."
      },
      "mint(uint256,address)": {
        "details": "Mints asset(s) in accordance to a specific address with a particular \"option\". This should be callable only by the contract owner or the owner's Wyvern Proxy (later universal login will solve this). Options should also be delineated 0 - (numOptions() - 1) for convenient indexing.",
        "params": {
          "_optionId": "the option id",
          "_toAddress": "address of the future owner of the asset(s)"
        }
      },
      "owner()": {
        "details": "Returns the address of the current owner."
      },
      "renounceOwnership()": {
        "details": "Leaves the contract without owner. It will not be possible to call `onlyOwner` functions anymore. Can only be called by the current owner. NOTE: Renouncing ownership will leave the contract without an owner, thereby removing any functionality that is only available to the owner."
      },
      "tokenURI(uint256)": {
        "details": "Returns a URL specifying some metadata about the option. This metadata can be of the same structure as the ERC721 metadata."
      },
      "transferOwnership(address)": {
        "details": "Transfers ownership of the contract to a new account (`newOwner`). Can only be called by the current owner."
      }
    },
    "version": 1
  },
  "userdoc": {
    "kind": "user",
    "methods": {
      "isApprovedForAll(address,address)": {
        "notice": "Hack to get things to work automatically on OpenSea. Use isApprovedForAll so the frontend doesn't have to worry about different method names."
      },
      "name()": {
        "notice": "Returns the name of this factory."
      },
      "numOptions()": {
        "notice": "Number of options the factory supports."
      },
      "ownerOf(uint256)": {
        "notice": "Hack to get things to work automatically on OpenSea. Use isApprovedForAll so the frontend doesn't have to worry about different method names."
      },
      "supportsFactoryInterface()": {
        "notice": "Indicates that this is a factory contract. Ideally would use EIP 165 supportsInterface()"
      },
      "symbol()": {
        "notice": "Returns the symbol for this factory."
      },
      "transferFrom(address,address,uint256)": {
        "notice": "Hack to get things to work automatically on OpenSea. Use transferFrom so the frontend doesn't have to worry about different method names."
      }
    },
    "version": 1
  }
}